{
  "contractName": "CareerCoin",
  "abi": [
    {
      "constant": true,
      "inputs": [],
      "name": "name",
      "outputs": [
        {
          "name": "",
          "type": "string"
        }
      ],
      "payable": false,
      "stateMutability": "view",
      "type": "function"
    },
    {
      "constant": false,
      "inputs": [
        {
          "name": "spender",
          "type": "address"
        },
        {
          "name": "value",
          "type": "uint256"
        }
      ],
      "name": "approve",
      "outputs": [
        {
          "name": "",
          "type": "bool"
        }
      ],
      "payable": false,
      "stateMutability": "nonpayable",
      "type": "function"
    },
    {
      "constant": true,
      "inputs": [],
      "name": "reserveRatio",
      "outputs": [
        {
          "name": "",
          "type": "uint32"
        }
      ],
      "payable": false,
      "stateMutability": "view",
      "type": "function"
    },
    {
      "constant": true,
      "inputs": [
        {
          "name": "_reserveTokenAmount",
          "type": "uint256"
        }
      ],
      "name": "getContinuousMintReward",
      "outputs": [
        {
          "name": "",
          "type": "uint256"
        }
      ],
      "payable": false,
      "stateMutability": "view",
      "type": "function"
    },
    {
      "constant": true,
      "inputs": [],
      "name": "totalSupply",
      "outputs": [
        {
          "name": "",
          "type": "uint256"
        }
      ],
      "payable": false,
      "stateMutability": "view",
      "type": "function"
    },
    {
      "constant": false,
      "inputs": [
        {
          "name": "from",
          "type": "address"
        },
        {
          "name": "to",
          "type": "address"
        },
        {
          "name": "value",
          "type": "uint256"
        }
      ],
      "name": "transferFrom",
      "outputs": [
        {
          "name": "",
          "type": "bool"
        }
      ],
      "payable": false,
      "stateMutability": "nonpayable",
      "type": "function"
    },
    {
      "constant": true,
      "inputs": [
        {
          "name": "_supply",
          "type": "uint256"
        },
        {
          "name": "_reserveBalance",
          "type": "uint256"
        },
        {
          "name": "_reserveRatio",
          "type": "uint32"
        },
        {
          "name": "_depositAmount",
          "type": "uint256"
        }
      ],
      "name": "calculatePurchaseReturn",
      "outputs": [
        {
          "name": "",
          "type": "uint256"
        }
      ],
      "payable": false,
      "stateMutability": "view",
      "type": "function"
    },
    {
      "constant": false,
      "inputs": [
        {
          "name": "spender",
          "type": "address"
        },
        {
          "name": "addedValue",
          "type": "uint256"
        }
      ],
      "name": "increaseAllowance",
      "outputs": [
        {
          "name": "",
          "type": "bool"
        }
      ],
      "payable": false,
      "stateMutability": "nonpayable",
      "type": "function"
    },
    {
      "constant": true,
      "inputs": [],
      "name": "talentFee",
      "outputs": [
        {
          "name": "",
          "type": "uint256"
        }
      ],
      "payable": false,
      "stateMutability": "view",
      "type": "function"
    },
    {
      "constant": true,
      "inputs": [],
      "name": "talentAddress",
      "outputs": [
        {
          "name": "",
          "type": "address"
        }
      ],
      "payable": false,
      "stateMutability": "view",
      "type": "function"
    },
    {
      "constant": true,
      "inputs": [
        {
          "name": "_supply",
          "type": "uint256"
        },
        {
          "name": "_reserveBalance",
          "type": "uint256"
        },
        {
          "name": "_reserveRatio",
          "type": "uint32"
        },
        {
          "name": "_sellAmount",
          "type": "uint256"
        }
      ],
      "name": "calculateSaleReturn",
      "outputs": [
        {
          "name": "",
          "type": "uint256"
        }
      ],
      "payable": false,
      "stateMutability": "view",
      "type": "function"
    },
    {
      "constant": true,
      "inputs": [],
      "name": "version",
      "outputs": [
        {
          "name": "",
          "type": "string"
        }
      ],
      "payable": false,
      "stateMutability": "view",
      "type": "function"
    },
    {
      "constant": true,
      "inputs": [
        {
          "name": "owner",
          "type": "address"
        }
      ],
      "name": "balanceOf",
      "outputs": [
        {
          "name": "",
          "type": "uint256"
        }
      ],
      "payable": false,
      "stateMutability": "view",
      "type": "function"
    },
    {
      "constant": true,
      "inputs": [
        {
          "name": "_continuousTokenAmount",
          "type": "uint256"
        }
      ],
      "name": "getContinuousBurnRefund",
      "outputs": [
        {
          "name": "",
          "type": "uint256"
        }
      ],
      "payable": false,
      "stateMutability": "view",
      "type": "function"
    },
    {
      "constant": true,
      "inputs": [],
      "name": "symbol",
      "outputs": [
        {
          "name": "",
          "type": "string"
        }
      ],
      "payable": false,
      "stateMutability": "view",
      "type": "function"
    },
    {
      "constant": false,
      "inputs": [
        {
          "name": "spender",
          "type": "address"
        },
        {
          "name": "subtractedValue",
          "type": "uint256"
        }
      ],
      "name": "decreaseAllowance",
      "outputs": [
        {
          "name": "",
          "type": "bool"
        }
      ],
      "payable": false,
      "stateMutability": "nonpayable",
      "type": "function"
    },
    {
      "constant": false,
      "inputs": [
        {
          "name": "to",
          "type": "address"
        },
        {
          "name": "value",
          "type": "uint256"
        }
      ],
      "name": "transfer",
      "outputs": [
        {
          "name": "",
          "type": "bool"
        }
      ],
      "payable": false,
      "stateMutability": "nonpayable",
      "type": "function"
    },
    {
      "constant": true,
      "inputs": [
        {
          "name": "owner",
          "type": "address"
        },
        {
          "name": "spender",
          "type": "address"
        }
      ],
      "name": "allowance",
      "outputs": [
        {
          "name": "",
          "type": "uint256"
        }
      ],
      "payable": false,
      "stateMutability": "view",
      "type": "function"
    },
    {
      "inputs": [
        {
          "name": "_symbol",
          "type": "string"
        },
        {
          "name": "_name",
          "type": "string"
        },
        {
          "name": "_reserveRatio",
          "type": "uint32"
        },
        {
          "name": "_talentAddress",
          "type": "address"
        },
        {
          "name": "_talentFee",
          "type": "uint256"
        }
      ],
      "payable": false,
      "stateMutability": "nonpayable",
      "type": "constructor"
    },
    {
      "payable": false,
      "stateMutability": "nonpayable",
      "type": "fallback"
    },
    {
      "anonymous": false,
      "inputs": [
        {
          "indexed": true,
          "name": "from",
          "type": "address"
        },
        {
          "indexed": true,
          "name": "to",
          "type": "address"
        },
        {
          "indexed": false,
          "name": "value",
          "type": "uint256"
        }
      ],
      "name": "Transfer",
      "type": "event"
    },
    {
      "anonymous": false,
      "inputs": [
        {
          "indexed": true,
          "name": "owner",
          "type": "address"
        },
        {
          "indexed": true,
          "name": "spender",
          "type": "address"
        },
        {
          "indexed": false,
          "name": "value",
          "type": "uint256"
        }
      ],
      "name": "Approval",
      "type": "event"
    },
    {
      "constant": false,
      "inputs": [],
      "name": "mint",
      "outputs": [],
      "payable": true,
      "stateMutability": "payable",
      "type": "function"
    },
    {
      "constant": false,
      "inputs": [
        {
          "name": "_amount",
          "type": "uint256"
        }
      ],
      "name": "burn",
      "outputs": [],
      "payable": false,
      "stateMutability": "nonpayable",
      "type": "function"
    },
    {
      "constant": true,
      "inputs": [],
      "name": "reserveBalance",
      "outputs": [
        {
          "name": "",
          "type": "uint256"
        }
      ],
      "payable": false,
      "stateMutability": "view",
      "type": "function"
    },
    {
      "constant": true,
      "inputs": [],
      "name": "continuousSupply",
      "outputs": [
        {
          "name": "",
          "type": "uint256"
        }
      ],
      "payable": false,
      "stateMutability": "view",
      "type": "function"
    }
  ],
  "bytecode": "0x60806040526040805190810160405280600381526020017f302e330000000000000000000000000000000000000000000000000000000000815250600090805190602001906200005192919062001063565b506012608860006101000a81548160ff021916908360ff1602179055503480156200007b57600080fd5b506040516200444f3803806200444f833981018060405281019080805182019291906020018051820192919060200180519060200190929190805190602001909291908051906020019092919050505082701c35fedd14ffffffffffffffffffffffff60016020608081101515620000ef57fe5b0181905550701b0ce43b323fffffffffffffffffffffff600160216080811015156200011757fe5b01819055507019f0028ec1ffffffffffffffffffffffff600160226080811015156200013f57fe5b01819055507018ded91f0e7fffffffffffffffffffffff600160236080811015156200016757fe5b01819055507017d8ec7f0417ffffffffffffffffffffff600160246080811015156200018f57fe5b01819055507016ddc6556cdbffffffffffffffffffffff60016025608081101515620001b757fe5b01819055507015ecf52776a1ffffffffffffffffffffff60016026608081101515620001df57fe5b01819055507015060c256cb2ffffffffffffffffffffff600160276080811015156200020757fe5b0181905550701428a2f98d72ffffffffffffffffffffff600160286080811015156200022f57fe5b01819055507013545598e5c23fffffffffffffffffffff600160296080811015156200025757fe5b0181905550701288c4161ce1dfffffffffffffffffffff6001602a6080811015156200027f57fe5b01819055507011c592761c666fffffffffffffffffffff6001602b608081101515620002a757fe5b018190555070110a688680a757ffffffffffffffffffff6001602c608081101515620002cf57fe5b0181905550701056f1b5bedf77ffffffffffffffffffff6001602d608081101515620002f757fe5b0181905550700faadceceeff8bffffffffffffffffffff6001602e6080811015156200031f57fe5b0181905550700f05dc6b27edadffffffffffffffffffff6001602f6080811015156200034757fe5b0181905550700e67a5a25da4107fffffffffffffffffff600160306080811015156200036f57fe5b0181905550700dcff115b14eedffffffffffffffffffff600160316080811015156200039757fe5b0181905550700d3e7a392431239fffffffffffffffffff60016032608081101515620003bf57fe5b0181905550700cb2ff529eb71e4fffffffffffffffffff60016033608081101515620003e757fe5b0181905550700c2d415c3db974afffffffffffffffffff600160346080811015156200040f57fe5b0181905550700bad03e7d883f69bffffffffffffffffff600160356080811015156200043757fe5b0181905550700b320d03b2c343d5ffffffffffffffffff600160366080811015156200045f57fe5b0181905550700abc25204e02828dffffffffffffffffff600160376080811015156200048757fe5b0181905550700a4b16f74ee4bb207fffffffffffffffff60016038608081101515620004af57fe5b01819055507009deaf736ac1f569ffffffffffffffffff60016039608081101515620004d757fe5b0181905550700976bd9952c7aa957fffffffffffffffff6001603a608081101515620004ff57fe5b01819055507009131271922eaa606fffffffffffffffff6001603b6080811015156200052757fe5b01819055507008b380f3558668c46fffffffffffffffff6001603c6080811015156200054f57fe5b0181905550700857ddf0117efa215bffffffffffffffff6001603d6080811015156200057757fe5b01819055507007ffffffffffffffffffffffffffffffff6001603e6080811015156200059f57fe5b01819055507007abbf6f6abb9d087fffffffffffffffff6001603f608081101515620005c757fe5b018190555070075af62cbac95f7dfa7fffffffffffffff60016040608081101515620005ef57fe5b018190555070070d7fb7452e187ac13fffffffffffffff600160416080811015156200061757fe5b01819055507006c3390ecc8af379295fffffffffffffff600160426080811015156200063f57fe5b018190555070067c00a3b07ffc01fd6fffffffffffffff600160436080811015156200066757fe5b0181905550700637b647c39cbb9d3d27ffffffffffffff600160446080811015156200068f57fe5b01819055507005f63b1fc104dbd39587ffffffffffffff60016045608081101515620006b757fe5b01819055507005b771955b36e12f7235ffffffffffffff60016046608081101515620006df57fe5b018190555070057b3d49dda84556d6f6ffffffffffffff600160476080811015156200070757fe5b018190555070054183095b2c8ececf30ffffffffffffff600160486080811015156200072f57fe5b018190555070050a28be635ca2b888f77fffffffffffff600160496080811015156200075757fe5b01819055507004d5156639708c9db33c3fffffffffffff6001604a6080811015156200077f57fe5b01819055507004a23105873875bd52dfdfffffffffffff6001604b608081101515620007a757fe5b0181905550700471649d87199aa990756fffffffffffff6001604c608081101515620007cf57fe5b01819055507004429a21a029d4c1457cfbffffffffffff6001604d608081101515620007f757fe5b0181905550700415bc6d6fb7dd71af2cb3ffffffffffff6001604e6080811015156200081f57fe5b01819055507003eab73b3bbfe282243ce1ffffffffffff6001604f6080811015156200084757fe5b01819055507003c1771ac9fb6b4c18e229ffffffffffff600160506080811015156200086f57fe5b0181905550700399e96897690418f785257fffffffffff600160516080811015156200089757fe5b0181905550700373fc456c53bb779bf0ea9fffffffffff60016052608081101515620008bf57fe5b018190555070034f9e8e490c48e67e6ab8bfffffffffff60016053608081101515620008e757fe5b018190555070032cbfd4a7adc790560b3337ffffffffff600160546080811015156200090f57fe5b018190555070030b50570f6e5d2acca94613ffffffffff600160556080811015156200093757fe5b01819055507002eb40f9f620fda6b56c2861ffffffffff600160566080811015156200095f57fe5b01819055507002cc8340ecb0d0f520a6af58ffffffffff600160576080811015156200098757fe5b01819055507002af09481380a0a35cf1ba02ffffffffff60016058608081101515620009af57fe5b0181905550700292c5bdd3b92ec810287b1b3fffffffff60016059608081101515620009d757fe5b0181905550700277abdcdab07d5a77ac6d6b9fffffffff6001605a608081101515620009ff57fe5b018190555070025daf6654b1eaa55fd64df5efffffffff6001605b60808110151562000a2757fe5b0181905550700244c49c648baa98192dce88b7ffffffff6001605c60808110151562000a4f57fe5b018190555070022ce03cd5619a311b2471268bffffffff6001605d60808110151562000a7757fe5b0181905550700215f77c045fbe885654a44a0fffffffff6001605e60808110151562000a9f57fe5b01819055507001ffffffffffffffffffffffffffffffff6001605f60808110151562000ac757fe5b01819055507001eaefdbdaaee7421fc4d3ede5ffffffff6001606060808110151562000aef57fe5b01819055507001d6bd8b2eb257df7e8ca57b09bfffffff6001606160808110151562000b1757fe5b01819055507001c35fedd14b861eb0443f7f133fffffff6001606260808110151562000b3f57fe5b01819055507001b0ce43b322bcde4a56e8ada5afffffff6001606360808110151562000b6757fe5b018190555070019f0028ec1fff007f5a195a39dfffffff6001606460808110151562000b8f57fe5b018190555070018ded91f0e72ee74f49b15ba527ffffff6001606560808110151562000bb757fe5b018190555070017d8ec7f04136f4e5615fd41a63ffffff6001606660808110151562000bdf57fe5b018190555070016ddc6556cdb84bdc8d12d22e6fffffff6001606760808110151562000c0757fe5b018190555070015ecf52776a1155b5bd8395814f7fffff6001606860808110151562000c2f57fe5b018190555070015060c256cb23b3b3cc3754cf40ffffff6001606960808110151562000c5757fe5b01819055507001428a2f98d728ae223ddab715be3fffff6001606a60808110151562000c7f57fe5b018190555070013545598e5c23276ccf0ede68034fffff6001606b60808110151562000ca757fe5b01819055507001288c4161ce1d6f54b7f61081194fffff6001606c60808110151562000ccf57fe5b018190555070011c592761c666aa641d5a01a40f17ffff6001606d60808110151562000cf757fe5b0181905550700110a688680a7530515f3e6e6cfdcdffff6001606e60808110151562000d1f57fe5b01819055507001056f1b5bedf75c6bcb2ce8aed428ffff6001606f60808110151562000d4757fe5b01819055506ffaadceceeff8a0890f3875f008277fff6001607060808110151562000d6e57fe5b01819055506ff05dc6b27edad306388a600f6ba0bfff6001607160808110151562000d9557fe5b01819055506fe67a5a25da41063de1495d5b18cdbfff6001607260808110151562000dbc57fe5b01819055506fdcff115b14eedde6fc3aa5353f2e4fff6001607360808110151562000de357fe5b01819055506fd3e7a3924312399f9aae2e0f868f8fff6001607460808110151562000e0a57fe5b01819055506fcb2ff529eb71e41582cccd5a1ee26fff6001607560808110151562000e3157fe5b01819055506fc2d415c3db974ab32a51840c0b67edff6001607660808110151562000e5857fe5b01819055506fbad03e7d883f69ad5b0a186184e06bff6001607760808110151562000e7f57fe5b01819055506fb320d03b2c343d4829abd6075f0cc5ff6001607860808110151562000ea657fe5b01819055506fabc25204e02828d73c6e80bcdb1a95bf6001607960808110151562000ecd57fe5b01819055506fa4b16f74ee4bb2040a1ec6c15fbbf2df6001607a60808110151562000ef457fe5b01819055506f9deaf736ac1f569deb1b5ae3f36c130f6001607b60808110151562000f1b57fe5b01819055506f976bd9952c7aa957f5937d790ef650376001607c60808110151562000f4257fe5b01819055506f9131271922eaa6064b73a22d0bd4f2bf6001607d60808110151562000f6957fe5b01819055506f8b380f3558668c46c91c49a2f8e967b96001607e60808110151562000f9057fe5b01819055506f857ddf0117efa215952912839f6473e66001607f60808110151562000fb757fe5b018190555080608160006101000a81548163ffffffff021916908363ffffffff16021790555050846086908051906020019062000ff692919062001063565b5083608790805190602001906200100f92919062001063565b5081608860016101000a81548173ffffffffffffffffffffffffffffffffffffffff021916908373ffffffffffffffffffffffffffffffffffffffff16021790555080608981905550505050505062001112565b828054600181600116156101000203166002900490600052602060002090601f016020900481019282601f10620010a657805160ff1916838001178555620010d7565b82800160010185558215620010d7579182015b82811115620010d6578251825591602001919060010190620010b9565b5b509050620010e69190620010ea565b5090565b6200110f91905b808211156200110b576000816000905550600101620010f1565b5090565b90565b61332d80620011226000396000f300608060405260043610610128576000357c0100000000000000000000000000000000000000000000000000000000900463ffffffff16806306fdde03146101a3578063095ea7b3146102335780630c7d5cd8146102985780630d8f9f7f146102cf5780631249c58b1461031057806318160ddd1461031a57806323b872dd1461034557806329a00e7c146103ca578063395093511461042f5780633fdbd72a1461049457806342966c68146104bf578063460a5489146104ec57806349f9b0f71461054357806354fd4d50146105a857806370a08231146106385780637cbed3e01461068f57806395d89b41146106d0578063a10954fe14610760578063a457c2d71461078b578063a9059cbb146107f0578063da12457a14610855578063dd62ed3e14610880575b34801561013457600080fd5b506040517f08c379a000000000000000000000000000000000000000000000000000000000815260040180806020018281038252601e8152602001807f43616e6e6f742063616c6c2066616c6c6261636b2066756e6374696f6e2e000081525060200191505060405180910390fd5b3480156101af57600080fd5b506101b86108f7565b6040518080602001828103825283818151815260200191508051906020019080838360005b838110156101f85780820151818401526020810190506101dd565b50505050905090810190601f1680156102255780820380516001836020036101000a031916815260200191505b509250505060405180910390f35b34801561023f57600080fd5b5061027e600480360381019080803573ffffffffffffffffffffffffffffffffffffffff16906020019092919080359060200190929190505050610995565b604051808215151515815260200191505060405180910390f35b3480156102a457600080fd5b506102ad610ac2565b604051808263ffffffff1663ffffffff16815260200191505060405180910390f35b3480156102db57600080fd5b506102fa60048036038101908080359060200190929190505050610ad8565b6040518082815260200191505060405180910390f35b610318610b0d565b005b34801561032657600080fd5b5061032f610b3a565b6040518082815260200191505060405180910390f35b34801561035157600080fd5b506103b0600480360381019080803573ffffffffffffffffffffffffffffffffffffffff169060200190929190803573ffffffffffffffffffffffffffffffffffffffff16906020019092919080359060200190929190505050610b44565b604051808215151515815260200191505060405180910390f35b3480156103d657600080fd5b506104196004803603810190808035906020019092919080359060200190929190803563ffffffff16906020019092919080359060200190929190505050610cf6565b6040518082815260200191505060405180910390f35b34801561043b57600080fd5b5061047a600480360381019080803573ffffffffffffffffffffffffffffffffffffffff16906020019092919080359060200190929190505050610e70565b604051808215151515815260200191505060405180910390f35b3480156104a057600080fd5b506104a96110a7565b6040518082815260200191505060405180910390f35b3480156104cb57600080fd5b506104ea600480360381019080803590602001909291905050506110ad565b005b3480156104f857600080fd5b50610501611120565b604051808273ffffffffffffffffffffffffffffffffffffffff1673ffffffffffffffffffffffffffffffffffffffff16815260200191505060405180910390f35b34801561054f57600080fd5b506105926004803603810190808035906020019092919080359060200190929190803563ffffffff16906020019092919080359060200190929190505050611146565b6040518082815260200191505060405180910390f35b3480156105b457600080fd5b506105bd6112f3565b6040518080602001828103825283818151815260200191508051906020019080838360005b838110156105fd5780820151818401526020810190506105e2565b50505050905090810190601f16801561062a5780820380516001836020036101000a031916815260200191505b509250505060405180910390f35b34801561064457600080fd5b50610679600480360381019080803573ffffffffffffffffffffffffffffffffffffffff169060200190929190505050611391565b6040518082815260200191505060405180910390f35b34801561069b57600080fd5b506106ba600480360381019080803590602001909291905050506113da565b6040518082815260200191505060405180910390f35b3480156106dc57600080fd5b506106e561140f565b6040518080602001828103825283818151815260200191508051906020019080838360005b8381101561072557808201518184015260208101905061070a565b50505050905090810190601f1680156107525780820380516001836020036101000a031916815260200191505b509250505060405180910390f35b34801561076c57600080fd5b506107756114ad565b6040518082815260200191505060405180910390f35b34801561079757600080fd5b506107d6600480360381019080803573ffffffffffffffffffffffffffffffffffffffff169060200190929190803590602001909291905050506114b7565b604051808215151515815260200191505060405180910390f35b3480156107fc57600080fd5b5061083b600480360381019080803573ffffffffffffffffffffffffffffffffffffffff169060200190929190803590602001909291905050506116ee565b604051808215151515815260200191505060405180910390f35b34801561086157600080fd5b5061086a611705565b6040518082815260200191505060405180910390f35b34801561088c57600080fd5b506108e1600480360381019080803573ffffffffffffffffffffffffffffffffffffffff169060200190929190803573ffffffffffffffffffffffffffffffffffffffff169060200190929190505050611714565b6040518082815260200191505060405180910390f35b60878054600181600116156101000203166002900480601f01602080910402602001604051908101604052809291908181526020018280546001816001161561010002031660029004801561098d5780601f106109625761010080835404028352916020019161098d565b820191906000526020600020905b81548152906001019060200180831161097057829003601f168201915b505050505081565b60008073ffffffffffffffffffffffffffffffffffffffff168373ffffffffffffffffffffffffffffffffffffffff16141515156109d257600080fd5b81608360003373ffffffffffffffffffffffffffffffffffffffff1673ffffffffffffffffffffffffffffffffffffffff16815260200190815260200160002060008573ffffffffffffffffffffffffffffffffffffffff1673ffffffffffffffffffffffffffffffffffffffff168152602001908152602001600020819055508273ffffffffffffffffffffffffffffffffffffffff163373ffffffffffffffffffffffffffffffffffffffff167f8c5be1e5ebec7d5bd14f71427d1e84f3dd0314c0f7b2291e5b200ac8c7c3b925846040518082815260200191505060405180910390a36001905092915050565b608160009054906101000a900463ffffffff1681565b6000610b06610ae5611705565b610aed6114ad565b608160009054906101000a900463ffffffff1685610cf6565b9050919050565b6000349050610b278160855461179b90919063ffffffff16565b608581905550610b36816117bc565b5050565b6000608454905090565b6000608360008573ffffffffffffffffffffffffffffffffffffffff1673ffffffffffffffffffffffffffffffffffffffff16815260200190815260200160002060003373ffffffffffffffffffffffffffffffffffffffff1673ffffffffffffffffffffffffffffffffffffffff168152602001908152602001600020548211151515610bd157600080fd5b610c6082608360008773ffffffffffffffffffffffffffffffffffffffff1673ffffffffffffffffffffffffffffffffffffffff16815260200190815260200160002060003373ffffffffffffffffffffffffffffffffffffffff1673ffffffffffffffffffffffffffffffffffffffff1681526020019081526020016000205461185690919063ffffffff16565b608360008673ffffffffffffffffffffffffffffffffffffffff1673ffffffffffffffffffffffffffffffffffffffff16815260200190815260200160002060003373ffffffffffffffffffffffffffffffffffffffff1673ffffffffffffffffffffffffffffffffffffffff16815260200190815260200160002081905550610ceb848484611877565b600190509392505050565b60008060008060008089118015610d0d5750600088115b8015610d1f575060008763ffffffff16115b8015610d3a5750620f424063ffffffff168763ffffffff1611155b1515610dae576040517f08c379a000000000000000000000000000000000000000000000000000000000815260040180806020018281038252600f8152602001807f496e76616c696420696e707574732e000000000000000000000000000000000081525060200191505060405180910390fd5b6000861415610dc05760009450610e64565b620f424063ffffffff168763ffffffff161415610e0357610dfc88610dee888c611a9590919063ffffffff16565b611ad390919063ffffffff16565b9450610e64565b610e16888761179b90919063ffffffff16565b9150610e27828989620f4240611afd565b80945081955050508260ff16610e46858b611a9590919063ffffffff16565b9060020a90049050610e61898261185690919063ffffffff16565b94505b50505050949350505050565b60008073ffffffffffffffffffffffffffffffffffffffff168373ffffffffffffffffffffffffffffffffffffffff1614151515610ead57600080fd5b610f3c82608360003373ffffffffffffffffffffffffffffffffffffffff1673ffffffffffffffffffffffffffffffffffffffff16815260200190815260200160002060008673ffffffffffffffffffffffffffffffffffffffff1673ffffffffffffffffffffffffffffffffffffffff1681526020019081526020016000205461179b90919063ffffffff16565b608360003373ffffffffffffffffffffffffffffffffffffffff1673ffffffffffffffffffffffffffffffffffffffff16815260200190815260200160002060008573ffffffffffffffffffffffffffffffffffffffff1673ffffffffffffffffffffffffffffffffffffffff168152602001908152602001600020819055508273ffffffffffffffffffffffffffffffffffffffff163373ffffffffffffffffffffffffffffffffffffffff167f8c5be1e5ebec7d5bd14f71427d1e84f3dd0314c0f7b2291e5b200ac8c7c3b925608360003373ffffffffffffffffffffffffffffffffffffffff1673ffffffffffffffffffffffffffffffffffffffff16815260200190815260200160002060008773ffffffffffffffffffffffffffffffffffffffff1673ffffffffffffffffffffffffffffffffffffffff168152602001908152602001600020546040518082815260200191505060405180910390a36001905092915050565b60895481565b60006110b882611cd9565b90506110cf8160855461185690919063ffffffff16565b6085819055503373ffffffffffffffffffffffffffffffffffffffff166108fc829081150290604051600060405180830381858888f1935050505015801561111b573d6000803e3d6000fd5b505050565b608860019054906101000a900473ffffffffffffffffffffffffffffffffffffffff1681565b60008060008060008060008a11801561115f5750600089115b8015611171575060008863ffffffff16115b801561118c5750620f424063ffffffff168863ffffffff1611155b80156111985750898711155b151561120c576040517f08c379a000000000000000000000000000000000000000000000000000000000815260040180806020018281038252600f8152602001807f496e76616c696420696e707574732e000000000000000000000000000000000081525060200191505060405180910390fd5b600087141561121e57600095506112e6565b8987141561122e578895506112e6565b620f424063ffffffff168863ffffffff1614156112715761126a8a61125c898c611a9590919063ffffffff16565b611ad390919063ffffffff16565b95506112e6565b611284878b61185690919063ffffffff16565b92506112958a84620f42408b611afd565b80955081965050506112b0858a611a9590919063ffffffff16565b91508360ff16899060020a0290506112e3856112d5838561185690919063ffffffff16565b611ad390919063ffffffff16565b95505b5050505050949350505050565b60008054600181600116156101000203166002900480601f0160208091040260200160405190810160405280929190818152602001828054600181600116156101000203166002900480156113895780601f1061135e57610100808354040283529160200191611389565b820191906000526020600020905b81548152906001019060200180831161136c57829003601f168201915b505050505081565b6000608260008373ffffffffffffffffffffffffffffffffffffffff1673ffffffffffffffffffffffffffffffffffffffff168152602001908152602001600020549050919050565b60006114086113e7611705565b6113ef6114ad565b608160009054906101000a900463ffffffff1685611146565b9050919050565b60868054600181600116156101000203166002900480601f0160208091040260200160405190810160405280929190818152602001828054600181600116156101000203166002900480156114a55780601f1061147a576101008083540402835291602001916114a5565b820191906000526020600020905b81548152906001019060200180831161148857829003601f168201915b505050505081565b6000608554905090565b60008073ffffffffffffffffffffffffffffffffffffffff168373ffffffffffffffffffffffffffffffffffffffff16141515156114f457600080fd5b61158382608360003373ffffffffffffffffffffffffffffffffffffffff1673ffffffffffffffffffffffffffffffffffffffff16815260200190815260200160002060008673ffffffffffffffffffffffffffffffffffffffff1673ffffffffffffffffffffffffffffffffffffffff1681526020019081526020016000205461185690919063ffffffff16565b608360003373ffffffffffffffffffffffffffffffffffffffff1673ffffffffffffffffffffffffffffffffffffffff16815260200190815260200160002060008573ffffffffffffffffffffffffffffffffffffffff1673ffffffffffffffffffffffffffffffffffffffff168152602001908152602001600020819055508273ffffffffffffffffffffffffffffffffffffffff163373ffffffffffffffffffffffffffffffffffffffff167f8c5be1e5ebec7d5bd14f71427d1e84f3dd0314c0f7b2291e5b200ac8c7c3b925608360003373ffffffffffffffffffffffffffffffffffffffff1673ffffffffffffffffffffffffffffffffffffffff16815260200190815260200160002060008773ffffffffffffffffffffffffffffffffffffffff1673ffffffffffffffffffffffffffffffffffffffff168152602001908152602001600020546040518082815260200191505060405180910390a36001905092915050565b60006116fb338484611877565b6001905092915050565b600061170f610b3a565b905090565b6000608360008473ffffffffffffffffffffffffffffffffffffffff1673ffffffffffffffffffffffffffffffffffffffff16815260200190815260200160002060008373ffffffffffffffffffffffffffffffffffffffff1673ffffffffffffffffffffffffffffffffffffffff16815260200190815260200160002054905092915050565b60008082840190508381101515156117b257600080fd5b8091505092915050565b600080600083111515611837576040517f08c379a00000000000000000000000000000000000000000000000000000000081526004018080602001828103825260198152602001807f4465706f736974206d757374206265206e6f6e2d7a65726f2e0000000000000081525060200191505060405180910390fd5b61184083610ad8565b905061184c3382611df3565b6001915050919050565b60008083831115151561186857600080fd5b82840390508091505092915050565b608260008473ffffffffffffffffffffffffffffffffffffffff1673ffffffffffffffffffffffffffffffffffffffff1681526020019081526020016000205481111515156118c557600080fd5b600073ffffffffffffffffffffffffffffffffffffffff168273ffffffffffffffffffffffffffffffffffffffff161415151561190157600080fd5b61195381608260008673ffffffffffffffffffffffffffffffffffffffff1673ffffffffffffffffffffffffffffffffffffffff1681526020019081526020016000205461185690919063ffffffff16565b608260008573ffffffffffffffffffffffffffffffffffffffff1673ffffffffffffffffffffffffffffffffffffffff168152602001908152602001600020819055506119e881608260008573ffffffffffffffffffffffffffffffffffffffff1673ffffffffffffffffffffffffffffffffffffffff1681526020019081526020016000205461179b90919063ffffffff16565b608260008473ffffffffffffffffffffffffffffffffffffffff1673ffffffffffffffffffffffffffffffffffffffff168152602001908152602001600020819055508173ffffffffffffffffffffffffffffffffffffffff168373ffffffffffffffffffffffffffffffffffffffff167fddf252ad1be2c89b69c2b068fc378daa952ba7f163c4a11628f55a4df523b3ef836040518082815260200191505060405180910390a3505050565b6000806000841415611aaa5760009150611acc565b8284029050828482811515611abb57fe5b04141515611ac857600080fd5b8091505b5092915050565b600080600083111515611ae557600080fd5b8284811515611af057fe5b0490508091505092915050565b6000806000806000807002000000000000000000000000000000008a101515611b8e576040517f08c379a00000000000000000000000000000000000000000000000000000000081526004018080602001828103825260188152602001807f626173654e2065786365656473206d61782076616c75652e000000000000000081525060200191505060405180910390fd5b888a10151515611c06576040517f08c379a000000000000000000000000000000000000000000000000000000000815260040180806020018281038252601c8152602001807f4261736573203c203120617265206e6f7420737570706f727465642e0000000081525060200191505060405180910390fd5b886f800000000000000000000000000000008b02811515611c2357fe5b04925070015bf0a8b1457695355fb8ac404e7a79e3831015611c4f57611c4883611f33565b9350611c5b565b611c5883612502565b93505b8663ffffffff168863ffffffff168502811515611c7457fe5b049150700800000000000000000000000000000000821015611ca457611c998261263d565b607f95509550611ccc565b611cad82612bfd565b9050611cc681607f0360ff16839060020a900482612cbd565b81955095505b5050505094509492505050565b600080600083111515611d54576040517f08c379a00000000000000000000000000000000000000000000000000000000081526004018080602001828103825260188152602001807f416d6f756e74206d757374206265206e6f6e2d7a65726f2e000000000000000081525060200191505060405180910390fd5b82611d5e33611391565b10151515611dd4576040517f08c379a000000000000000000000000000000000000000000000000000000000815260040180806020018281038252601c8152602001807f496e73756666696369656e7420746f6b656e7320746f206275726e2e0000000081525060200191505060405180910390fd5b611ddd836113da565b9050611de933846130e1565b6001915050919050565b60008273ffffffffffffffffffffffffffffffffffffffff1614151515611e1957600080fd5b611e2e8160845461179b90919063ffffffff16565b608481905550611e8681608260008573ffffffffffffffffffffffffffffffffffffffff1673ffffffffffffffffffffffffffffffffffffffff1681526020019081526020016000205461179b90919063ffffffff16565b608260008473ffffffffffffffffffffffffffffffffffffffff1673ffffffffffffffffffffffffffffffffffffffff168152602001908152602001600020819055508173ffffffffffffffffffffffffffffffffffffffff16600073ffffffffffffffffffffffffffffffffffffffff167fddf252ad1be2c89b69c2b068fc378daa952ba7f163c4a11628f55a4df523b3ef836040518082815260200191505060405180910390a35050565b60008060008060008093506fd3094c70f034de4b96ff7d5b6f99fcd886101515611f9d576f40000000000000000000000000000000840193506fd3094c70f034de4b96ff7d5b6f99fcd86f800000000000000000000000000000008702811515611f9957fe5b0495505b6fa45af1e1f40c333b3de1db4dd55f29a786101515611ffc576f20000000000000000000000000000000840193506fa45af1e1f40c333b3de1db4dd55f29a76f800000000000000000000000000000008702811515611ff857fe5b0495505b6f910b022db7ae67ce76b441c27035c6a18610151561205b576f10000000000000000000000000000000840193506f910b022db7ae67ce76b441c27035c6a16f80000000000000000000000000000000870281151561205757fe5b0495505b6f88415abbe9a76bead8d00cf112e4d4a8861015156120ba576f08000000000000000000000000000000840193506f88415abbe9a76bead8d00cf112e4d4a86f8000000000000000000000000000000087028115156120b657fe5b0495505b6f84102b00893f64c705e841d5d4064bd386101515612119576f04000000000000000000000000000000840193506f84102b00893f64c705e841d5d4064bd36f80000000000000000000000000000000870281151561211557fe5b0495505b6f8204055aaef1c8bd5c3259f4822735a286101515612178576f02000000000000000000000000000000840193506f8204055aaef1c8bd5c3259f4822735a26f80000000000000000000000000000000870281151561217457fe5b0495505b6f810100ab00222d861931c15e39b44e99861015156121d7576f01000000000000000000000000000000840193506f810100ab00222d861931c15e39b44e996f8000000000000000000000000000000087028115156121d357fe5b0495505b6f808040155aabbbe9451521693554f73386101515612235576e800000000000000000000000000000840193506f808040155aabbbe9451521693554f7336f80000000000000000000000000000000870281151561223157fe5b0495505b6f80000000000000000000000000000000860392508291506f8000000000000000000000000000000083840281151561226a57fe5b0490507001000000000000000000000000000000008370010000000000000000000000000000000003830281151561229e57fe5b04840193506f800000000000000000000000000000008183028115156122c057fe5b049150700200000000000000000000000000000000836faaaaaaaaaaaaaaaaaaaaaaaaaaaaaaaa0383028115156122f357fe5b04840193506f8000000000000000000000000000000081830281151561231557fe5b049150700300000000000000000000000000000000836f9999999999999999999999999999999903830281151561234857fe5b04840193506f8000000000000000000000000000000081830281151561236a57fe5b049150700400000000000000000000000000000000836f9249249249249249249249249249249203830281151561239d57fe5b04840193506f800000000000000000000000000000008183028115156123bf57fe5b049150700500000000000000000000000000000000836f8e38e38e38e38e38e38e38e38e38e38e0383028115156123f257fe5b04840193506f8000000000000000000000000000000081830281151561241457fe5b049150700600000000000000000000000000000000836f8ba2e8ba2e8ba2e8ba2e8ba2e8ba2e8b03830281151561244757fe5b04840193506f8000000000000000000000000000000081830281151561246957fe5b049150700700000000000000000000000000000000836f89d89d89d89d89d89d89d89d89d89d8903830281151561249c57fe5b04840193506f800000000000000000000000000000008183028115156124be57fe5b049150700800000000000000000000000000000000836f888888888888888888888888888888880383028115156124f157fe5b048401935083945050505050919050565b6000806000806000809350859250700100000000000000000000000000000000831015156125765761254e6f800000000000000000000000000000008481151561254857fe5b0461326f565b91508160ff16839060020a900492506f800000000000000000000000000000008260ff160293505b6f8000000000000000000000000000000083111561260457607f90505b60008160ff161115612603576f800000000000000000000000000000008384028115156125bc57fe5b049250700100000000000000000000000000000000831015156125f7576001839060020a900492506001810360ff1660019060020a02840193505b80600190039050612593565b5b6f05b9de1d10bf4103d647b0955897ba806f03f80fe03f80fe03f80fe03f80fe03f8850281151561263157fe5b04945050505050919050565b600080600080600092506f100000000000000000000000000000008581151561266257fe5b0691508190506f8000000000000000000000000000000082820281151561268557fe5b0490506710e1b3be415a00008102830192506f800000000000000000000000000000008282028115156126b457fe5b0490506705a0913f6b1e00008102830192506f800000000000000000000000000000008282028115156126e357fe5b049050670168244fdac780008102830192506f8000000000000000000000000000000082820281151561271257fe5b049050664807432bc180008102830192506f8000000000000000000000000000000082820281151561274057fe5b049050660c0135dca040008102830192506f8000000000000000000000000000000082820281151561276e57fe5b0490506601b707b1cdc0008102830192506f8000000000000000000000000000000082820281151561279c57fe5b0490506536e0f639b8008102830192506f800000000000000000000000000000008282028115156127c957fe5b049050650618fee9f8008102830192506f800000000000000000000000000000008282028115156127f657fe5b049050649c197dcc008102830192506f8000000000000000000000000000000082820281151561282257fe5b049050640e30dce4008102830192506f8000000000000000000000000000000082820281151561284e57fe5b04905064012ebd13008102830192506f8000000000000000000000000000000082820281151561287a57fe5b0490506317499f008102830192506f800000000000000000000000000000008282028115156128a557fe5b0490506301a9d4808102830192506f800000000000000000000000000000008282028115156128d057fe5b049050621c63808102830192506f800000000000000000000000000000008282028115156128fa57fe5b0490506201c6388102830192506f8000000000000000000000000000000082820281151561292457fe5b049050611ab88102830192506f8000000000000000000000000000000082820281151561294d57fe5b04905061017c8102830192506f8000000000000000000000000000000082820281151561297657fe5b04905060148102830192506f8000000000000000000000000000000082820281151561299e57fe5b04905060018102830192506f80000000000000000000000000000000826721c3677c82b40000858115156129ce57fe5b040101925060006f100000000000000000000000000000008616141515612a225770018ebef9eac820ae8682b9793ac6d1e7767001c3d6a24ed82218787d624d3e5eba95f98402811515612a1e57fe5b0492505b60006f200000000000000000000000000000008616141515612a71577001368b2fc6f9609fe7aceb46aa619baed470018ebef9eac820ae8682b9793ac6d1e7788402811515612a6d57fe5b0492505b60006f400000000000000000000000000000008616141515612abf576fbc5ab1b16779be3575bd8f0520a9f21f7001368b2fc6f9609fe7aceb46aa619baed58402811515612abb57fe5b0492505b60006f800000000000000000000000000000008616141515612b0c576f454aaa8efe072e7f6ddbab84b40a55c96fbc5ab1b16779be3575bd8f0520a9f21e8402811515612b0857fe5b0492505b60007001000000000000000000000000000000008616141515612b5a576f0960aadc109e7a3bf4578099615711ea6f454aaa8efe072e7f6ddbab84b40a55c58402811515612b5657fe5b0492505b60007002000000000000000000000000000000008616141515612ba7576e2bf84208204f5977f9a8cf01fdce3d6f0960aadc109e7a3bf4578099615711d78402811515612ba357fe5b0492505b60007004000000000000000000000000000000008616141515612bf2576d03c6ab775dd0b95b4cbee7e65d116e2bf84208204f5977f9a8cf01fdc3078402811515612bee57fe5b0492505b829350505050919050565b60008060008060209250607f91505b8160ff166001840160ff161015612c5e57600282840160ff16811515612c2e57fe5b0490508460018260ff16608081101515612c4457fe5b0154101515612c5557809250612c59565b8091505b612c0c565b8460018360ff16608081101515612c7157fe5b0154101515612c8257819350612cb5565b8460018460ff16608081101515612c9557fe5b0154101515612ca657829350612cb5565b60001515612cb057fe5b600093505b505050919050565b6000806000849150600090508360ff168583029060020a900491506f03442c4e6074a82f1797f72ac00000008202810190508360ff168583029060020a900491506f0116b96f757c380fb287fd0e400000008202810190508360ff168583029060020a900491506e45ae5bdd5f0e03eca1ff43900000008202810190508360ff168583029060020a900491506e0defabf91302cd95b9ffda500000008202810190508360ff168583029060020a900491506e02529ca9832b22439efff9b80000008202810190508360ff168583029060020a900491506d54f1cf12bd04e516b6da880000008202810190508360ff168583029060020a900491506d0a9e39e257a09ca2d6db510000008202810190508360ff168583029060020a900491506d012e066e7b839fa050c3090000008202810190508360ff168583029060020a900491506c1e33d7d926c329a1ad1a8000008202810190508360ff168583029060020a900491506c02bee513bdb4a6b19b5f8000008202810190508360ff168583029060020a900491506b3a9316fa79b88eccf2a000008202810190508360ff168583029060020a900491506b048177ebe1fa8123752000008202810190508360ff168583029060020a900491506a5263fe90242dcbacf000008202810190508360ff168583029060020a900491506a057e22099c030d941000008202810190508360ff168583029060020a900491506957e22099c030d94100008202810190508360ff168583029060020a9004915069052b6b545699763100008202810190508360ff168583029060020a90049150684985f67696bf7480008202810190508360ff168583029060020a900491506803dea12ea99e4980008202810190508360ff168583029060020a900491506731880f2214b6e0008202810190508360ff168583029060020a9004915067025bcff56eb360008202810190508360ff168583029060020a90049150661b722e10ab10008202810190508360ff168583029060020a900491506601317c700770008202810190508360ff168583029060020a90049150650cba84aafa008202810190508360ff168583029060020a900491506482573a0a008202810190508360ff168583029060020a900491506405035ad9008202810190508360ff168583029060020a90049150632f881b008202810190508360ff168583029060020a900491506301b293408202810190508360ff168583029060020a90049150620efc408202810190508360ff168583029060020a90049150617fe08202810190508360ff168583029060020a900491506104208202810190508360ff168583029060020a9004915060218202810190508360ff168583029060020a9004915060018202810190508360ff1660019060020a02856f0688589cc0e9505e2f2fee5580000000838115156130d457fe5b0401019250505092915050565b60008273ffffffffffffffffffffffffffffffffffffffff161415151561310757600080fd5b608260008373ffffffffffffffffffffffffffffffffffffffff1673ffffffffffffffffffffffffffffffffffffffff16815260200190815260200160002054811115151561315557600080fd5b61316a8160845461185690919063ffffffff16565b6084819055506131c281608260008573ffffffffffffffffffffffffffffffffffffffff1673ffffffffffffffffffffffffffffffffffffffff1681526020019081526020016000205461185690919063ffffffff16565b608260008473ffffffffffffffffffffffffffffffffffffffff1673ffffffffffffffffffffffffffffffffffffffff16815260200190815260200160002081905550600073ffffffffffffffffffffffffffffffffffffffff168273ffffffffffffffffffffffffffffffffffffffff167fddf252ad1be2c89b69c2b068fc378daa952ba7f163c4a11628f55a4df523b3ef836040518082815260200191505060405180910390a35050565b600080600080600092508491506101008210156132ab575b60018211156132a6576001829060020a90049150600183019250613287565b6132f6565b608090505b60008160ff1611156132f5578060ff1660019060020a02821015156132e2578060ff16829060020a9004915080831792505b60018160ff169060020a900490506132b0565b5b8293505050509190505600a165627a7a723058209696f99903de7756486ccb514c189f740a62af19a62267ffa225d17b484a58f30029",
  "source": "pragma solidity 0.4.25;\n\nimport \"./curves/BancorBondingCurve.sol\";\nimport \"./token/ERC20.sol\";\n\ncontract CareerCoin is BancorBondingCurve, ERC20 {\n    uint256 internal reserve;\n\n    string public symbol;\n    string public name;\n    uint8 internal decimals = 18;\n\n    address public talentAddress;\n    uint256 public talentFee;\n    \n    constructor(string _symbol, string _name, uint32 _reserveRatio, address _talentAddress, uint256 _talentFee) public BancorBondingCurve(_reserveRatio) {\n        symbol = _symbol;\n        name = _name;\n        talentAddress = _talentAddress;\n        talentFee = _talentFee;\n    }\n    \n    function mint() public payable {\n        uint purchaseAmount = msg.value;\n        reserve = reserve.add(purchaseAmount);\n        _continuousMint(purchaseAmount);\n    }\n\n    function burn(uint _amount) public {\n        uint refundAmount = _continuousBurn(_amount);\n        reserve = reserve.sub(refundAmount);\n        msg.sender.transfer(refundAmount);\n    }\n\n    function reserveBalance() public view returns (uint) {\n        return reserve;\n    }\n\n    function _continuousMint(uint _deposit) internal returns (uint) {\n        require(_deposit > 0, \"Deposit must be non-zero.\");\n\n        uint rewardAmount = getContinuousMintReward(_deposit);\n        _mint(msg.sender, rewardAmount);\n        return 1;\n    }\n\n    function _continuousBurn(uint _amount) internal returns (uint) {\n        require(_amount > 0, \"Amount must be non-zero.\");\n        require(balanceOf(msg.sender) >= _amount, \"Insufficient tokens to burn.\");\n\n        uint refundAmount = getContinuousBurnRefund(_amount);\n        _burn(msg.sender, _amount);\n        return 1;\n    } \n\n    function continuousSupply() public view returns (uint) {\n        return totalSupply();\n    }\n\n    function () public { revert(\"Cannot call fallback function.\"); }\n}\n",
  "sourcePath": "C:/laragon-route/TalentProtocol/test-developments/src/contracts/CareerCoin.sol",
  "compiler": {
    "name": "solc",
    "version": "0.4.25+commit.59dbf8f1.Emscripten.clang"
  },
  "schemaVersion": "3.4.1",
  "updatedAt": "2021-08-03T07:38:07.385Z",
  "networkType": "ethereum",
  "devdoc": {
    "methods": {
      "allowance(address,address)": {
        "details": "Function to check the amount of tokens that an owner allowed to a spender.",
        "params": {
          "owner": "address The address which owns the funds.",
          "spender": "address The address which will spend the funds."
        },
        "return": "A uint256 specifying the amount of tokens still available for the spender."
      },
      "approve(address,uint256)": {
        "details": "Approve the passed address to spend the specified amount of tokens on behalf of msg.sender. Beware that changing an allowance with this method brings the risk that someone may use both the old and the new allowance by unfortunate transaction ordering. One possible solution to mitigate this race condition is to first reduce the spender's allowance to 0 and set the desired value afterwards: https://github.com/ethereum/EIPs/issues/20#issuecomment-263524729",
        "params": {
          "spender": "The address which will spend the funds.",
          "value": "The amount of tokens to be spent."
        }
      },
      "balanceOf(address)": {
        "details": "Gets the balance of the specified address.",
        "params": {
          "owner": "The address to query the balance of."
        },
        "return": "An uint256 representing the amount owned by the passed address."
      },
      "calculatePurchaseReturn(uint256,uint256,uint32,uint256)": {
        "details": "given a continuous token supply, reserve token balance, reserve ratio, and a deposit amount (in the reserve token), calculates the return for a given conversion (in the continuous token)    * Formula: Return = _supply * ((1 + _depositAmount / _reserveBalance) ^ (_reserveRatio / MAX_RESERVE_RATIO) - 1)",
        "params": {
          "_depositAmount": "deposit amount, in reserve token",
          "_reserveBalance": "total reserve token balance",
          "_reserveRatio": "reserve ratio, represented in ppm, 1-1000000",
          "_supply": "continuous token total supply"
        },
        "return": "purchase return amount"
      },
      "calculateSaleReturn(uint256,uint256,uint32,uint256)": {
        "details": "given a continuous token supply, reserve token balance, reserve ratio and a sell amount (in the continuous token), calculates the return for a given conversion (in the reserve token)    * Formula: Return = _reserveBalance * (1 - (1 - _sellAmount / _supply) ^ (1 / (_reserveRatio / MAX_RESERVE_RATIO)))",
        "params": {
          "_reserveBalance": "total reserve token balance",
          "_reserveRatio": "constant reserve ratio, represented in ppm, 1-1000000",
          "_sellAmount": "sell amount, in the continuous token itself",
          "_supply": "continuous token total supply"
        },
        "return": "sale return amount"
      },
      "decreaseAllowance(address,uint256)": {
        "details": "Decrease the amount of tokens that an owner allowed to a spender. approve should be called when allowed_[_spender] == 0. To decrement allowed value is better to use this function to avoid 2 calls (and wait until the first transaction is mined) From MonolithDAO Token.sol",
        "params": {
          "spender": "The address which will spend the funds.",
          "subtractedValue": "The amount of tokens to decrease the allowance by."
        }
      },
      "increaseAllowance(address,uint256)": {
        "details": "Increase the amount of tokens that an owner allowed to a spender. approve should be called when allowed_[_spender] == 0. To increment allowed value is better to use this function to avoid 2 calls (and wait until the first transaction is mined) From MonolithDAO Token.sol",
        "params": {
          "addedValue": "The amount of tokens to increase the allowance by.",
          "spender": "The address which will spend the funds."
        }
      },
      "totalSupply()": {
        "details": "Total number of tokens in existence"
      },
      "transfer(address,uint256)": {
        "details": "Transfer token for a specified address",
        "params": {
          "to": "The address to transfer to.",
          "value": "The amount to be transferred."
        }
      },
      "transferFrom(address,address,uint256)": {
        "details": "Transfer tokens from one address to another",
        "params": {
          "from": "address The address which you want to send tokens from",
          "to": "address The address which you want to transfer to",
          "value": "uint256 the amount of tokens to be transferred"
        }
      }
    }
  },
  "userdoc": {
    "methods": {}
  }
}