{
  "contractName": "ERC20ContinuousToken",
  "abi": [
    {
      "constant": true,
      "inputs": [],
      "name": "name",
      "outputs": [
        {
          "name": "",
          "type": "string"
        }
      ],
      "payable": false,
      "stateMutability": "view",
      "type": "function"
    },
    {
      "constant": false,
      "inputs": [
        {
          "name": "spender",
          "type": "address"
        },
        {
          "name": "value",
          "type": "uint256"
        }
      ],
      "name": "approve",
      "outputs": [
        {
          "name": "",
          "type": "bool"
        }
      ],
      "payable": false,
      "stateMutability": "nonpayable",
      "type": "function"
    },
    {
      "constant": true,
      "inputs": [],
      "name": "reserveRatio",
      "outputs": [
        {
          "name": "",
          "type": "uint32"
        }
      ],
      "payable": false,
      "stateMutability": "view",
      "type": "function"
    },
    {
      "constant": true,
      "inputs": [
        {
          "name": "_reserveTokenAmount",
          "type": "uint256"
        }
      ],
      "name": "getContinuousMintReward",
      "outputs": [
        {
          "name": "",
          "type": "uint256"
        }
      ],
      "payable": false,
      "stateMutability": "view",
      "type": "function"
    },
    {
      "constant": true,
      "inputs": [],
      "name": "totalSupply",
      "outputs": [
        {
          "name": "",
          "type": "uint256"
        }
      ],
      "payable": false,
      "stateMutability": "view",
      "type": "function"
    },
    {
      "constant": false,
      "inputs": [
        {
          "name": "from",
          "type": "address"
        },
        {
          "name": "to",
          "type": "address"
        },
        {
          "name": "value",
          "type": "uint256"
        }
      ],
      "name": "transferFrom",
      "outputs": [
        {
          "name": "",
          "type": "bool"
        }
      ],
      "payable": false,
      "stateMutability": "nonpayable",
      "type": "function"
    },
    {
      "constant": true,
      "inputs": [
        {
          "name": "_supply",
          "type": "uint256"
        },
        {
          "name": "_reserveBalance",
          "type": "uint256"
        },
        {
          "name": "_reserveRatio",
          "type": "uint32"
        },
        {
          "name": "_depositAmount",
          "type": "uint256"
        }
      ],
      "name": "calculatePurchaseReturn",
      "outputs": [
        {
          "name": "",
          "type": "uint256"
        }
      ],
      "payable": false,
      "stateMutability": "view",
      "type": "function"
    },
    {
      "constant": true,
      "inputs": [],
      "name": "decimals",
      "outputs": [
        {
          "name": "",
          "type": "uint8"
        }
      ],
      "payable": false,
      "stateMutability": "view",
      "type": "function"
    },
    {
      "constant": false,
      "inputs": [
        {
          "name": "spender",
          "type": "address"
        },
        {
          "name": "addedValue",
          "type": "uint256"
        }
      ],
      "name": "increaseAllowance",
      "outputs": [
        {
          "name": "",
          "type": "bool"
        }
      ],
      "payable": false,
      "stateMutability": "nonpayable",
      "type": "function"
    },
    {
      "constant": true,
      "inputs": [
        {
          "name": "_supply",
          "type": "uint256"
        },
        {
          "name": "_reserveBalance",
          "type": "uint256"
        },
        {
          "name": "_reserveRatio",
          "type": "uint32"
        },
        {
          "name": "_sellAmount",
          "type": "uint256"
        }
      ],
      "name": "calculateSaleReturn",
      "outputs": [
        {
          "name": "",
          "type": "uint256"
        }
      ],
      "payable": false,
      "stateMutability": "view",
      "type": "function"
    },
    {
      "constant": true,
      "inputs": [],
      "name": "version",
      "outputs": [
        {
          "name": "",
          "type": "string"
        }
      ],
      "payable": false,
      "stateMutability": "view",
      "type": "function"
    },
    {
      "constant": true,
      "inputs": [
        {
          "name": "owner",
          "type": "address"
        }
      ],
      "name": "balanceOf",
      "outputs": [
        {
          "name": "",
          "type": "uint256"
        }
      ],
      "payable": false,
      "stateMutability": "view",
      "type": "function"
    },
    {
      "constant": false,
      "inputs": [],
      "name": "renounceOwnership",
      "outputs": [],
      "payable": false,
      "stateMutability": "nonpayable",
      "type": "function"
    },
    {
      "constant": true,
      "inputs": [
        {
          "name": "_continuousTokenAmount",
          "type": "uint256"
        }
      ],
      "name": "getContinuousBurnRefund",
      "outputs": [
        {
          "name": "",
          "type": "uint256"
        }
      ],
      "payable": false,
      "stateMutability": "view",
      "type": "function"
    },
    {
      "constant": true,
      "inputs": [],
      "name": "owner",
      "outputs": [
        {
          "name": "",
          "type": "address"
        }
      ],
      "payable": false,
      "stateMutability": "view",
      "type": "function"
    },
    {
      "constant": true,
      "inputs": [],
      "name": "isOwner",
      "outputs": [
        {
          "name": "",
          "type": "bool"
        }
      ],
      "payable": false,
      "stateMutability": "view",
      "type": "function"
    },
    {
      "constant": true,
      "inputs": [],
      "name": "symbol",
      "outputs": [
        {
          "name": "",
          "type": "string"
        }
      ],
      "payable": false,
      "stateMutability": "view",
      "type": "function"
    },
    {
      "constant": false,
      "inputs": [
        {
          "name": "spender",
          "type": "address"
        },
        {
          "name": "subtractedValue",
          "type": "uint256"
        }
      ],
      "name": "decreaseAllowance",
      "outputs": [
        {
          "name": "",
          "type": "bool"
        }
      ],
      "payable": false,
      "stateMutability": "nonpayable",
      "type": "function"
    },
    {
      "constant": false,
      "inputs": [
        {
          "name": "to",
          "type": "address"
        },
        {
          "name": "value",
          "type": "uint256"
        }
      ],
      "name": "transfer",
      "outputs": [
        {
          "name": "",
          "type": "bool"
        }
      ],
      "payable": false,
      "stateMutability": "nonpayable",
      "type": "function"
    },
    {
      "constant": true,
      "inputs": [],
      "name": "continuousSupply",
      "outputs": [
        {
          "name": "",
          "type": "uint256"
        }
      ],
      "payable": false,
      "stateMutability": "view",
      "type": "function"
    },
    {
      "constant": true,
      "inputs": [
        {
          "name": "owner",
          "type": "address"
        },
        {
          "name": "spender",
          "type": "address"
        }
      ],
      "name": "allowance",
      "outputs": [
        {
          "name": "",
          "type": "uint256"
        }
      ],
      "payable": false,
      "stateMutability": "view",
      "type": "function"
    },
    {
      "constant": false,
      "inputs": [
        {
          "name": "newOwner",
          "type": "address"
        }
      ],
      "name": "transferOwnership",
      "outputs": [],
      "payable": false,
      "stateMutability": "nonpayable",
      "type": "function"
    },
    {
      "constant": true,
      "inputs": [],
      "name": "reserveToken",
      "outputs": [
        {
          "name": "",
          "type": "address"
        }
      ],
      "payable": false,
      "stateMutability": "view",
      "type": "function"
    },
    {
      "inputs": [
        {
          "name": "_name",
          "type": "string"
        },
        {
          "name": "_symbol",
          "type": "string"
        },
        {
          "name": "_decimals",
          "type": "uint8"
        },
        {
          "name": "_initialSupply",
          "type": "uint256"
        },
        {
          "name": "_reserveRatio",
          "type": "uint32"
        },
        {
          "name": "_reserveTokenAddress",
          "type": "address"
        }
      ],
      "payable": false,
      "stateMutability": "nonpayable",
      "type": "constructor"
    },
    {
      "payable": false,
      "stateMutability": "nonpayable",
      "type": "fallback"
    },
    {
      "anonymous": false,
      "inputs": [
        {
          "indexed": false,
          "name": "sender",
          "type": "address"
        },
        {
          "indexed": false,
          "name": "amount",
          "type": "uint256"
        },
        {
          "indexed": false,
          "name": "deposit",
          "type": "uint256"
        }
      ],
      "name": "Minted",
      "type": "event"
    },
    {
      "anonymous": false,
      "inputs": [
        {
          "indexed": false,
          "name": "sender",
          "type": "address"
        },
        {
          "indexed": false,
          "name": "amount",
          "type": "uint256"
        },
        {
          "indexed": false,
          "name": "refund",
          "type": "uint256"
        }
      ],
      "name": "Burned",
      "type": "event"
    },
    {
      "anonymous": false,
      "inputs": [
        {
          "indexed": true,
          "name": "from",
          "type": "address"
        },
        {
          "indexed": true,
          "name": "to",
          "type": "address"
        },
        {
          "indexed": false,
          "name": "value",
          "type": "uint256"
        }
      ],
      "name": "Transfer",
      "type": "event"
    },
    {
      "anonymous": false,
      "inputs": [
        {
          "indexed": true,
          "name": "owner",
          "type": "address"
        },
        {
          "indexed": true,
          "name": "spender",
          "type": "address"
        },
        {
          "indexed": false,
          "name": "value",
          "type": "uint256"
        }
      ],
      "name": "Approval",
      "type": "event"
    },
    {
      "anonymous": false,
      "inputs": [
        {
          "indexed": true,
          "name": "previousOwner",
          "type": "address"
        },
        {
          "indexed": true,
          "name": "newOwner",
          "type": "address"
        }
      ],
      "name": "OwnershipTransferred",
      "type": "event"
    },
    {
      "constant": false,
      "inputs": [
        {
          "name": "_amount",
          "type": "uint256"
        },
        {
          "name": "_minReceived",
          "type": "uint256"
        }
      ],
      "name": "mint",
      "outputs": [],
      "payable": false,
      "stateMutability": "nonpayable",
      "type": "function"
    },
    {
      "constant": false,
      "inputs": [
        {
          "name": "_amount",
          "type": "uint256"
        },
        {
          "name": "_minReceived",
          "type": "uint256"
        }
      ],
      "name": "burn",
      "outputs": [],
      "payable": false,
      "stateMutability": "nonpayable",
      "type": "function"
    },
    {
      "constant": true,
      "inputs": [],
      "name": "reserveBalance",
      "outputs": [
        {
          "name": "",
          "type": "uint256"
        }
      ],
      "payable": false,
      "stateMutability": "view",
      "type": "function"
    }
  ],
  "bytecode": "0x60806040526040805190810160405280600381526020017f302e3300000000000000000000000000000000000000000000000000000000008152506007908051906020019062000051929190620012d0565b503480156200005f57600080fd5b5060405162004f4638038062004f46833981018060405281019080805182019291906020018051820192919060200180519060200190929190805190602001909291908051906020019092919080519060200190929190505050858585858580858585336000806101000a81548173ffffffffffffffffffffffffffffffffffffffff021916908373ffffffffffffffffffffffffffffffffffffffff1602179055506000809054906101000a900473ffffffffffffffffffffffffffffffffffffffff1673ffffffffffffffffffffffffffffffffffffffff16600073ffffffffffffffffffffffffffffffffffffffff167f8be0079c531659141344cd1fd0a4f28419497f9722a3daafe3b4186f6b6457e060405160405180910390a3826004908051906020019062000196929190620012d0565b508160059080519060200190620001af929190620012d0565b5080600660006101000a81548160ff021916908360ff160217905550505050701c35fedd14ffffffffffffffffffffffff60086020608081101515620001f157fe5b0181905550701b0ce43b323fffffffffffffffffffffff600860216080811015156200021957fe5b01819055507019f0028ec1ffffffffffffffffffffffff600860226080811015156200024157fe5b01819055507018ded91f0e7fffffffffffffffffffffff600860236080811015156200026957fe5b01819055507017d8ec7f0417ffffffffffffffffffffff600860246080811015156200029157fe5b01819055507016ddc6556cdbffffffffffffffffffffff60086025608081101515620002b957fe5b01819055507015ecf52776a1ffffffffffffffffffffff60086026608081101515620002e157fe5b01819055507015060c256cb2ffffffffffffffffffffff600860276080811015156200030957fe5b0181905550701428a2f98d72ffffffffffffffffffffff600860286080811015156200033157fe5b01819055507013545598e5c23fffffffffffffffffffff600860296080811015156200035957fe5b0181905550701288c4161ce1dfffffffffffffffffffff6008602a6080811015156200038157fe5b01819055507011c592761c666fffffffffffffffffffff6008602b608081101515620003a957fe5b018190555070110a688680a757ffffffffffffffffffff6008602c608081101515620003d157fe5b0181905550701056f1b5bedf77ffffffffffffffffffff6008602d608081101515620003f957fe5b0181905550700faadceceeff8bffffffffffffffffffff6008602e6080811015156200042157fe5b0181905550700f05dc6b27edadffffffffffffffffffff6008602f6080811015156200044957fe5b0181905550700e67a5a25da4107fffffffffffffffffff600860306080811015156200047157fe5b0181905550700dcff115b14eedffffffffffffffffffff600860316080811015156200049957fe5b0181905550700d3e7a392431239fffffffffffffffffff60086032608081101515620004c157fe5b0181905550700cb2ff529eb71e4fffffffffffffffffff60086033608081101515620004e957fe5b0181905550700c2d415c3db974afffffffffffffffffff600860346080811015156200051157fe5b0181905550700bad03e7d883f69bffffffffffffffffff600860356080811015156200053957fe5b0181905550700b320d03b2c343d5ffffffffffffffffff600860366080811015156200056157fe5b0181905550700abc25204e02828dffffffffffffffffff600860376080811015156200058957fe5b0181905550700a4b16f74ee4bb207fffffffffffffffff60086038608081101515620005b157fe5b01819055507009deaf736ac1f569ffffffffffffffffff60086039608081101515620005d957fe5b0181905550700976bd9952c7aa957fffffffffffffffff6008603a6080811015156200060157fe5b01819055507009131271922eaa606fffffffffffffffff6008603b6080811015156200062957fe5b01819055507008b380f3558668c46fffffffffffffffff6008603c6080811015156200065157fe5b0181905550700857ddf0117efa215bffffffffffffffff6008603d6080811015156200067957fe5b01819055507007ffffffffffffffffffffffffffffffff6008603e608081101515620006a157fe5b01819055507007abbf6f6abb9d087fffffffffffffffff6008603f608081101515620006c957fe5b018190555070075af62cbac95f7dfa7fffffffffffffff60086040608081101515620006f157fe5b018190555070070d7fb7452e187ac13fffffffffffffff600860416080811015156200071957fe5b01819055507006c3390ecc8af379295fffffffffffffff600860426080811015156200074157fe5b018190555070067c00a3b07ffc01fd6fffffffffffffff600860436080811015156200076957fe5b0181905550700637b647c39cbb9d3d27ffffffffffffff600860446080811015156200079157fe5b01819055507005f63b1fc104dbd39587ffffffffffffff60086045608081101515620007b957fe5b01819055507005b771955b36e12f7235ffffffffffffff60086046608081101515620007e157fe5b018190555070057b3d49dda84556d6f6ffffffffffffff600860476080811015156200080957fe5b018190555070054183095b2c8ececf30ffffffffffffff600860486080811015156200083157fe5b018190555070050a28be635ca2b888f77fffffffffffff600860496080811015156200085957fe5b01819055507004d5156639708c9db33c3fffffffffffff6008604a6080811015156200088157fe5b01819055507004a23105873875bd52dfdfffffffffffff6008604b608081101515620008a957fe5b0181905550700471649d87199aa990756fffffffffffff6008604c608081101515620008d157fe5b01819055507004429a21a029d4c1457cfbffffffffffff6008604d608081101515620008f957fe5b0181905550700415bc6d6fb7dd71af2cb3ffffffffffff6008604e6080811015156200092157fe5b01819055507003eab73b3bbfe282243ce1ffffffffffff6008604f6080811015156200094957fe5b01819055507003c1771ac9fb6b4c18e229ffffffffffff600860506080811015156200097157fe5b0181905550700399e96897690418f785257fffffffffff600860516080811015156200099957fe5b0181905550700373fc456c53bb779bf0ea9fffffffffff60086052608081101515620009c157fe5b018190555070034f9e8e490c48e67e6ab8bfffffffffff60086053608081101515620009e957fe5b018190555070032cbfd4a7adc790560b3337ffffffffff6008605460808110151562000a1157fe5b018190555070030b50570f6e5d2acca94613ffffffffff6008605560808110151562000a3957fe5b01819055507002eb40f9f620fda6b56c2861ffffffffff6008605660808110151562000a6157fe5b01819055507002cc8340ecb0d0f520a6af58ffffffffff6008605760808110151562000a8957fe5b01819055507002af09481380a0a35cf1ba02ffffffffff6008605860808110151562000ab157fe5b0181905550700292c5bdd3b92ec810287b1b3fffffffff6008605960808110151562000ad957fe5b0181905550700277abdcdab07d5a77ac6d6b9fffffffff6008605a60808110151562000b0157fe5b018190555070025daf6654b1eaa55fd64df5efffffffff6008605b60808110151562000b2957fe5b0181905550700244c49c648baa98192dce88b7ffffffff6008605c60808110151562000b5157fe5b018190555070022ce03cd5619a311b2471268bffffffff6008605d60808110151562000b7957fe5b0181905550700215f77c045fbe885654a44a0fffffffff6008605e60808110151562000ba157fe5b01819055507001ffffffffffffffffffffffffffffffff6008605f60808110151562000bc957fe5b01819055507001eaefdbdaaee7421fc4d3ede5ffffffff6008606060808110151562000bf157fe5b01819055507001d6bd8b2eb257df7e8ca57b09bfffffff6008606160808110151562000c1957fe5b01819055507001c35fedd14b861eb0443f7f133fffffff6008606260808110151562000c4157fe5b01819055507001b0ce43b322bcde4a56e8ada5afffffff6008606360808110151562000c6957fe5b018190555070019f0028ec1fff007f5a195a39dfffffff6008606460808110151562000c9157fe5b018190555070018ded91f0e72ee74f49b15ba527ffffff6008606560808110151562000cb957fe5b018190555070017d8ec7f04136f4e5615fd41a63ffffff6008606660808110151562000ce157fe5b018190555070016ddc6556cdb84bdc8d12d22e6fffffff6008606760808110151562000d0957fe5b018190555070015ecf52776a1155b5bd8395814f7fffff6008606860808110151562000d3157fe5b018190555070015060c256cb23b3b3cc3754cf40ffffff6008606960808110151562000d5957fe5b01819055507001428a2f98d728ae223ddab715be3fffff6008606a60808110151562000d8157fe5b018190555070013545598e5c23276ccf0ede68034fffff6008606b60808110151562000da957fe5b01819055507001288c4161ce1d6f54b7f61081194fffff6008606c60808110151562000dd157fe5b018190555070011c592761c666aa641d5a01a40f17ffff6008606d60808110151562000df957fe5b0181905550700110a688680a7530515f3e6e6cfdcdffff6008606e60808110151562000e2157fe5b01819055507001056f1b5bedf75c6bcb2ce8aed428ffff6008606f60808110151562000e4957fe5b01819055506ffaadceceeff8a0890f3875f008277fff6008607060808110151562000e7057fe5b01819055506ff05dc6b27edad306388a600f6ba0bfff6008607160808110151562000e9757fe5b01819055506fe67a5a25da41063de1495d5b18cdbfff6008607260808110151562000ebe57fe5b01819055506fdcff115b14eedde6fc3aa5353f2e4fff6008607360808110151562000ee557fe5b01819055506fd3e7a3924312399f9aae2e0f868f8fff6008607460808110151562000f0c57fe5b01819055506fcb2ff529eb71e41582cccd5a1ee26fff6008607560808110151562000f3357fe5b01819055506fc2d415c3db974ab32a51840c0b67edff6008607660808110151562000f5a57fe5b01819055506fbad03e7d883f69ad5b0a186184e06bff6008607760808110151562000f8157fe5b01819055506fb320d03b2c343d4829abd6075f0cc5ff6008607860808110151562000fa857fe5b01819055506fabc25204e02828d73c6e80bcdb1a95bf6008607960808110151562000fcf57fe5b01819055506fa4b16f74ee4bb2040a1ec6c15fbbf2df6008607a60808110151562000ff657fe5b01819055506f9deaf736ac1f569deb1b5ae3f36c130f6008607b6080811015156200101d57fe5b01819055506f976bd9952c7aa957f5937d790ef650376008607c6080811015156200104457fe5b01819055506f9131271922eaa6064b73a22d0bd4f2bf6008607d6080811015156200106b57fe5b01819055506f8b380f3558668c46c91c49a2f8e967b96008607e6080811015156200109257fe5b01819055506f857ddf0117efa215952912839f6473e66008607f608081101515620010b957fe5b018190555080608860006101000a81548163ffffffff021916908363ffffffff16021790555050620010fb33836200114d640100000000026401000000009004565b505050505080608860046101000a81548173ffffffffffffffffffffffffffffffffffffffff021916908373ffffffffffffffffffffffffffffffffffffffff1602179055505050505050506200137f565b60008273ffffffffffffffffffffffffffffffffffffffff16141515156200117457600080fd5b6200119981600354620012ae64010000000002620021ea179091906401000000009004565b6003819055506200120181600160008573ffffffffffffffffffffffffffffffffffffffff1673ffffffffffffffffffffffffffffffffffffffff16815260200190815260200160002054620012ae64010000000002620021ea179091906401000000009004565b600160008473ffffffffffffffffffffffffffffffffffffffff1673ffffffffffffffffffffffffffffffffffffffff168152602001908152602001600020819055508173ffffffffffffffffffffffffffffffffffffffff16600073ffffffffffffffffffffffffffffffffffffffff167fddf252ad1be2c89b69c2b068fc378daa952ba7f163c4a11628f55a4df523b3ef836040518082815260200191505060405180910390a35050565b6000808284019050838110151515620012c657600080fd5b8091505092915050565b828054600181600116156101000203166002900490600052602060002090601f016020900481019282601f106200131357805160ff191683800117855562001344565b8280016001018555821562001344579182015b828111156200134357825182559160200191906001019062001326565b5b50905062001353919062001357565b5090565b6200137c91905b80821115620013785760008160009055506001016200135e565b5090565b90565b613bb7806200138f6000396000f300608060405260043610610154576000357c0100000000000000000000000000000000000000000000000000000000900463ffffffff16806306fdde03146101cf578063095ea7b31461025f5780630c7d5cd8146102c45780630d8f9f7f146102fb57806318160ddd1461033c5780631b2ef1ca1461036757806323b872dd1461039e57806329a00e7c14610423578063313ce5671461048857806339509351146104b957806349f9b0f71461051e57806354fd4d501461058357806370a0823114610613578063715018a61461066a5780637cbed3e0146106815780638da5cb5b146106c25780638f32d59b1461071957806395d89b4114610748578063a10954fe146107d8578063a457c2d714610803578063a9059cbb14610868578063b390c0ab146108cd578063da12457a14610904578063dd62ed3e1461092f578063f2fde38b146109a6578063f4325d67146109e9575b34801561016057600080fd5b506040517f08c379a000000000000000000000000000000000000000000000000000000000815260040180806020018281038252601e8152602001807f43616e6e6f742063616c6c2066616c6c6261636b2066756e6374696f6e2e000081525060200191505060405180910390fd5b3480156101db57600080fd5b506101e4610a40565b6040518080602001828103825283818151815260200191508051906020019080838360005b83811015610224578082015181840152602081019050610209565b50505050905090810190601f1680156102515780820380516001836020036101000a031916815260200191505b509250505060405180910390f35b34801561026b57600080fd5b506102aa600480360381019080803573ffffffffffffffffffffffffffffffffffffffff16906020019092919080359060200190929190505050610ae2565b604051808215151515815260200191505060405180910390f35b3480156102d057600080fd5b506102d9610c0f565b604051808263ffffffff1663ffffffff16815260200191505060405180910390f35b34801561030757600080fd5b5061032660048036038101908080359060200190929190505050610c25565b6040518082815260200191505060405180910390f35b34801561034857600080fd5b50610351610c5a565b6040518082815260200191505060405180910390f35b34801561037357600080fd5b5061039c6004803603810190808035906020019092919080359060200190929190505050610c64565b005b3480156103aa57600080fd5b50610409600480360381019080803573ffffffffffffffffffffffffffffffffffffffff169060200190929190803573ffffffffffffffffffffffffffffffffffffffff16906020019092919080359060200190929190505050610e41565b604051808215151515815260200191505060405180910390f35b34801561042f57600080fd5b506104726004803603810190808035906020019092919080359060200190929190803563ffffffff16906020019092919080359060200190929190505050610ff3565b6040518082815260200191505060405180910390f35b34801561049457600080fd5b5061049d61116d565b604051808260ff1660ff16815260200191505060405180910390f35b3480156104c557600080fd5b50610504600480360381019080803573ffffffffffffffffffffffffffffffffffffffff16906020019092919080359060200190929190505050611184565b604051808215151515815260200191505060405180910390f35b34801561052a57600080fd5b5061056d6004803603810190808035906020019092919080359060200190929190803563ffffffff169060200190929190803590602001909291905050506113bb565b6040518082815260200191505060405180910390f35b34801561058f57600080fd5b50610598611568565b6040518080602001828103825283818151815260200191508051906020019080838360005b838110156105d85780820151818401526020810190506105bd565b50505050905090810190601f1680156106055780820380516001836020036101000a031916815260200191505b509250505060405180910390f35b34801561061f57600080fd5b50610654600480360381019080803573ffffffffffffffffffffffffffffffffffffffff169060200190929190505050611606565b6040518082815260200191505060405180910390f35b34801561067657600080fd5b5061067f61164f565b005b34801561068d57600080fd5b506106ac60048036038101908080359060200190929190505050611721565b6040518082815260200191505060405180910390f35b3480156106ce57600080fd5b506106d7611756565b604051808273ffffffffffffffffffffffffffffffffffffffff1673ffffffffffffffffffffffffffffffffffffffff16815260200191505060405180910390f35b34801561072557600080fd5b5061072e61177f565b604051808215151515815260200191505060405180910390f35b34801561075457600080fd5b5061075d6117d6565b6040518080602001828103825283818151815260200191508051906020019080838360005b8381101561079d578082015181840152602081019050610782565b50505050905090810190601f1680156107ca5780820380516001836020036101000a031916815260200191505b509250505060405180910390f35b3480156107e457600080fd5b506107ed611878565b6040518082815260200191505060405180910390f35b34801561080f57600080fd5b5061084e600480360381019080803573ffffffffffffffffffffffffffffffffffffffff16906020019092919080359060200190929190505050611977565b604051808215151515815260200191505060405180910390f35b34801561087457600080fd5b506108b3600480360381019080803573ffffffffffffffffffffffffffffffffffffffff16906020019092919080359060200190929190505050611bae565b604051808215151515815260200191505060405180910390f35b3480156108d957600080fd5b506109026004803603810190808035906020019092919080359060200190929190505050611bc5565b005b34801561091057600080fd5b50610919611d4c565b6040518082815260200191505060405180910390f35b34801561093b57600080fd5b50610990600480360381019080803573ffffffffffffffffffffffffffffffffffffffff169060200190929190803573ffffffffffffffffffffffffffffffffffffffff169060200190929190505050611d5b565b6040518082815260200191505060405180910390f35b3480156109b257600080fd5b506109e7600480360381019080803573ffffffffffffffffffffffffffffffffffffffff169060200190929190505050611de2565b005b3480156109f557600080fd5b506109fe611e01565b604051808273ffffffffffffffffffffffffffffffffffffffff1673ffffffffffffffffffffffffffffffffffffffff16815260200191505060405180910390f35b606060048054600181600116156101000203166002900480601f016020809104026020016040519081016040528092919081815260200182805460018160011615610100020316600290048015610ad85780601f10610aad57610100808354040283529160200191610ad8565b820191906000526020600020905b815481529060010190602001808311610abb57829003601f168201915b5050505050905090565b60008073ffffffffffffffffffffffffffffffffffffffff168373ffffffffffffffffffffffffffffffffffffffff1614151515610b1f57600080fd5b81600260003373ffffffffffffffffffffffffffffffffffffffff1673ffffffffffffffffffffffffffffffffffffffff16815260200190815260200160002060008573ffffffffffffffffffffffffffffffffffffffff1673ffffffffffffffffffffffffffffffffffffffff168152602001908152602001600020819055508273ffffffffffffffffffffffffffffffffffffffff163373ffffffffffffffffffffffffffffffffffffffff167f8c5be1e5ebec7d5bd14f71427d1e84f3dd0314c0f7b2291e5b200ac8c7c3b925846040518082815260200191505060405180910390a36001905092915050565b608860009054906101000a900463ffffffff1681565b6000610c53610c32611d4c565b610c3a611878565b608860009054906101000a900463ffffffff1685610ff3565b9050919050565b6000600354905090565b610c6e8282611e27565b50608860049054906101000a900473ffffffffffffffffffffffffffffffffffffffff1673ffffffffffffffffffffffffffffffffffffffff166323b872dd3330856040518463ffffffff167c0100000000000000000000000000000000000000000000000000000000028152600401808473ffffffffffffffffffffffffffffffffffffffff1673ffffffffffffffffffffffffffffffffffffffff1681526020018373ffffffffffffffffffffffffffffffffffffffff1673ffffffffffffffffffffffffffffffffffffffff1681526020018281526020019350505050602060405180830381600087803b158015610d6857600080fd5b505af1158015610d7c573d6000803e3d6000fd5b505050506040513d6020811015610d9257600080fd5b81019080805190602001909291905050501515610e3d576040517f08c379a00000000000000000000000000000000000000000000000000000000081526004018080602001828103825260218152602001807f6d696e7428292045524332302e7472616e7366657246726f6d206661696c656481526020017f2e0000000000000000000000000000000000000000000000000000000000000081525060400191505060405180910390fd5b5050565b6000600260008573ffffffffffffffffffffffffffffffffffffffff1673ffffffffffffffffffffffffffffffffffffffff16815260200190815260200160002060003373ffffffffffffffffffffffffffffffffffffffff1673ffffffffffffffffffffffffffffffffffffffff168152602001908152602001600020548211151515610ece57600080fd5b610f5d82600260008773ffffffffffffffffffffffffffffffffffffffff1673ffffffffffffffffffffffffffffffffffffffff16815260200190815260200160002060003373ffffffffffffffffffffffffffffffffffffffff1673ffffffffffffffffffffffffffffffffffffffff16815260200190815260200160002054611f4390919063ffffffff16565b600260008673ffffffffffffffffffffffffffffffffffffffff1673ffffffffffffffffffffffffffffffffffffffff16815260200190815260200160002060003373ffffffffffffffffffffffffffffffffffffffff1673ffffffffffffffffffffffffffffffffffffffff16815260200190815260200160002081905550610fe8848484611f64565b600190509392505050565b6000806000806000808911801561100a5750600088115b801561101c575060008763ffffffff16115b80156110375750620f424063ffffffff168763ffffffff1611155b15156110ab576040517f08c379a000000000000000000000000000000000000000000000000000000000815260040180806020018281038252600f8152602001807f496e76616c696420696e707574732e000000000000000000000000000000000081525060200191505060405180910390fd5b60008614156110bd5760009450611161565b620f424063ffffffff168763ffffffff161415611100576110f9886110eb888c61218290919063ffffffff16565b6121c090919063ffffffff16565b9450611161565b61111388876121ea90919063ffffffff16565b9150611124828989620f424061220b565b80945081955050508260ff16611143858b61218290919063ffffffff16565b9060020a9004905061115e8982611f4390919063ffffffff16565b94505b50505050949350505050565b6000600660009054906101000a900460ff16905090565b60008073ffffffffffffffffffffffffffffffffffffffff168373ffffffffffffffffffffffffffffffffffffffff16141515156111c157600080fd5b61125082600260003373ffffffffffffffffffffffffffffffffffffffff1673ffffffffffffffffffffffffffffffffffffffff16815260200190815260200160002060008673ffffffffffffffffffffffffffffffffffffffff1673ffffffffffffffffffffffffffffffffffffffff168152602001908152602001600020546121ea90919063ffffffff16565b600260003373ffffffffffffffffffffffffffffffffffffffff1673ffffffffffffffffffffffffffffffffffffffff16815260200190815260200160002060008573ffffffffffffffffffffffffffffffffffffffff1673ffffffffffffffffffffffffffffffffffffffff168152602001908152602001600020819055508273ffffffffffffffffffffffffffffffffffffffff163373ffffffffffffffffffffffffffffffffffffffff167f8c5be1e5ebec7d5bd14f71427d1e84f3dd0314c0f7b2291e5b200ac8c7c3b925600260003373ffffffffffffffffffffffffffffffffffffffff1673ffffffffffffffffffffffffffffffffffffffff16815260200190815260200160002060008773ffffffffffffffffffffffffffffffffffffffff1673ffffffffffffffffffffffffffffffffffffffff168152602001908152602001600020546040518082815260200191505060405180910390a36001905092915050565b60008060008060008060008a1180156113d45750600089115b80156113e6575060008863ffffffff16115b80156114015750620f424063ffffffff168863ffffffff1611155b801561140d5750898711155b1515611481576040517f08c379a000000000000000000000000000000000000000000000000000000000815260040180806020018281038252600f8152602001807f496e76616c696420696e707574732e000000000000000000000000000000000081525060200191505060405180910390fd5b6000871415611493576000955061155b565b898714156114a35788955061155b565b620f424063ffffffff168863ffffffff1614156114e6576114df8a6114d1898c61218290919063ffffffff16565b6121c090919063ffffffff16565b955061155b565b6114f9878b611f4390919063ffffffff16565b925061150a8a84620f42408b61220b565b8095508196505050611525858a61218290919063ffffffff16565b91508360ff16899060020a0290506115588561154a8385611f4390919063ffffffff16565b6121c090919063ffffffff16565b95505b5050505050949350505050565b60078054600181600116156101000203166002900480601f0160208091040260200160405190810160405280929190818152602001828054600181600116156101000203166002900480156115fe5780601f106115d3576101008083540402835291602001916115fe565b820191906000526020600020905b8154815290600101906020018083116115e157829003601f168201915b505050505081565b6000600160008373ffffffffffffffffffffffffffffffffffffffff1673ffffffffffffffffffffffffffffffffffffffff168152602001908152602001600020549050919050565b61165761177f565b151561166257600080fd5b600073ffffffffffffffffffffffffffffffffffffffff166000809054906101000a900473ffffffffffffffffffffffffffffffffffffffff1673ffffffffffffffffffffffffffffffffffffffff167f8be0079c531659141344cd1fd0a4f28419497f9722a3daafe3b4186f6b6457e060405160405180910390a360008060006101000a81548173ffffffffffffffffffffffffffffffffffffffff021916908373ffffffffffffffffffffffffffffffffffffffff160217905550565b600061174f61172e611d4c565b611736611878565b608860009054906101000a900463ffffffff16856113bb565b9050919050565b60008060009054906101000a900473ffffffffffffffffffffffffffffffffffffffff16905090565b60008060009054906101000a900473ffffffffffffffffffffffffffffffffffffffff1673ffffffffffffffffffffffffffffffffffffffff163373ffffffffffffffffffffffffffffffffffffffff1614905090565b606060058054600181600116156101000203166002900480601f01602080910402602001604051908101604052809291908181526020018280546001816001161561010002031660029004801561186e5780601f106118435761010080835404028352916020019161186e565b820191906000526020600020905b81548152906001019060200180831161185157829003601f168201915b5050505050905090565b6000608860049054906101000a900473ffffffffffffffffffffffffffffffffffffffff1673ffffffffffffffffffffffffffffffffffffffff166370a08231306040518263ffffffff167c0100000000000000000000000000000000000000000000000000000000028152600401808273ffffffffffffffffffffffffffffffffffffffff1673ffffffffffffffffffffffffffffffffffffffff168152602001915050602060405180830381600087803b15801561193757600080fd5b505af115801561194b573d6000803e3d6000fd5b505050506040513d602081101561196157600080fd5b8101908080519060200190929190505050905090565b60008073ffffffffffffffffffffffffffffffffffffffff168373ffffffffffffffffffffffffffffffffffffffff16141515156119b457600080fd5b611a4382600260003373ffffffffffffffffffffffffffffffffffffffff1673ffffffffffffffffffffffffffffffffffffffff16815260200190815260200160002060008673ffffffffffffffffffffffffffffffffffffffff1673ffffffffffffffffffffffffffffffffffffffff16815260200190815260200160002054611f4390919063ffffffff16565b600260003373ffffffffffffffffffffffffffffffffffffffff1673ffffffffffffffffffffffffffffffffffffffff16815260200190815260200160002060008573ffffffffffffffffffffffffffffffffffffffff1673ffffffffffffffffffffffffffffffffffffffff168152602001908152602001600020819055508273ffffffffffffffffffffffffffffffffffffffff163373ffffffffffffffffffffffffffffffffffffffff167f8c5be1e5ebec7d5bd14f71427d1e84f3dd0314c0f7b2291e5b200ac8c7c3b925600260003373ffffffffffffffffffffffffffffffffffffffff1673ffffffffffffffffffffffffffffffffffffffff16815260200190815260200160002060008773ffffffffffffffffffffffffffffffffffffffff1673ffffffffffffffffffffffffffffffffffffffff168152602001908152602001600020546040518082815260200191505060405180910390a36001905092915050565b6000611bbb338484611f64565b6001905092915050565b6000611bd183836123e7565b9050608860049054906101000a900473ffffffffffffffffffffffffffffffffffffffff1673ffffffffffffffffffffffffffffffffffffffff1663a9059cbb33836040518363ffffffff167c0100000000000000000000000000000000000000000000000000000000028152600401808373ffffffffffffffffffffffffffffffffffffffff1673ffffffffffffffffffffffffffffffffffffffff16815260200182815260200192505050602060405180830381600087803b158015611c9857600080fd5b505af1158015611cac573d6000803e3d6000fd5b505050506040513d6020811015611cc257600080fd5b81019080805190602001909291905050501515611d47576040517f08c379a000000000000000000000000000000000000000000000000000000000815260040180806020018281038252601d8152602001807f6275726e28292045524332302e7472616e73666572206661696c65642e00000081525060200191505060405180910390fd5b505050565b6000611d56610c5a565b905090565b6000600260008473ffffffffffffffffffffffffffffffffffffffff1673ffffffffffffffffffffffffffffffffffffffff16815260200190815260200160002060008373ffffffffffffffffffffffffffffffffffffffff1673ffffffffffffffffffffffffffffffffffffffff16815260200190815260200160002054905092915050565b611dea61177f565b1515611df557600080fd5b611dfe81612583565b50565b608860049054906101000a900473ffffffffffffffffffffffffffffffffffffffff1681565b600080600084111515611ea2576040517f08c379a00000000000000000000000000000000000000000000000000000000081526004018080602001828103825260198152602001807f4465706f736974206d757374206265206e6f6e2d7a65726f2e0000000000000081525060200191505060405180910390fd5b611eab84610c25565b9050828110151515611ebc57600080fd5b611ec6338261267d565b7f25b428dfde728ccfaddad7e29e4ac23c24ed7fd1a6e3e3f91894a9a073f5dfff338286604051808473ffffffffffffffffffffffffffffffffffffffff1673ffffffffffffffffffffffffffffffffffffffff168152602001838152602001828152602001935050505060405180910390a18091505092915050565b600080838311151515611f5557600080fd5b82840390508091505092915050565b600160008473ffffffffffffffffffffffffffffffffffffffff1673ffffffffffffffffffffffffffffffffffffffff168152602001908152602001600020548111151515611fb257600080fd5b600073ffffffffffffffffffffffffffffffffffffffff168273ffffffffffffffffffffffffffffffffffffffff1614151515611fee57600080fd5b61204081600160008673ffffffffffffffffffffffffffffffffffffffff1673ffffffffffffffffffffffffffffffffffffffff16815260200190815260200160002054611f4390919063ffffffff16565b600160008573ffffffffffffffffffffffffffffffffffffffff1673ffffffffffffffffffffffffffffffffffffffff168152602001908152602001600020819055506120d581600160008573ffffffffffffffffffffffffffffffffffffffff1673ffffffffffffffffffffffffffffffffffffffff168152602001908152602001600020546121ea90919063ffffffff16565b600160008473ffffffffffffffffffffffffffffffffffffffff1673ffffffffffffffffffffffffffffffffffffffff168152602001908152602001600020819055508173ffffffffffffffffffffffffffffffffffffffff168373ffffffffffffffffffffffffffffffffffffffff167fddf252ad1be2c89b69c2b068fc378daa952ba7f163c4a11628f55a4df523b3ef836040518082815260200191505060405180910390a3505050565b600080600084141561219757600091506121b9565b82840290508284828115156121a857fe5b041415156121b557600080fd5b8091505b5092915050565b6000806000831115156121d257600080fd5b82848115156121dd57fe5b0490508091505092915050565b600080828401905083811015151561220157600080fd5b8091505092915050565b6000806000806000807002000000000000000000000000000000008a10151561229c576040517f08c379a00000000000000000000000000000000000000000000000000000000081526004018080602001828103825260188152602001807f626173654e2065786365656473206d61782076616c75652e000000000000000081525060200191505060405180910390fd5b888a10151515612314576040517f08c379a000000000000000000000000000000000000000000000000000000000815260040180806020018281038252601c8152602001807f4261736573203c203120617265206e6f7420737570706f727465642e0000000081525060200191505060405180910390fd5b886f800000000000000000000000000000008b0281151561233157fe5b04925070015bf0a8b1457695355fb8ac404e7a79e383101561235d57612356836127bd565b9350612369565b61236683612d8c565b93505b8663ffffffff168863ffffffff16850281151561238257fe5b0491507008000000000000000000000000000000008210156123b2576123a782612ec7565b607f955095506123da565b6123bb82613487565b90506123d481607f0360ff16839060020a900482613547565b81955095505b5050505094509492505050565b600080600084111515612462576040517f08c379a00000000000000000000000000000000000000000000000000000000081526004018080602001828103825260188152602001807f416d6f756e74206d757374206265206e6f6e2d7a65726f2e000000000000000081525060200191505060405180910390fd5b8361246c33611606565b101515156124e2576040517f08c379a000000000000000000000000000000000000000000000000000000000815260040180806020018281038252601c8152602001807f496e73756666696369656e7420746f6b656e7320746f206275726e2e0000000081525060200191505060405180910390fd5b6124eb84611721565b90508281101515156124fc57600080fd5b612506338561396b565b7f23ff0e75edf108e3d0392d92e13e8c8a868ef19001bd49f9e94876dc46dff87f338583604051808473ffffffffffffffffffffffffffffffffffffffff1673ffffffffffffffffffffffffffffffffffffffff168152602001838152602001828152602001935050505060405180910390a18091505092915050565b600073ffffffffffffffffffffffffffffffffffffffff168173ffffffffffffffffffffffffffffffffffffffff16141515156125bf57600080fd5b8073ffffffffffffffffffffffffffffffffffffffff166000809054906101000a900473ffffffffffffffffffffffffffffffffffffffff1673ffffffffffffffffffffffffffffffffffffffff167f8be0079c531659141344cd1fd0a4f28419497f9722a3daafe3b4186f6b6457e060405160405180910390a3806000806101000a81548173ffffffffffffffffffffffffffffffffffffffff021916908373ffffffffffffffffffffffffffffffffffffffff16021790555050565b60008273ffffffffffffffffffffffffffffffffffffffff16141515156126a357600080fd5b6126b8816003546121ea90919063ffffffff16565b60038190555061271081600160008573ffffffffffffffffffffffffffffffffffffffff1673ffffffffffffffffffffffffffffffffffffffff168152602001908152602001600020546121ea90919063ffffffff16565b600160008473ffffffffffffffffffffffffffffffffffffffff1673ffffffffffffffffffffffffffffffffffffffff168152602001908152602001600020819055508173ffffffffffffffffffffffffffffffffffffffff16600073ffffffffffffffffffffffffffffffffffffffff167fddf252ad1be2c89b69c2b068fc378daa952ba7f163c4a11628f55a4df523b3ef836040518082815260200191505060405180910390a35050565b60008060008060008093506fd3094c70f034de4b96ff7d5b6f99fcd886101515612827576f40000000000000000000000000000000840193506fd3094c70f034de4b96ff7d5b6f99fcd86f80000000000000000000000000000000870281151561282357fe5b0495505b6fa45af1e1f40c333b3de1db4dd55f29a786101515612886576f20000000000000000000000000000000840193506fa45af1e1f40c333b3de1db4dd55f29a76f80000000000000000000000000000000870281151561288257fe5b0495505b6f910b022db7ae67ce76b441c27035c6a1861015156128e5576f10000000000000000000000000000000840193506f910b022db7ae67ce76b441c27035c6a16f8000000000000000000000000000000087028115156128e157fe5b0495505b6f88415abbe9a76bead8d00cf112e4d4a886101515612944576f08000000000000000000000000000000840193506f88415abbe9a76bead8d00cf112e4d4a86f80000000000000000000000000000000870281151561294057fe5b0495505b6f84102b00893f64c705e841d5d4064bd3861015156129a3576f04000000000000000000000000000000840193506f84102b00893f64c705e841d5d4064bd36f80000000000000000000000000000000870281151561299f57fe5b0495505b6f8204055aaef1c8bd5c3259f4822735a286101515612a02576f02000000000000000000000000000000840193506f8204055aaef1c8bd5c3259f4822735a26f8000000000000000000000000000000087028115156129fe57fe5b0495505b6f810100ab00222d861931c15e39b44e9986101515612a61576f01000000000000000000000000000000840193506f810100ab00222d861931c15e39b44e996f800000000000000000000000000000008702811515612a5d57fe5b0495505b6f808040155aabbbe9451521693554f73386101515612abf576e800000000000000000000000000000840193506f808040155aabbbe9451521693554f7336f800000000000000000000000000000008702811515612abb57fe5b0495505b6f80000000000000000000000000000000860392508291506f80000000000000000000000000000000838402811515612af457fe5b04905070010000000000000000000000000000000083700100000000000000000000000000000000038302811515612b2857fe5b04840193506f80000000000000000000000000000000818302811515612b4a57fe5b049150700200000000000000000000000000000000836faaaaaaaaaaaaaaaaaaaaaaaaaaaaaaaa038302811515612b7d57fe5b04840193506f80000000000000000000000000000000818302811515612b9f57fe5b049150700300000000000000000000000000000000836f99999999999999999999999999999999038302811515612bd257fe5b04840193506f80000000000000000000000000000000818302811515612bf457fe5b049150700400000000000000000000000000000000836f92492492492492492492492492492492038302811515612c2757fe5b04840193506f80000000000000000000000000000000818302811515612c4957fe5b049150700500000000000000000000000000000000836f8e38e38e38e38e38e38e38e38e38e38e038302811515612c7c57fe5b04840193506f80000000000000000000000000000000818302811515612c9e57fe5b049150700600000000000000000000000000000000836f8ba2e8ba2e8ba2e8ba2e8ba2e8ba2e8b038302811515612cd157fe5b04840193506f80000000000000000000000000000000818302811515612cf357fe5b049150700700000000000000000000000000000000836f89d89d89d89d89d89d89d89d89d89d89038302811515612d2657fe5b04840193506f80000000000000000000000000000000818302811515612d4857fe5b049150700800000000000000000000000000000000836f88888888888888888888888888888888038302811515612d7b57fe5b048401935083945050505050919050565b600080600080600080935085925070010000000000000000000000000000000083101515612e0057612dd86f8000000000000000000000000000000084811515612dd257fe5b04613af9565b91508160ff16839060020a900492506f800000000000000000000000000000008260ff160293505b6f80000000000000000000000000000000831115612e8e57607f90505b60008160ff161115612e8d576f80000000000000000000000000000000838402811515612e4657fe5b04925070010000000000000000000000000000000083101515612e81576001839060020a900492506001810360ff1660019060020a02840193505b80600190039050612e1d565b5b6f05b9de1d10bf4103d647b0955897ba806f03f80fe03f80fe03f80fe03f80fe03f88502811515612ebb57fe5b04945050505050919050565b600080600080600092506f1000000000000000000000000000000085811515612eec57fe5b0691508190506f80000000000000000000000000000000828202811515612f0f57fe5b0490506710e1b3be415a00008102830192506f80000000000000000000000000000000828202811515612f3e57fe5b0490506705a0913f6b1e00008102830192506f80000000000000000000000000000000828202811515612f6d57fe5b049050670168244fdac780008102830192506f80000000000000000000000000000000828202811515612f9c57fe5b049050664807432bc180008102830192506f80000000000000000000000000000000828202811515612fca57fe5b049050660c0135dca040008102830192506f80000000000000000000000000000000828202811515612ff857fe5b0490506601b707b1cdc0008102830192506f8000000000000000000000000000000082820281151561302657fe5b0490506536e0f639b8008102830192506f8000000000000000000000000000000082820281151561305357fe5b049050650618fee9f8008102830192506f8000000000000000000000000000000082820281151561308057fe5b049050649c197dcc008102830192506f800000000000000000000000000000008282028115156130ac57fe5b049050640e30dce4008102830192506f800000000000000000000000000000008282028115156130d857fe5b04905064012ebd13008102830192506f8000000000000000000000000000000082820281151561310457fe5b0490506317499f008102830192506f8000000000000000000000000000000082820281151561312f57fe5b0490506301a9d4808102830192506f8000000000000000000000000000000082820281151561315a57fe5b049050621c63808102830192506f8000000000000000000000000000000082820281151561318457fe5b0490506201c6388102830192506f800000000000000000000000000000008282028115156131ae57fe5b049050611ab88102830192506f800000000000000000000000000000008282028115156131d757fe5b04905061017c8102830192506f8000000000000000000000000000000082820281151561320057fe5b04905060148102830192506f8000000000000000000000000000000082820281151561322857fe5b04905060018102830192506f80000000000000000000000000000000826721c3677c82b400008581151561325857fe5b040101925060006f1000000000000000000000000000000086161415156132ac5770018ebef9eac820ae8682b9793ac6d1e7767001c3d6a24ed82218787d624d3e5eba95f984028115156132a857fe5b0492505b60006f2000000000000000000000000000000086161415156132fb577001368b2fc6f9609fe7aceb46aa619baed470018ebef9eac820ae8682b9793ac6d1e77884028115156132f757fe5b0492505b60006f400000000000000000000000000000008616141515613349576fbc5ab1b16779be3575bd8f0520a9f21f7001368b2fc6f9609fe7aceb46aa619baed5840281151561334557fe5b0492505b60006f800000000000000000000000000000008616141515613396576f454aaa8efe072e7f6ddbab84b40a55c96fbc5ab1b16779be3575bd8f0520a9f21e840281151561339257fe5b0492505b600070010000000000000000000000000000000086161415156133e4576f0960aadc109e7a3bf4578099615711ea6f454aaa8efe072e7f6ddbab84b40a55c584028115156133e057fe5b0492505b60007002000000000000000000000000000000008616141515613431576e2bf84208204f5977f9a8cf01fdce3d6f0960aadc109e7a3bf4578099615711d7840281151561342d57fe5b0492505b6000700400000000000000000000000000000000861614151561347c576d03c6ab775dd0b95b4cbee7e65d116e2bf84208204f5977f9a8cf01fdc307840281151561347857fe5b0492505b829350505050919050565b60008060008060209250607f91505b8160ff166001840160ff1610156134e857600282840160ff168115156134b857fe5b0490508460088260ff166080811015156134ce57fe5b01541015156134df578092506134e3565b8091505b613496565b8460088360ff166080811015156134fb57fe5b015410151561350c5781935061353f565b8460088460ff1660808110151561351f57fe5b01541015156135305782935061353f565b6000151561353a57fe5b600093505b505050919050565b6000806000849150600090508360ff168583029060020a900491506f03442c4e6074a82f1797f72ac00000008202810190508360ff168583029060020a900491506f0116b96f757c380fb287fd0e400000008202810190508360ff168583029060020a900491506e45ae5bdd5f0e03eca1ff43900000008202810190508360ff168583029060020a900491506e0defabf91302cd95b9ffda500000008202810190508360ff168583029060020a900491506e02529ca9832b22439efff9b80000008202810190508360ff168583029060020a900491506d54f1cf12bd04e516b6da880000008202810190508360ff168583029060020a900491506d0a9e39e257a09ca2d6db510000008202810190508360ff168583029060020a900491506d012e066e7b839fa050c3090000008202810190508360ff168583029060020a900491506c1e33d7d926c329a1ad1a8000008202810190508360ff168583029060020a900491506c02bee513bdb4a6b19b5f8000008202810190508360ff168583029060020a900491506b3a9316fa79b88eccf2a000008202810190508360ff168583029060020a900491506b048177ebe1fa8123752000008202810190508360ff168583029060020a900491506a5263fe90242dcbacf000008202810190508360ff168583029060020a900491506a057e22099c030d941000008202810190508360ff168583029060020a900491506957e22099c030d94100008202810190508360ff168583029060020a9004915069052b6b545699763100008202810190508360ff168583029060020a90049150684985f67696bf7480008202810190508360ff168583029060020a900491506803dea12ea99e4980008202810190508360ff168583029060020a900491506731880f2214b6e0008202810190508360ff168583029060020a9004915067025bcff56eb360008202810190508360ff168583029060020a90049150661b722e10ab10008202810190508360ff168583029060020a900491506601317c700770008202810190508360ff168583029060020a90049150650cba84aafa008202810190508360ff168583029060020a900491506482573a0a008202810190508360ff168583029060020a900491506405035ad9008202810190508360ff168583029060020a90049150632f881b008202810190508360ff168583029060020a900491506301b293408202810190508360ff168583029060020a90049150620efc408202810190508360ff168583029060020a90049150617fe08202810190508360ff168583029060020a900491506104208202810190508360ff168583029060020a9004915060218202810190508360ff168583029060020a9004915060018202810190508360ff1660019060020a02856f0688589cc0e9505e2f2fee55800000008381151561395e57fe5b0401019250505092915050565b60008273ffffffffffffffffffffffffffffffffffffffff161415151561399157600080fd5b600160008373ffffffffffffffffffffffffffffffffffffffff1673ffffffffffffffffffffffffffffffffffffffff1681526020019081526020016000205481111515156139df57600080fd5b6139f481600354611f4390919063ffffffff16565b600381905550613a4c81600160008573ffffffffffffffffffffffffffffffffffffffff1673ffffffffffffffffffffffffffffffffffffffff16815260200190815260200160002054611f4390919063ffffffff16565b600160008473ffffffffffffffffffffffffffffffffffffffff1673ffffffffffffffffffffffffffffffffffffffff16815260200190815260200160002081905550600073ffffffffffffffffffffffffffffffffffffffff168273ffffffffffffffffffffffffffffffffffffffff167fddf252ad1be2c89b69c2b068fc378daa952ba7f163c4a11628f55a4df523b3ef836040518082815260200191505060405180910390a35050565b60008060008060009250849150610100821015613b35575b6001821115613b30576001829060020a90049150600183019250613b11565b613b80565b608090505b60008160ff161115613b7f578060ff1660019060020a0282101515613b6c578060ff16829060020a9004915080831792505b60018160ff169060020a90049050613b3a565b5b8293505050509190505600a165627a7a723058201548663be2fdbc64e6c3871d6b53c00de0f2c5973650775dc0574e70209454c90029",
  "source": "pragma solidity 0.4.25;\n\nimport \"./ContinuousToken.sol\";\n\ncontract ERC20ContinuousToken is ContinuousToken {\n    ERC20 public reserveToken;\n\n    constructor(\n        string _name,\n        string _symbol,\n        uint8 _decimals,\n        uint _initialSupply,\n        uint32 _reserveRatio,\n        address _reserveTokenAddress\n    ) public ContinuousToken(_name, _symbol, _decimals, _initialSupply, _reserveRatio) {\n        reserveToken = ERC20(_reserveTokenAddress);\n    }\n\n    function () public { revert(\"Cannot call fallback function.\"); }\n\n    function mint(uint _amount, uint _minReceived) public {\n        _continuousMint(_amount, _minReceived);\n        require(reserveToken.transferFrom(msg.sender, address(this), _amount), \"mint() ERC20.transferFrom failed.\");\n    }\n\n    function burn(uint _amount, uint _minReceived) public {\n        uint returnAmount = _continuousBurn(_amount, _minReceived);\n        require(reserveToken.transfer(msg.sender, returnAmount), \"burn() ERC20.transfer failed.\");\n    }\n\n    function reserveBalance() public view returns (uint) {\n        return reserveToken.balanceOf(address(this));\n    }\n}",
  "sourcePath": "C:/Users/andre/Dropbox/smart-contract-test/test/src/contracts/token/ERC20ContinuousToken.sol",
  "compiler": {
    "name": "solc",
    "version": "0.4.25+commit.59dbf8f1.Emscripten.clang"
  },
  "schemaVersion": "3.4.1",
  "updatedAt": "2021-07-12T08:34:45.642Z",
  "devdoc": {
    "methods": {
      "allowance(address,address)": {
        "details": "Function to check the amount of tokens that an owner allowed to a spender.",
        "params": {
          "owner": "address The address which owns the funds.",
          "spender": "address The address which will spend the funds."
        },
        "return": "A uint256 specifying the amount of tokens still available for the spender."
      },
      "approve(address,uint256)": {
        "details": "Approve the passed address to spend the specified amount of tokens on behalf of msg.sender. Beware that changing an allowance with this method brings the risk that someone may use both the old and the new allowance by unfortunate transaction ordering. One possible solution to mitigate this race condition is to first reduce the spender's allowance to 0 and set the desired value afterwards: https://github.com/ethereum/EIPs/issues/20#issuecomment-263524729",
        "params": {
          "spender": "The address which will spend the funds.",
          "value": "The amount of tokens to be spent."
        }
      },
      "balanceOf(address)": {
        "details": "Gets the balance of the specified address.",
        "params": {
          "owner": "The address to query the balance of."
        },
        "return": "An uint256 representing the amount owned by the passed address."
      },
      "calculatePurchaseReturn(uint256,uint256,uint32,uint256)": {
        "details": "given a continuous token supply, reserve token balance, reserve ratio, and a deposit amount (in the reserve token), calculates the return for a given conversion (in the continuous token)    * Formula: Return = _supply * ((1 + _depositAmount / _reserveBalance) ^ (_reserveRatio / MAX_RESERVE_RATIO) - 1)",
        "params": {
          "_depositAmount": "deposit amount, in reserve token",
          "_reserveBalance": "total reserve token balance",
          "_reserveRatio": "reserve ratio, represented in ppm, 1-1000000",
          "_supply": "continuous token total supply"
        },
        "return": "purchase return amount"
      },
      "calculateSaleReturn(uint256,uint256,uint32,uint256)": {
        "details": "given a continuous token supply, reserve token balance, reserve ratio and a sell amount (in the continuous token), calculates the return for a given conversion (in the reserve token)    * Formula: Return = _reserveBalance * (1 - (1 - _sellAmount / _supply) ^ (1 / (_reserveRatio / MAX_RESERVE_RATIO)))",
        "params": {
          "_reserveBalance": "total reserve token balance",
          "_reserveRatio": "constant reserve ratio, represented in ppm, 1-1000000",
          "_sellAmount": "sell amount, in the continuous token itself",
          "_supply": "continuous token total supply"
        },
        "return": "sale return amount"
      },
      "decimals()": {
        "return": "the number of decimals of the token."
      },
      "decreaseAllowance(address,uint256)": {
        "details": "Decrease the amount of tokens that an owner allowed to a spender. approve should be called when allowed_[_spender] == 0. To decrement allowed value is better to use this function to avoid 2 calls (and wait until the first transaction is mined) From MonolithDAO Token.sol",
        "params": {
          "spender": "The address which will spend the funds.",
          "subtractedValue": "The amount of tokens to decrease the allowance by."
        }
      },
      "increaseAllowance(address,uint256)": {
        "details": "Increase the amount of tokens that an owner allowed to a spender. approve should be called when allowed_[_spender] == 0. To increment allowed value is better to use this function to avoid 2 calls (and wait until the first transaction is mined) From MonolithDAO Token.sol",
        "params": {
          "addedValue": "The amount of tokens to increase the allowance by.",
          "spender": "The address which will spend the funds."
        }
      },
      "isOwner()": {
        "return": "true if `msg.sender` is the owner of the contract."
      },
      "name()": {
        "return": "the name of the token."
      },
      "owner()": {
        "return": "the address of the owner."
      },
      "renounceOwnership()": {
        "details": "Allows the current owner to relinquish control of the contract."
      },
      "symbol()": {
        "return": "the symbol of the token."
      },
      "totalSupply()": {
        "details": "Total number of tokens in existence"
      },
      "transfer(address,uint256)": {
        "details": "Transfer token for a specified address",
        "params": {
          "to": "The address to transfer to.",
          "value": "The amount to be transferred."
        }
      },
      "transferFrom(address,address,uint256)": {
        "details": "Transfer tokens from one address to another",
        "params": {
          "from": "address The address which you want to send tokens from",
          "to": "address The address which you want to transfer to",
          "value": "uint256 the amount of tokens to be transferred"
        }
      },
      "transferOwnership(address)": {
        "details": "Allows the current owner to transfer control of the contract to a newOwner.",
        "params": {
          "newOwner": "The address to transfer ownership to."
        }
      }
    }
  },
  "userdoc": {
    "methods": {
      "renounceOwnership()": {
        "notice": "Renouncing to ownership will leave the contract without an owner. It will not be possible to call the functions with the `onlyOwner` modifier anymore."
      }
    }
  }
}