{
  "contractName": "TalentProtocolFactory",
  "abi": [
    {
      "constant": true,
      "inputs": [],
      "name": "name",
      "outputs": [
        {
          "name": "",
          "type": "string"
        }
      ],
      "payable": false,
      "stateMutability": "view",
      "type": "function"
    },
    {
      "constant": true,
      "inputs": [],
      "name": "owner",
      "outputs": [
        {
          "name": "",
          "type": "address"
        }
      ],
      "payable": false,
      "stateMutability": "view",
      "type": "function"
    },
    {
      "constant": true,
      "inputs": [],
      "name": "isOwner",
      "outputs": [
        {
          "name": "",
          "type": "bool"
        }
      ],
      "payable": false,
      "stateMutability": "view",
      "type": "function"
    },
    {
      "inputs": [
        {
          "name": "_talentProtocol",
          "type": "address"
        }
      ],
      "payable": false,
      "stateMutability": "nonpayable",
      "type": "constructor"
    },
    {
      "anonymous": false,
      "inputs": [
        {
          "indexed": false,
          "name": "contractAddress",
          "type": "address"
        }
      ],
      "name": "TalentAdded",
      "type": "event"
    },
    {
      "constant": false,
      "inputs": [
        {
          "name": "_symbol",
          "type": "string"
        },
        {
          "name": "_name",
          "type": "string"
        },
        {
          "name": "_reserveRatio",
          "type": "uint32"
        },
        {
          "name": "_talentAddress",
          "type": "address"
        },
        {
          "name": "_talentFee",
          "type": "uint256"
        }
      ],
      "name": "instanceNewTalent",
      "outputs": [
        {
          "name": "",
          "type": "bool"
        }
      ],
      "payable": false,
      "stateMutability": "nonpayable",
      "type": "function"
    },
    {
      "constant": true,
      "inputs": [],
      "name": "getTalentList",
      "outputs": [
        {
          "name": "",
          "type": "address[]"
        }
      ],
      "payable": false,
      "stateMutability": "view",
      "type": "function"
    }
  ],
  "bytecode": "0x60806040526040805190810160405280601781526020017f54616c656e742050726f746f636f6c20466163746f72790000000000000000008152506001908051906020019061004f929190610106565b5034801561005c57600080fd5b506040516020806158a483398101806040528101908080519060200190929190505050336000806101000a81548173ffffffffffffffffffffffffffffffffffffffff021916908373ffffffffffffffffffffffffffffffffffffffff16021790555080600260006101000a81548173ffffffffffffffffffffffffffffffffffffffff021916908373ffffffffffffffffffffffffffffffffffffffff160217905550506101ab565b828054600181600116156101000203166002900490600052602060002090601f016020900481019282601f1061014757805160ff1916838001178555610175565b82800160010185558215610175579182015b82811115610174578251825591602001919060010190610159565b5b5090506101829190610186565b5090565b6101a891905b808211156101a457600081600090555060010161018c565b5090565b90565b6156ea806101ba6000396000f30060806040526004361062000073576000357c0100000000000000000000000000000000000000000000000000000000900463ffffffff16806306fdde0314620000785780631de4ffcd146200010e57806382d3ce5014620002125780638da5cb5b14620002835780638f32d59b14620002dd575b600080fd5b3480156200008557600080fd5b50620000906200030f565b6040518080602001828103825283818151815260200191508051906020019080838360005b83811015620000d2578082015181840152602081019050620000b5565b50505050905090810190601f168015620001005780820380516001836020036101000a031916815260200191505b509250505060405180910390f35b3480156200011b57600080fd5b50620001f8600480360381019080803590602001908201803590602001908080601f0160208091040260200160405190810160405280939291908181526020018383808284378201915050505050509192919290803590602001908201803590602001908080601f0160208091040260200160405190810160405280939291908181526020018383808284378201915050505050509192919290803563ffffffff169060200190929190803573ffffffffffffffffffffffffffffffffffffffff16906020019092919080359060200190929190505050620003b1565b604051808215151515815260200191505060405180910390f35b3480156200021f57600080fd5b506200022a62000982565b6040518080602001828103825283818151815260200191508051906020019060200280838360005b838110156200026f57808201518184015260208101905062000252565b505050509050019250505060405180910390f35b3480156200029057600080fd5b506200029b62000a12565b604051808273ffffffffffffffffffffffffffffffffffffffff1673ffffffffffffffffffffffffffffffffffffffff16815260200191505060405180910390f35b348015620002ea57600080fd5b50620002f562000a3b565b604051808215151515815260200191505060405180910390f35b60018054600181600116156101000203166002900480601f016020809104026020016040519081016040528092919081815260200182805460018160011615610100020316600290048015620003a95780601f106200037d57610100808354040283529160200191620003a9565b820191906000526020600020905b8154815290600101906020018083116200038b57829003601f168201915b505050505081565b600080620003be62000a3b565b151562000433576040517f08c379a00000000000000000000000000000000000000000000000000000000081526004018080602001828103825260188152602001807f43616c6c6572206d75737420626520746865206f776e6572000000000000000081525060200191505060405180910390fd5b8686858560038451101580156200044c57506008845111155b1515620004e7576040517f08c379a00000000000000000000000000000000000000000000000000000000081526004018080602001828103825260248152602001807f53796d626f6c206d757374206265206265747765656e203320616e642038206381526020017f686172730000000000000000000000000000000000000000000000000000000081525060400191505060405180910390fd5b600183511015151562000562576040517f08c379a000000000000000000000000000000000000000000000000000000000815260040180806020018281038252601c8152602001807f4e616d65206d757374206265206174206c65617374203120636861720000000081525060200191505060405180910390fd5b60008273ffffffffffffffffffffffffffffffffffffffff161415151562000618576040517f08c379a00000000000000000000000000000000000000000000000000000000081526004018080602001828103825260218152602001807f54616c656e742077616c6c65742061646472657373206d75737420626520736581526020017f740000000000000000000000000000000000000000000000000000000000000081525060400191505060405180910390fd5b600081111515620006b7576040517f08c379a00000000000000000000000000000000000000000000000000000000081526004018080602001828103825260218152602001807f54616c656e7420666565206d757374206265206d6f7265207468616e207a657281526020017f6f0000000000000000000000000000000000000000000000000000000000000081525060400191505060405180910390fd5b8a8a8a8a8a620006c662000a12565b600260009054906101000a900473ffffffffffffffffffffffffffffffffffffffff16620006f362000a92565b8080602001806020018863ffffffff1663ffffffff1681526020018773ffffffffffffffffffffffffffffffffffffffff1673ffffffffffffffffffffffffffffffffffffffff1681526020018681526020018573ffffffffffffffffffffffffffffffffffffffff1673ffffffffffffffffffffffffffffffffffffffff1681526020018473ffffffffffffffffffffffffffffffffffffffff1673ffffffffffffffffffffffffffffffffffffffff16815260200183810383528a818151815260200191508051906020019080838360005b83811015620007e4578082015181840152602081019050620007c7565b50505050905090810190601f168015620008125780820380516001836020036101000a031916815260200191505b50838103825289818151815260200191508051906020019080838360005b838110156200084d57808201518184015260208101905062000830565b50505050905090810190601f1680156200087b5780820380516001836020036101000a031916815260200191505b509950505050505050505050604051809103906000f080158015620008a4573d6000803e3d6000fd5b50945060038590806001815401808255809150509060018203906000526020600020016000909192909190916101000a81548173ffffffffffffffffffffffffffffffffffffffff021916908373ffffffffffffffffffffffffffffffffffffffff160217905550507f8f1029372ca2be71ed263f69a64cfa692de3b69b8f2aedeb5feca248fa5d660785604051808273ffffffffffffffffffffffffffffffffffffffff1673ffffffffffffffffffffffffffffffffffffffff16815260200191505060405180910390a160019550505050505095945050505050565b6060600380548060200260200160405190810160405280929190818152602001828054801562000a0857602002820191906000526020600020905b8160009054906101000a900473ffffffffffffffffffffffffffffffffffffffff1673ffffffffffffffffffffffffffffffffffffffff1681526020019060010190808311620009bd575b5050505050905090565b60008060009054906101000a900473ffffffffffffffffffffffffffffffffffffffff16905090565b60008060009054906101000a900473ffffffffffffffffffffffffffffffffffffffff1673ffffffffffffffffffffffffffffffffffffffff163373ffffffffffffffffffffffffffffffffffffffff1614905090565b604051614c1b8062000aa483390190560060806040526040805190810160405280600381526020017f302e3300000000000000000000000000000000000000000000000000000000008152506000908051906020019062000051929190620010fb565b506012608860006101000a81548160ff021916908360ff1602179055503480156200007b57600080fd5b5060405162004c1b38038062004c1b8339810180604052810190808051820192919060200180518201929190602001805190602001909291908051906020019092919080519060200190929190805190602001909291908051906020019092919050505084701c35fedd14ffffffffffffffffffffffff600160206080811015156200010357fe5b0181905550701b0ce43b323fffffffffffffffffffffff600160216080811015156200012b57fe5b01819055507019f0028ec1ffffffffffffffffffffffff600160226080811015156200015357fe5b01819055507018ded91f0e7fffffffffffffffffffffff600160236080811015156200017b57fe5b01819055507017d8ec7f0417ffffffffffffffffffffff60016024608081101515620001a357fe5b01819055507016ddc6556cdbffffffffffffffffffffff60016025608081101515620001cb57fe5b01819055507015ecf52776a1ffffffffffffffffffffff60016026608081101515620001f357fe5b01819055507015060c256cb2ffffffffffffffffffffff600160276080811015156200021b57fe5b0181905550701428a2f98d72ffffffffffffffffffffff600160286080811015156200024357fe5b01819055507013545598e5c23fffffffffffffffffffff600160296080811015156200026b57fe5b0181905550701288c4161ce1dfffffffffffffffffffff6001602a6080811015156200029357fe5b01819055507011c592761c666fffffffffffffffffffff6001602b608081101515620002bb57fe5b018190555070110a688680a757ffffffffffffffffffff6001602c608081101515620002e357fe5b0181905550701056f1b5bedf77ffffffffffffffffffff6001602d6080811015156200030b57fe5b0181905550700faadceceeff8bffffffffffffffffffff6001602e6080811015156200033357fe5b0181905550700f05dc6b27edadffffffffffffffffffff6001602f6080811015156200035b57fe5b0181905550700e67a5a25da4107fffffffffffffffffff600160306080811015156200038357fe5b0181905550700dcff115b14eedffffffffffffffffffff60016031608081101515620003ab57fe5b0181905550700d3e7a392431239fffffffffffffffffff60016032608081101515620003d357fe5b0181905550700cb2ff529eb71e4fffffffffffffffffff60016033608081101515620003fb57fe5b0181905550700c2d415c3db974afffffffffffffffffff600160346080811015156200042357fe5b0181905550700bad03e7d883f69bffffffffffffffffff600160356080811015156200044b57fe5b0181905550700b320d03b2c343d5ffffffffffffffffff600160366080811015156200047357fe5b0181905550700abc25204e02828dffffffffffffffffff600160376080811015156200049b57fe5b0181905550700a4b16f74ee4bb207fffffffffffffffff60016038608081101515620004c357fe5b01819055507009deaf736ac1f569ffffffffffffffffff60016039608081101515620004eb57fe5b0181905550700976bd9952c7aa957fffffffffffffffff6001603a6080811015156200051357fe5b01819055507009131271922eaa606fffffffffffffffff6001603b6080811015156200053b57fe5b01819055507008b380f3558668c46fffffffffffffffff6001603c6080811015156200056357fe5b0181905550700857ddf0117efa215bffffffffffffffff6001603d6080811015156200058b57fe5b01819055507007ffffffffffffffffffffffffffffffff6001603e608081101515620005b357fe5b01819055507007abbf6f6abb9d087fffffffffffffffff6001603f608081101515620005db57fe5b018190555070075af62cbac95f7dfa7fffffffffffffff600160406080811015156200060357fe5b018190555070070d7fb7452e187ac13fffffffffffffff600160416080811015156200062b57fe5b01819055507006c3390ecc8af379295fffffffffffffff600160426080811015156200065357fe5b018190555070067c00a3b07ffc01fd6fffffffffffffff600160436080811015156200067b57fe5b0181905550700637b647c39cbb9d3d27ffffffffffffff60016044608081101515620006a357fe5b01819055507005f63b1fc104dbd39587ffffffffffffff60016045608081101515620006cb57fe5b01819055507005b771955b36e12f7235ffffffffffffff60016046608081101515620006f357fe5b018190555070057b3d49dda84556d6f6ffffffffffffff600160476080811015156200071b57fe5b018190555070054183095b2c8ececf30ffffffffffffff600160486080811015156200074357fe5b018190555070050a28be635ca2b888f77fffffffffffff600160496080811015156200076b57fe5b01819055507004d5156639708c9db33c3fffffffffffff6001604a6080811015156200079357fe5b01819055507004a23105873875bd52dfdfffffffffffff6001604b608081101515620007bb57fe5b0181905550700471649d87199aa990756fffffffffffff6001604c608081101515620007e357fe5b01819055507004429a21a029d4c1457cfbffffffffffff6001604d6080811015156200080b57fe5b0181905550700415bc6d6fb7dd71af2cb3ffffffffffff6001604e6080811015156200083357fe5b01819055507003eab73b3bbfe282243ce1ffffffffffff6001604f6080811015156200085b57fe5b01819055507003c1771ac9fb6b4c18e229ffffffffffff600160506080811015156200088357fe5b0181905550700399e96897690418f785257fffffffffff60016051608081101515620008ab57fe5b0181905550700373fc456c53bb779bf0ea9fffffffffff60016052608081101515620008d357fe5b018190555070034f9e8e490c48e67e6ab8bfffffffffff60016053608081101515620008fb57fe5b018190555070032cbfd4a7adc790560b3337ffffffffff600160546080811015156200092357fe5b018190555070030b50570f6e5d2acca94613ffffffffff600160556080811015156200094b57fe5b01819055507002eb40f9f620fda6b56c2861ffffffffff600160566080811015156200097357fe5b01819055507002cc8340ecb0d0f520a6af58ffffffffff600160576080811015156200099b57fe5b01819055507002af09481380a0a35cf1ba02ffffffffff60016058608081101515620009c357fe5b0181905550700292c5bdd3b92ec810287b1b3fffffffff60016059608081101515620009eb57fe5b0181905550700277abdcdab07d5a77ac6d6b9fffffffff6001605a60808110151562000a1357fe5b018190555070025daf6654b1eaa55fd64df5efffffffff6001605b60808110151562000a3b57fe5b0181905550700244c49c648baa98192dce88b7ffffffff6001605c60808110151562000a6357fe5b018190555070022ce03cd5619a311b2471268bffffffff6001605d60808110151562000a8b57fe5b0181905550700215f77c045fbe885654a44a0fffffffff6001605e60808110151562000ab357fe5b01819055507001ffffffffffffffffffffffffffffffff6001605f60808110151562000adb57fe5b01819055507001eaefdbdaaee7421fc4d3ede5ffffffff6001606060808110151562000b0357fe5b01819055507001d6bd8b2eb257df7e8ca57b09bfffffff6001606160808110151562000b2b57fe5b01819055507001c35fedd14b861eb0443f7f133fffffff6001606260808110151562000b5357fe5b01819055507001b0ce43b322bcde4a56e8ada5afffffff6001606360808110151562000b7b57fe5b018190555070019f0028ec1fff007f5a195a39dfffffff6001606460808110151562000ba357fe5b018190555070018ded91f0e72ee74f49b15ba527ffffff6001606560808110151562000bcb57fe5b018190555070017d8ec7f04136f4e5615fd41a63ffffff6001606660808110151562000bf357fe5b018190555070016ddc6556cdb84bdc8d12d22e6fffffff6001606760808110151562000c1b57fe5b018190555070015ecf52776a1155b5bd8395814f7fffff6001606860808110151562000c4357fe5b018190555070015060c256cb23b3b3cc3754cf40ffffff6001606960808110151562000c6b57fe5b01819055507001428a2f98d728ae223ddab715be3fffff6001606a60808110151562000c9357fe5b018190555070013545598e5c23276ccf0ede68034fffff6001606b60808110151562000cbb57fe5b01819055507001288c4161ce1d6f54b7f61081194fffff6001606c60808110151562000ce357fe5b018190555070011c592761c666aa641d5a01a40f17ffff6001606d60808110151562000d0b57fe5b0181905550700110a688680a7530515f3e6e6cfdcdffff6001606e60808110151562000d3357fe5b01819055507001056f1b5bedf75c6bcb2ce8aed428ffff6001606f60808110151562000d5b57fe5b01819055506ffaadceceeff8a0890f3875f008277fff6001607060808110151562000d8257fe5b01819055506ff05dc6b27edad306388a600f6ba0bfff6001607160808110151562000da957fe5b01819055506fe67a5a25da41063de1495d5b18cdbfff6001607260808110151562000dd057fe5b01819055506fdcff115b14eedde6fc3aa5353f2e4fff6001607360808110151562000df757fe5b01819055506fd3e7a3924312399f9aae2e0f868f8fff6001607460808110151562000e1e57fe5b01819055506fcb2ff529eb71e41582cccd5a1ee26fff6001607560808110151562000e4557fe5b01819055506fc2d415c3db974ab32a51840c0b67edff6001607660808110151562000e6c57fe5b01819055506fbad03e7d883f69ad5b0a186184e06bff6001607760808110151562000e9357fe5b01819055506fb320d03b2c343d4829abd6075f0cc5ff6001607860808110151562000eba57fe5b01819055506fabc25204e02828d73c6e80bcdb1a95bf6001607960808110151562000ee157fe5b01819055506fa4b16f74ee4bb2040a1ec6c15fbbf2df6001607a60808110151562000f0857fe5b01819055506f9deaf736ac1f569deb1b5ae3f36c130f6001607b60808110151562000f2f57fe5b01819055506f976bd9952c7aa957f5937d790ef650376001607c60808110151562000f5657fe5b01819055506f9131271922eaa6064b73a22d0bd4f2bf6001607d60808110151562000f7d57fe5b01819055506f8b380f3558668c46c91c49a2f8e967b96001607e60808110151562000fa457fe5b01819055506f857ddf0117efa215952912839f6473e66001607f60808110151562000fcb57fe5b018190555080608160006101000a81548163ffffffff021916908363ffffffff1602179055505086608690805190602001906200100a929190620010fb565b50856087908051906020019062001023929190620010fb565b5083608860016101000a81548173ffffffffffffffffffffffffffffffffffffffff021916908373ffffffffffffffffffffffffffffffffffffffff1602179055508260898190555081608a60006101000a81548173ffffffffffffffffffffffffffffffffffffffff021916908373ffffffffffffffffffffffffffffffffffffffff16021790555080608b60006101000a81548173ffffffffffffffffffffffffffffffffffffffff021916908373ffffffffffffffffffffffffffffffffffffffff16021790555050505050505050620011aa565b828054600181600116156101000203166002900490600052602060002090601f016020900481019282601f106200113e57805160ff19168380011785556200116f565b828001600101855582156200116f579182015b828111156200116e57825182559160200191906001019062001151565b5b5090506200117e919062001182565b5090565b620011a791905b80821115620011a357600081600090555060010162001189565b5090565b90565b613a6180620011ba6000396000f30060806040526004361061015f576000357c0100000000000000000000000000000000000000000000000000000000900463ffffffff16806305a0ba7e146101da57806306fdde03146101fa578063095ea7b31461028a5780630c7d5cd8146102ef5780630d8f9f7f146103265780631249c58b1461036757806318160ddd1461037157806323b872dd1461039c57806329a00e7c1461042157806339509351146104865780633c98ec51146104eb5780633fdbd72a1461050b57806342966c6814610536578063460a54891461056357806349f9b0f7146105ba57806354fd4d501461061f57806370a08231146106af5780637cbed3e01461070657806395d89b4114610747578063a10954fe146107d7578063a457c2d714610802578063a8c6acda14610867578063a9059cbb146108a8578063c21c0f4e1461090d578063d2d7231f1461092d578063da12457a1461096e578063dd62ed3e14610999575b34801561016b57600080fd5b506040517f08c379a000000000000000000000000000000000000000000000000000000000815260040180806020018281038252601e8152602001807f43616e6e6f742063616c6c2066616c6c6261636b2066756e6374696f6e2e000081525060200191505060405180910390fd5b6101f860048036038101908080359060200190929190505050610a10565b005b34801561020657600080fd5b5061020f610aef565b6040518080602001828103825283818151815260200191508051906020019080838360005b8381101561024f578082015181840152602081019050610234565b50505050905090810190601f16801561027c5780820380516001836020036101000a031916815260200191505b509250505060405180910390f35b34801561029657600080fd5b506102d5600480360381019080803573ffffffffffffffffffffffffffffffffffffffff16906020019092919080359060200190929190505050610b8d565b604051808215151515815260200191505060405180910390f35b3480156102fb57600080fd5b50610304610cba565b604051808263ffffffff1663ffffffff16815260200191505060405180910390f35b34801561033257600080fd5b5061035160048036038101908080359060200190929190505050610cd0565b6040518082815260200191505060405180910390f35b61036f610d05565b005b34801561037d57600080fd5b50610386610d89565b6040518082815260200191505060405180910390f35b3480156103a857600080fd5b50610407600480360381019080803573ffffffffffffffffffffffffffffffffffffffff169060200190929190803573ffffffffffffffffffffffffffffffffffffffff16906020019092919080359060200190929190505050610d93565b604051808215151515815260200191505060405180910390f35b34801561042d57600080fd5b506104706004803603810190808035906020019092919080359060200190929190803563ffffffff16906020019092919080359060200190929190505050610f45565b6040518082815260200191505060405180910390f35b34801561049257600080fd5b506104d1600480360381019080803573ffffffffffffffffffffffffffffffffffffffff169060200190929190803590602001909291905050506110bf565b604051808215151515815260200191505060405180910390f35b610509600480360381019080803590602001909291905050506112f6565b005b34801561051757600080fd5b50610520611615565b6040518082815260200191505060405180910390f35b34801561054257600080fd5b506105616004803603810190808035906020019092919050505061161b565b005b34801561056f57600080fd5b50610578611673565b604051808273ffffffffffffffffffffffffffffffffffffffff1673ffffffffffffffffffffffffffffffffffffffff16815260200191505060405180910390f35b3480156105c657600080fd5b506106096004803603810190808035906020019092919080359060200190929190803563ffffffff16906020019092919080359060200190929190505050611699565b6040518082815260200191505060405180910390f35b34801561062b57600080fd5b50610634611846565b6040518080602001828103825283818151815260200191508051906020019080838360005b83811015610674578082015181840152602081019050610659565b50505050905090810190601f1680156106a15780820380516001836020036101000a031916815260200191505b509250505060405180910390f35b3480156106bb57600080fd5b506106f0600480360381019080803573ffffffffffffffffffffffffffffffffffffffff1690602001909291905050506118e4565b6040518082815260200191505060405180910390f35b34801561071257600080fd5b506107316004803603810190808035906020019092919050505061192d565b6040518082815260200191505060405180910390f35b34801561075357600080fd5b5061075c611962565b6040518080602001828103825283818151815260200191508051906020019080838360005b8381101561079c578082015181840152602081019050610781565b50505050905090810190601f1680156107c95780820380516001836020036101000a031916815260200191505b509250505060405180910390f35b3480156107e357600080fd5b506107ec611a00565b6040518082815260200191505060405180910390f35b34801561080e57600080fd5b5061084d600480360381019080803573ffffffffffffffffffffffffffffffffffffffff16906020019092919080359060200190929190505050611a0a565b604051808215151515815260200191505060405180910390f35b34801561087357600080fd5b5061089260048036038101908080359060200190929190505050611c41565b6040518082815260200191505060405180910390f35b3480156108b457600080fd5b506108f3600480360381019080803573ffffffffffffffffffffffffffffffffffffffff16906020019092919080359060200190929190505050611c53565b604051808215151515815260200191505060405180910390f35b61092b60048036038101908080359060200190929190505050611c6a565b005b34801561093957600080fd5b5061095860048036038101908080359060200190929190505050611df3565b6040518082815260200191505060405180910390f35b34801561097a57600080fd5b50610983611e05565b6040518082815260200191505060405180910390f35b3480156109a557600080fd5b506109fa600480360381019080803573ffffffffffffffffffffffffffffffffffffffff169060200190929190803573ffffffffffffffffffffffffffffffffffffffff169060200190929190505050611e14565b6040518082815260200191505060405180910390f35b6000608554141515610ab0576040517f08c379a000000000000000000000000000000000000000000000000000000000815260040180806020018281038252602f8152602001807f5468652072657365727665206d75737420626520656d70747920666f7220746881526020017f6520696e697469616c206d696e742e000000000000000000000000000000000081525060400191505060405180910390fd5b80608560008282540192505081905550610aec608a60009054906101000a900473ffffffffffffffffffffffffffffffffffffffff1682611e9b565b50565b60878054600181600116156101000203166002900480601f016020809104026020016040519081016040528092919081815260200182805460018160011615610100020316600290048015610b855780601f10610b5a57610100808354040283529160200191610b85565b820191906000526020600020905b815481529060010190602001808311610b6857829003601f168201915b505050505081565b60008073ffffffffffffffffffffffffffffffffffffffff168373ffffffffffffffffffffffffffffffffffffffff1614151515610bca57600080fd5b81608360003373ffffffffffffffffffffffffffffffffffffffff1673ffffffffffffffffffffffffffffffffffffffff16815260200190815260200160002060008573ffffffffffffffffffffffffffffffffffffffff1673ffffffffffffffffffffffffffffffffffffffff168152602001908152602001600020819055508273ffffffffffffffffffffffffffffffffffffffff163373ffffffffffffffffffffffffffffffffffffffff167f8c5be1e5ebec7d5bd14f71427d1e84f3dd0314c0f7b2291e5b200ac8c7c3b925846040518082815260200191505060405180910390a36001905092915050565b608160009054906101000a900463ffffffff1681565b6000610cfe610cdd611e05565b610ce5611a00565b608160009054906101000a900463ffffffff1685610f45565b9050919050565b600034111515610d7d576040517f08c379a000000000000000000000000000000000000000000000000000000000815260040180806020018281038252601e8152602001807f4d7573742073656e6420657468657220746f2062757920746f6b656e732e000081525060200191505060405180910390fd5b610d8634611fdb565b50565b6000608454905090565b6000608360008573ffffffffffffffffffffffffffffffffffffffff1673ffffffffffffffffffffffffffffffffffffffff16815260200190815260200160002060003373ffffffffffffffffffffffffffffffffffffffff1673ffffffffffffffffffffffffffffffffffffffff168152602001908152602001600020548211151515610e2057600080fd5b610eaf82608360008773ffffffffffffffffffffffffffffffffffffffff1673ffffffffffffffffffffffffffffffffffffffff16815260200190815260200160002060003373ffffffffffffffffffffffffffffffffffffffff1673ffffffffffffffffffffffffffffffffffffffff1681526020019081526020016000205461208f90919063ffffffff16565b608360008673ffffffffffffffffffffffffffffffffffffffff1673ffffffffffffffffffffffffffffffffffffffff16815260200190815260200160002060003373ffffffffffffffffffffffffffffffffffffffff1673ffffffffffffffffffffffffffffffffffffffff16815260200190815260200160002081905550610f3a8484846120b0565b600190509392505050565b60008060008060008089118015610f5c5750600088115b8015610f6e575060008763ffffffff16115b8015610f895750620f424063ffffffff168763ffffffff1611155b1515610ffd576040517f08c379a000000000000000000000000000000000000000000000000000000000815260040180806020018281038252600f8152602001807f496e76616c696420696e707574732e000000000000000000000000000000000081525060200191505060405180910390fd5b600086141561100f57600094506110b3565b620f424063ffffffff168763ffffffff1614156110525761104b8861103d888c6122ce90919063ffffffff16565b61230c90919063ffffffff16565b94506110b3565b611065888761233690919063ffffffff16565b9150611076828989620f4240612357565b80945081955050508260ff16611095858b6122ce90919063ffffffff16565b9060020a900490506110b0898261208f90919063ffffffff16565b94505b50505050949350505050565b60008073ffffffffffffffffffffffffffffffffffffffff168373ffffffffffffffffffffffffffffffffffffffff16141515156110fc57600080fd5b61118b82608360003373ffffffffffffffffffffffffffffffffffffffff1673ffffffffffffffffffffffffffffffffffffffff16815260200190815260200160002060008673ffffffffffffffffffffffffffffffffffffffff1673ffffffffffffffffffffffffffffffffffffffff1681526020019081526020016000205461233690919063ffffffff16565b608360003373ffffffffffffffffffffffffffffffffffffffff1673ffffffffffffffffffffffffffffffffffffffff16815260200190815260200160002060008573ffffffffffffffffffffffffffffffffffffffff1673ffffffffffffffffffffffffffffffffffffffff168152602001908152602001600020819055508273ffffffffffffffffffffffffffffffffffffffff163373ffffffffffffffffffffffffffffffffffffffff167f8c5be1e5ebec7d5bd14f71427d1e84f3dd0314c0f7b2291e5b200ac8c7c3b925608360003373ffffffffffffffffffffffffffffffffffffffff1673ffffffffffffffffffffffffffffffffffffffff16815260200190815260200160002060008773ffffffffffffffffffffffffffffffffffffffff1673ffffffffffffffffffffffffffffffffffffffff168152602001908152602001600020546040518082815260200191505060405180910390a36001905092915050565b60008082111515611395576040517f08c379a00000000000000000000000000000000000000000000000000000000081526004018080602001828103825260268152602001807f4465736972656420616d6f756e74206d7573742062652067726561746572207481526020017f68616e20302e000000000000000000000000000000000000000000000000000081525060400191505060405180910390fd5b608b60009054906101000a900473ffffffffffffffffffffffffffffffffffffffff1673ffffffffffffffffffffffffffffffffffffffff1663dd62ed3e33306040518363ffffffff167c0100000000000000000000000000000000000000000000000000000000028152600401808373ffffffffffffffffffffffffffffffffffffffff1673ffffffffffffffffffffffffffffffffffffffff1681526020018273ffffffffffffffffffffffffffffffffffffffff1673ffffffffffffffffffffffffffffffffffffffff16815260200192505050602060405180830381600087803b15801561148657600080fd5b505af115801561149a573d6000803e3d6000fd5b505050506040513d60208110156114b057600080fd5b810190808051906020019092919050505090508181101515156114d257600080fd5b608b60009054906101000a900473ffffffffffffffffffffffffffffffffffffffff1673ffffffffffffffffffffffffffffffffffffffff166323b872dd3330856040518463ffffffff167c0100000000000000000000000000000000000000000000000000000000028152600401808473ffffffffffffffffffffffffffffffffffffffff1673ffffffffffffffffffffffffffffffffffffffff1681526020018373ffffffffffffffffffffffffffffffffffffffff1673ffffffffffffffffffffffffffffffffffffffff1681526020018281526020019350505050602060405180830381600087803b1580156115cb57600080fd5b505af11580156115df573d6000803e3d6000fd5b505050506040513d60208110156115f557600080fd5b81019080805190602001909291905050505061161082611fdb565b505050565b60895481565b600061162682612533565b90503373ffffffffffffffffffffffffffffffffffffffff166108fc829081150290604051600060405180830381858888f1935050505015801561166e573d6000803e3d6000fd5b505050565b608860019054906101000a900473ffffffffffffffffffffffffffffffffffffffff1681565b60008060008060008060008a1180156116b25750600089115b80156116c4575060008863ffffffff16115b80156116df5750620f424063ffffffff168863ffffffff1611155b80156116eb5750898711155b151561175f576040517f08c379a000000000000000000000000000000000000000000000000000000000815260040180806020018281038252600f8152602001807f496e76616c696420696e707574732e000000000000000000000000000000000081525060200191505060405180910390fd5b60008714156117715760009550611839565b8987141561178157889550611839565b620f424063ffffffff168863ffffffff1614156117c4576117bd8a6117af898c6122ce90919063ffffffff16565b61230c90919063ffffffff16565b9550611839565b6117d7878b61208f90919063ffffffff16565b92506117e88a84620f42408b612357565b8095508196505050611803858a6122ce90919063ffffffff16565b91508360ff16899060020a02905061183685611828838561208f90919063ffffffff16565b61230c90919063ffffffff16565b95505b5050505050949350505050565b60008054600181600116156101000203166002900480601f0160208091040260200160405190810160405280929190818152602001828054600181600116156101000203166002900480156118dc5780601f106118b1576101008083540402835291602001916118dc565b820191906000526020600020905b8154815290600101906020018083116118bf57829003601f168201915b505050505081565b6000608260008373ffffffffffffffffffffffffffffffffffffffff1673ffffffffffffffffffffffffffffffffffffffff168152602001908152602001600020549050919050565b600061195b61193a611e05565b611942611a00565b608160009054906101000a900463ffffffff1685611699565b9050919050565b60868054600181600116156101000203166002900480601f0160208091040260200160405190810160405280929190818152602001828054600181600116156101000203166002900480156119f85780601f106119cd576101008083540402835291602001916119f8565b820191906000526020600020905b8154815290600101906020018083116119db57829003601f168201915b505050505081565b6000608554905090565b60008073ffffffffffffffffffffffffffffffffffffffff168373ffffffffffffffffffffffffffffffffffffffff1614151515611a4757600080fd5b611ad682608360003373ffffffffffffffffffffffffffffffffffffffff1673ffffffffffffffffffffffffffffffffffffffff16815260200190815260200160002060008673ffffffffffffffffffffffffffffffffffffffff1673ffffffffffffffffffffffffffffffffffffffff1681526020019081526020016000205461208f90919063ffffffff16565b608360003373ffffffffffffffffffffffffffffffffffffffff1673ffffffffffffffffffffffffffffffffffffffff16815260200190815260200160002060008573ffffffffffffffffffffffffffffffffffffffff1673ffffffffffffffffffffffffffffffffffffffff168152602001908152602001600020819055508273ffffffffffffffffffffffffffffffffffffffff163373ffffffffffffffffffffffffffffffffffffffff167f8c5be1e5ebec7d5bd14f71427d1e84f3dd0314c0f7b2291e5b200ac8c7c3b925608360003373ffffffffffffffffffffffffffffffffffffffff1673ffffffffffffffffffffffffffffffffffffffff16815260200190815260200160002060008773ffffffffffffffffffffffffffffffffffffffff1673ffffffffffffffffffffffffffffffffffffffff168152602001908152602001600020546040518082815260200191505060405180910390a36001905092915050565b6000611c4c8261192d565b9050919050565b6000611c603384846120b0565b6001905092915050565b60008082111515611ce3576040517f08c379a000000000000000000000000000000000000000000000000000000000815260040180806020018281038252601d8152602001807f4d7573742073656e6420657468657220746f2062757920746f6b656e2e00000081525060200191505060405180910390fd5b611cec82612533565b9050608b60009054906101000a900473ffffffffffffffffffffffffffffffffffffffff1673ffffffffffffffffffffffffffffffffffffffff1663a9059cbb33836040518363ffffffff167c0100000000000000000000000000000000000000000000000000000000028152600401808373ffffffffffffffffffffffffffffffffffffffff1673ffffffffffffffffffffffffffffffffffffffff16815260200182815260200192505050602060405180830381600087803b158015611db357600080fd5b505af1158015611dc7573d6000803e3d6000fd5b505050506040513d6020811015611ddd57600080fd5b8101908080519060200190929190505050505050565b6000611dfe82610cd0565b9050919050565b6000611e0f610d89565b905090565b6000608360008473ffffffffffffffffffffffffffffffffffffffff1673ffffffffffffffffffffffffffffffffffffffff16815260200190815260200160002060008373ffffffffffffffffffffffffffffffffffffffff1673ffffffffffffffffffffffffffffffffffffffff16815260200190815260200160002054905092915050565b60008273ffffffffffffffffffffffffffffffffffffffff1614151515611ec157600080fd5b611ed68160845461233690919063ffffffff16565b608481905550611f2e81608260008573ffffffffffffffffffffffffffffffffffffffff1673ffffffffffffffffffffffffffffffffffffffff1681526020019081526020016000205461233690919063ffffffff16565b608260008473ffffffffffffffffffffffffffffffffffffffff1673ffffffffffffffffffffffffffffffffffffffff168152602001908152602001600020819055508173ffffffffffffffffffffffffffffffffffffffff16600073ffffffffffffffffffffffffffffffffffffffff167fddf252ad1be2c89b69c2b068fc378daa952ba7f163c4a11628f55a4df523b3ef836040518082815260200191505060405180910390a35050565b600080600083111515612056576040517f08c379a00000000000000000000000000000000000000000000000000000000081526004018080602001828103825260198152602001807f4465706f736974206d757374206265206e6f6e2d7a65726f2e0000000000000081525060200191505060405180910390fd5b61205f83610cd0565b905061206b3382611e9b565b6120808360855461233690919063ffffffff16565b60858190555080915050919050565b6000808383111515156120a157600080fd5b82840390508091505092915050565b608260008473ffffffffffffffffffffffffffffffffffffffff1673ffffffffffffffffffffffffffffffffffffffff1681526020019081526020016000205481111515156120fe57600080fd5b600073ffffffffffffffffffffffffffffffffffffffff168273ffffffffffffffffffffffffffffffffffffffff161415151561213a57600080fd5b61218c81608260008673ffffffffffffffffffffffffffffffffffffffff1673ffffffffffffffffffffffffffffffffffffffff1681526020019081526020016000205461208f90919063ffffffff16565b608260008573ffffffffffffffffffffffffffffffffffffffff1673ffffffffffffffffffffffffffffffffffffffff1681526020019081526020016000208190555061222181608260008573ffffffffffffffffffffffffffffffffffffffff1673ffffffffffffffffffffffffffffffffffffffff1681526020019081526020016000205461233690919063ffffffff16565b608260008473ffffffffffffffffffffffffffffffffffffffff1673ffffffffffffffffffffffffffffffffffffffff168152602001908152602001600020819055508173ffffffffffffffffffffffffffffffffffffffff168373ffffffffffffffffffffffffffffffffffffffff167fddf252ad1be2c89b69c2b068fc378daa952ba7f163c4a11628f55a4df523b3ef836040518082815260200191505060405180910390a3505050565b60008060008414156122e35760009150612305565b82840290508284828115156122f457fe5b0414151561230157600080fd5b8091505b5092915050565b60008060008311151561231e57600080fd5b828481151561232957fe5b0490508091505092915050565b600080828401905083811015151561234d57600080fd5b8091505092915050565b6000806000806000807002000000000000000000000000000000008a1015156123e8576040517f08c379a00000000000000000000000000000000000000000000000000000000081526004018080602001828103825260188152602001807f626173654e2065786365656473206d61782076616c75652e000000000000000081525060200191505060405180910390fd5b888a10151515612460576040517f08c379a000000000000000000000000000000000000000000000000000000000815260040180806020018281038252601c8152602001807f4261736573203c203120617265206e6f7420737570706f727465642e0000000081525060200191505060405180910390fd5b886f800000000000000000000000000000008b0281151561247d57fe5b04925070015bf0a8b1457695355fb8ac404e7a79e38310156124a9576124a283612667565b93506124b5565b6124b283612c36565b93505b8663ffffffff168863ffffffff1685028115156124ce57fe5b0491507008000000000000000000000000000000008210156124fe576124f382612d71565b607f95509550612526565b61250782613331565b905061252081607f0360ff16839060020a9004826133f1565b81955095505b5050505094509492505050565b6000806000831115156125ae576040517f08c379a00000000000000000000000000000000000000000000000000000000081526004018080602001828103825260188152602001807f416d6f756e74206d757374206265206e6f6e2d7a65726f2e000000000000000081525060200191505060405180910390fd5b826125b8336118e4565b1015151561262e576040517f08c379a000000000000000000000000000000000000000000000000000000000815260040180806020018281038252601c8152602001807f496e73756666696369656e7420746f6b656e7320746f206275726e2e0000000081525060200191505060405180910390fd5b6126378361192d565b905061264e8160855461208f90919063ffffffff16565b60858190555061265e3384613815565b80915050919050565b60008060008060008093506fd3094c70f034de4b96ff7d5b6f99fcd8861015156126d1576f40000000000000000000000000000000840193506fd3094c70f034de4b96ff7d5b6f99fcd86f8000000000000000000000000000000087028115156126cd57fe5b0495505b6fa45af1e1f40c333b3de1db4dd55f29a786101515612730576f20000000000000000000000000000000840193506fa45af1e1f40c333b3de1db4dd55f29a76f80000000000000000000000000000000870281151561272c57fe5b0495505b6f910b022db7ae67ce76b441c27035c6a18610151561278f576f10000000000000000000000000000000840193506f910b022db7ae67ce76b441c27035c6a16f80000000000000000000000000000000870281151561278b57fe5b0495505b6f88415abbe9a76bead8d00cf112e4d4a8861015156127ee576f08000000000000000000000000000000840193506f88415abbe9a76bead8d00cf112e4d4a86f8000000000000000000000000000000087028115156127ea57fe5b0495505b6f84102b00893f64c705e841d5d4064bd38610151561284d576f04000000000000000000000000000000840193506f84102b00893f64c705e841d5d4064bd36f80000000000000000000000000000000870281151561284957fe5b0495505b6f8204055aaef1c8bd5c3259f4822735a2861015156128ac576f02000000000000000000000000000000840193506f8204055aaef1c8bd5c3259f4822735a26f8000000000000000000000000000000087028115156128a857fe5b0495505b6f810100ab00222d861931c15e39b44e998610151561290b576f01000000000000000000000000000000840193506f810100ab00222d861931c15e39b44e996f80000000000000000000000000000000870281151561290757fe5b0495505b6f808040155aabbbe9451521693554f73386101515612969576e800000000000000000000000000000840193506f808040155aabbbe9451521693554f7336f80000000000000000000000000000000870281151561296557fe5b0495505b6f80000000000000000000000000000000860392508291506f8000000000000000000000000000000083840281151561299e57fe5b049050700100000000000000000000000000000000837001000000000000000000000000000000000383028115156129d257fe5b04840193506f800000000000000000000000000000008183028115156129f457fe5b049150700200000000000000000000000000000000836faaaaaaaaaaaaaaaaaaaaaaaaaaaaaaaa038302811515612a2757fe5b04840193506f80000000000000000000000000000000818302811515612a4957fe5b049150700300000000000000000000000000000000836f99999999999999999999999999999999038302811515612a7c57fe5b04840193506f80000000000000000000000000000000818302811515612a9e57fe5b049150700400000000000000000000000000000000836f92492492492492492492492492492492038302811515612ad157fe5b04840193506f80000000000000000000000000000000818302811515612af357fe5b049150700500000000000000000000000000000000836f8e38e38e38e38e38e38e38e38e38e38e038302811515612b2657fe5b04840193506f80000000000000000000000000000000818302811515612b4857fe5b049150700600000000000000000000000000000000836f8ba2e8ba2e8ba2e8ba2e8ba2e8ba2e8b038302811515612b7b57fe5b04840193506f80000000000000000000000000000000818302811515612b9d57fe5b049150700700000000000000000000000000000000836f89d89d89d89d89d89d89d89d89d89d89038302811515612bd057fe5b04840193506f80000000000000000000000000000000818302811515612bf257fe5b049150700800000000000000000000000000000000836f88888888888888888888888888888888038302811515612c2557fe5b048401935083945050505050919050565b600080600080600080935085925070010000000000000000000000000000000083101515612caa57612c826f8000000000000000000000000000000084811515612c7c57fe5b046139a3565b91508160ff16839060020a900492506f800000000000000000000000000000008260ff160293505b6f80000000000000000000000000000000831115612d3857607f90505b60008160ff161115612d37576f80000000000000000000000000000000838402811515612cf057fe5b04925070010000000000000000000000000000000083101515612d2b576001839060020a900492506001810360ff1660019060020a02840193505b80600190039050612cc7565b5b6f05b9de1d10bf4103d647b0955897ba806f03f80fe03f80fe03f80fe03f80fe03f88502811515612d6557fe5b04945050505050919050565b600080600080600092506f1000000000000000000000000000000085811515612d9657fe5b0691508190506f80000000000000000000000000000000828202811515612db957fe5b0490506710e1b3be415a00008102830192506f80000000000000000000000000000000828202811515612de857fe5b0490506705a0913f6b1e00008102830192506f80000000000000000000000000000000828202811515612e1757fe5b049050670168244fdac780008102830192506f80000000000000000000000000000000828202811515612e4657fe5b049050664807432bc180008102830192506f80000000000000000000000000000000828202811515612e7457fe5b049050660c0135dca040008102830192506f80000000000000000000000000000000828202811515612ea257fe5b0490506601b707b1cdc0008102830192506f80000000000000000000000000000000828202811515612ed057fe5b0490506536e0f639b8008102830192506f80000000000000000000000000000000828202811515612efd57fe5b049050650618fee9f8008102830192506f80000000000000000000000000000000828202811515612f2a57fe5b049050649c197dcc008102830192506f80000000000000000000000000000000828202811515612f5657fe5b049050640e30dce4008102830192506f80000000000000000000000000000000828202811515612f8257fe5b04905064012ebd13008102830192506f80000000000000000000000000000000828202811515612fae57fe5b0490506317499f008102830192506f80000000000000000000000000000000828202811515612fd957fe5b0490506301a9d4808102830192506f8000000000000000000000000000000082820281151561300457fe5b049050621c63808102830192506f8000000000000000000000000000000082820281151561302e57fe5b0490506201c6388102830192506f8000000000000000000000000000000082820281151561305857fe5b049050611ab88102830192506f8000000000000000000000000000000082820281151561308157fe5b04905061017c8102830192506f800000000000000000000000000000008282028115156130aa57fe5b04905060148102830192506f800000000000000000000000000000008282028115156130d257fe5b04905060018102830192506f80000000000000000000000000000000826721c3677c82b400008581151561310257fe5b040101925060006f1000000000000000000000000000000086161415156131565770018ebef9eac820ae8682b9793ac6d1e7767001c3d6a24ed82218787d624d3e5eba95f9840281151561315257fe5b0492505b60006f2000000000000000000000000000000086161415156131a5577001368b2fc6f9609fe7aceb46aa619baed470018ebef9eac820ae8682b9793ac6d1e77884028115156131a157fe5b0492505b60006f4000000000000000000000000000000086161415156131f3576fbc5ab1b16779be3575bd8f0520a9f21f7001368b2fc6f9609fe7aceb46aa619baed584028115156131ef57fe5b0492505b60006f800000000000000000000000000000008616141515613240576f454aaa8efe072e7f6ddbab84b40a55c96fbc5ab1b16779be3575bd8f0520a9f21e840281151561323c57fe5b0492505b6000700100000000000000000000000000000000861614151561328e576f0960aadc109e7a3bf4578099615711ea6f454aaa8efe072e7f6ddbab84b40a55c5840281151561328a57fe5b0492505b600070020000000000000000000000000000000086161415156132db576e2bf84208204f5977f9a8cf01fdce3d6f0960aadc109e7a3bf4578099615711d784028115156132d757fe5b0492505b60007004000000000000000000000000000000008616141515613326576d03c6ab775dd0b95b4cbee7e65d116e2bf84208204f5977f9a8cf01fdc307840281151561332257fe5b0492505b829350505050919050565b60008060008060209250607f91505b8160ff166001840160ff16101561339257600282840160ff1681151561336257fe5b0490508460018260ff1660808110151561337857fe5b01541015156133895780925061338d565b8091505b613340565b8460018360ff166080811015156133a557fe5b01541015156133b6578193506133e9565b8460018460ff166080811015156133c957fe5b01541015156133da578293506133e9565b600015156133e457fe5b600093505b505050919050565b6000806000849150600090508360ff168583029060020a900491506f03442c4e6074a82f1797f72ac00000008202810190508360ff168583029060020a900491506f0116b96f757c380fb287fd0e400000008202810190508360ff168583029060020a900491506e45ae5bdd5f0e03eca1ff43900000008202810190508360ff168583029060020a900491506e0defabf91302cd95b9ffda500000008202810190508360ff168583029060020a900491506e02529ca9832b22439efff9b80000008202810190508360ff168583029060020a900491506d54f1cf12bd04e516b6da880000008202810190508360ff168583029060020a900491506d0a9e39e257a09ca2d6db510000008202810190508360ff168583029060020a900491506d012e066e7b839fa050c3090000008202810190508360ff168583029060020a900491506c1e33d7d926c329a1ad1a8000008202810190508360ff168583029060020a900491506c02bee513bdb4a6b19b5f8000008202810190508360ff168583029060020a900491506b3a9316fa79b88eccf2a000008202810190508360ff168583029060020a900491506b048177ebe1fa8123752000008202810190508360ff168583029060020a900491506a5263fe90242dcbacf000008202810190508360ff168583029060020a900491506a057e22099c030d941000008202810190508360ff168583029060020a900491506957e22099c030d94100008202810190508360ff168583029060020a9004915069052b6b545699763100008202810190508360ff168583029060020a90049150684985f67696bf7480008202810190508360ff168583029060020a900491506803dea12ea99e4980008202810190508360ff168583029060020a900491506731880f2214b6e0008202810190508360ff168583029060020a9004915067025bcff56eb360008202810190508360ff168583029060020a90049150661b722e10ab10008202810190508360ff168583029060020a900491506601317c700770008202810190508360ff168583029060020a90049150650cba84aafa008202810190508360ff168583029060020a900491506482573a0a008202810190508360ff168583029060020a900491506405035ad9008202810190508360ff168583029060020a90049150632f881b008202810190508360ff168583029060020a900491506301b293408202810190508360ff168583029060020a90049150620efc408202810190508360ff168583029060020a90049150617fe08202810190508360ff168583029060020a900491506104208202810190508360ff168583029060020a9004915060218202810190508360ff168583029060020a9004915060018202810190508360ff1660019060020a02856f0688589cc0e9505e2f2fee55800000008381151561380857fe5b0401019250505092915050565b60008273ffffffffffffffffffffffffffffffffffffffff161415151561383b57600080fd5b608260008373ffffffffffffffffffffffffffffffffffffffff1673ffffffffffffffffffffffffffffffffffffffff16815260200190815260200160002054811115151561388957600080fd5b61389e8160845461208f90919063ffffffff16565b6084819055506138f681608260008573ffffffffffffffffffffffffffffffffffffffff1673ffffffffffffffffffffffffffffffffffffffff1681526020019081526020016000205461208f90919063ffffffff16565b608260008473ffffffffffffffffffffffffffffffffffffffff1673ffffffffffffffffffffffffffffffffffffffff16815260200190815260200160002081905550600073ffffffffffffffffffffffffffffffffffffffff168273ffffffffffffffffffffffffffffffffffffffff167fddf252ad1be2c89b69c2b068fc378daa952ba7f163c4a11628f55a4df523b3ef836040518082815260200191505060405180910390a35050565b600080600080600092508491506101008210156139df575b60018211156139da576001829060020a900491506001830192506139bb565b613a2a565b608090505b60008160ff161115613a29578060ff1660019060020a0282101515613a16578060ff16829060020a9004915080831792505b60018160ff169060020a900490506139e4565b5b8293505050509190505600a165627a7a72305820d2cf714ef073aaa05da736a244f91cfd5a37c94ae5ebd33c4e4de76e45d5b3a50029a165627a7a72305820d1827442184aaa74ff36f12dcda59ecec2115e47b5b6437ad06599978984b4470029",
  "source": "pragma solidity 0.4.25;\n\nimport \"./ownership/Ownable.sol\";\nimport \"./TalentProtocol.sol\";\nimport \"./CareerCoin.sol\";\n\n// Talent Protocol Factory\ncontract TalentProtocolFactory is Ownable {\n    string public name = \"Talent Protocol Factory\";\n\n    TalentProtocol internal talentProtocol;\n    CareerCoin[] internal talentList;\n\n    event TalentAdded(address contractAddress);\n    \n    constructor (TalentProtocol _talentProtocol) public Ownable() {\n        talentProtocol = _talentProtocol;\n    }\n\n    modifier onlyValidInputData(string _symbol, string _name, address _talentAddress, uint256 _talentFee) {\n        require(bytes(_symbol).length >= 3 && bytes(_symbol).length <= 8, \"Symbol must be between 3 and 8 chars\");\n        require(bytes(_name).length >= 1, \"Name must be at least 1 char\");\n        require(_talentAddress != 0, \"Talent wallet address must be set\");\n        require(_talentFee > 0, \"Talent fee must be more than zero\");\n        _;\n    }\n\n    // INSTANTIATE NEW TALENT ON FACTORY\n    function instanceNewTalent(string _symbol, string _name, uint32 _reserveRatio, address _talentAddress, uint256 _talentFee) onlyOwner onlyValidInputData(_symbol, _name, _talentAddress, _talentFee) public returns (bool) {\n        \n        CareerCoin tCareerCoin = new CareerCoin(_symbol, _name, _reserveRatio, _talentAddress, _talentFee, owner(), talentProtocol);\n        talentList.push(tCareerCoin);\n\n        // emit event when talent contract is created \n        emit TalentAdded(address(tCareerCoin));\n\n        return true;\n    }\n\n    // GET TALENT LIST\n    function getTalentList() external view returns (CareerCoin[] memory)\n    {\n        return talentList;\n    }\n }\n",
  "sourcePath": "/Users/franciscoleal/Documents/workspace/talentprotocol/test-developments/src/contracts/TalentProtocolFactory.sol",
  "compiler": {
    "name": "solc",
    "version": "0.4.25+commit.59dbf8f1.Emscripten.clang"
  },
  "schemaVersion": "3.4.1",
  "updatedAt": "2021-08-18T17:48:56.307Z",
  "networkType": "ethereum",
  "devdoc": {
    "methods": {}
  },
  "userdoc": {
    "methods": {}
  }
}