{
  "contractName": "TalentProtocolFactory",
  "abi": [
    {
      "constant": true,
      "inputs": [],
      "name": "name",
      "outputs": [
        {
          "name": "",
          "type": "string"
        }
      ],
      "payable": false,
      "stateMutability": "view",
      "type": "function"
    },
    {
      "inputs": [
        {
          "name": "_talentProtocol",
          "type": "address"
        }
      ],
      "payable": false,
      "stateMutability": "nonpayable",
      "type": "constructor"
    },
    {
      "anonymous": false,
      "inputs": [
        {
          "indexed": false,
          "name": "contractAddress",
          "type": "address"
        }
      ],
      "name": "TalentAdded",
      "type": "event"
    },
    {
      "constant": false,
      "inputs": [
        {
          "name": "_symbol",
          "type": "string"
        },
        {
          "name": "_name",
          "type": "string"
        },
        {
          "name": "_initialSupply",
          "type": "uint256"
        },
        {
          "name": "_reserveRatio",
          "type": "uint32"
        },
        {
          "name": "_talentAddress",
          "type": "address"
        },
        {
          "name": "_talentFee",
          "type": "uint256"
        }
      ],
      "name": "createNewTalent",
      "outputs": [
        {
          "name": "",
          "type": "bool"
        }
      ],
      "payable": false,
      "stateMutability": "nonpayable",
      "type": "function"
    },
    {
      "constant": true,
      "inputs": [],
      "name": "getTalentList",
      "outputs": [
        {
          "name": "",
          "type": "address[]"
        }
      ],
      "payable": false,
      "stateMutability": "view",
      "type": "function"
    }
  ],
  "bytecode": "0x60806040526040805190810160405280601781526020017f54616c656e742050726f746f636f6c20466163746f72790000000000000000008152506000908051906020019061004f929190610107565b5034801561005c57600080fd5b50604051602080613d248339810180604052810190808051906020019092919050505033600160006101000a81548173ffffffffffffffffffffffffffffffffffffffff021916908373ffffffffffffffffffffffffffffffffffffffff16021790555080600260006101000a81548173ffffffffffffffffffffffffffffffffffffffff021916908373ffffffffffffffffffffffffffffffffffffffff160217905550506101ac565b828054600181600116156101000203166002900490600052602060002090601f016020900481019282601f1061014857805160ff1916838001178555610176565b82800160010185558215610176579182015b8281111561017557825182559160200191906001019061015a565b5b5090506101839190610187565b5090565b6101a991905b808211156101a557600081600090555060010161018d565b5090565b90565b613b69806101bb6000396000f3006080604052600436106200005b576000357c0100000000000000000000000000000000000000000000000000000000900463ffffffff16806306fdde0314620000605780636bede65914620000f657806382d3ce501462000204575b600080fd5b3480156200006d57600080fd5b506200007862000275565b6040518080602001828103825283818151815260200191508051906020019080838360005b83811015620000ba5780820151818401526020810190506200009d565b50505050905090810190601f168015620000e85780820380516001836020036101000a031916815260200191505b509250505060405180910390f35b3480156200010357600080fd5b50620001ea600480360381019080803590602001908201803590602001908080601f0160208091040260200160405190810160405280939291908181526020018383808284378201915050505050509192919290803590602001908201803590602001908080601f016020809104026020016040519081016040528093929190818152602001838380828437820191505050505050919291929080359060200190929190803563ffffffff169060200190929190803573ffffffffffffffffffffffffffffffffffffffff1690602001909291908035906020019092919050505062000317565b604051808215151515815260200191505060405180910390f35b3480156200021157600080fd5b506200021c62000748565b6040518080602001828103825283818151815260200191508051906020019060200280838360005b838110156200026157808201518184015260208101905062000244565b505050509050019250505060405180910390f35b60008054600181600116156101000203166002900480601f0160208091040260200160405190810160405280929190818152602001828054600181600116156101000203166002900480156200030f5780601f10620002e3576101008083540402835291602001916200030f565b820191906000526020600020905b815481529060010190602001808311620002f157829003601f168201915b505050505081565b600080600160009054906101000a900473ffffffffffffffffffffffffffffffffffffffff1673ffffffffffffffffffffffffffffffffffffffff163373ffffffffffffffffffffffffffffffffffffffff16141515620003e0576040517f08c379a00000000000000000000000000000000000000000000000000000000081526004018080602001828103825260188152602001807f43616c6c6572206d75737420626520746865206f776e6572000000000000000081525060200191505060405180910390fd5b6003885110158015620003f557506008885111155b151562000490576040517f08c379a00000000000000000000000000000000000000000000000000000000081526004018080602001828103825260248152602001807f53796d626f6c206d757374206265206265747765656e203320616e642038206381526020017f686172730000000000000000000000000000000000000000000000000000000081525060400191505060405180910390fd5b60018751101515156200050b576040517f08c379a000000000000000000000000000000000000000000000000000000000815260040180806020018281038252601c8152602001807f4e616d65206d757374206265206174206c65617374203120636861720000000081525060200191505060405180910390fd5b8787878787876200051b620007d8565b8080602001806020018781526020018663ffffffff1663ffffffff1681526020018573ffffffffffffffffffffffffffffffffffffffff1673ffffffffffffffffffffffffffffffffffffffff168152602001848152602001838103835289818151815260200191508051906020019080838360005b83811015620005ae57808201518184015260208101905062000591565b50505050905090810190601f168015620005dc5780820380516001836020036101000a031916815260200191505b50838103825288818151815260200191508051906020019080838360005b8381101562000617578082015181840152602081019050620005fa565b50505050905090810190601f168015620006455780820380516001836020036101000a031916815260200191505b5098505050505050505050604051809103906000f0801580156200066d573d6000803e3d6000fd5b50905060038190806001815401808255809150509060018203906000526020600020016000909192909190916101000a81548173ffffffffffffffffffffffffffffffffffffffff021916908373ffffffffffffffffffffffffffffffffffffffff160217905550507f8f1029372ca2be71ed263f69a64cfa692de3b69b8f2aedeb5feca248fa5d660781604051808273ffffffffffffffffffffffffffffffffffffffff1673ffffffffffffffffffffffffffffffffffffffff16815260200191505060405180910390a160019150509695505050505050565b60606003805480602002602001604051908101604052809291908181526020018280548015620007ce57602002820191906000526020600020905b8160009054906101000a900473ffffffffffffffffffffffffffffffffffffffff1673ffffffffffffffffffffffffffffffffffffffff168152602001906001019080831162000783575b5050505050905090565b60405161335480620007ea83390190560060806040526040805190810160405280600381526020017f302e330000000000000000000000000000000000000000000000000000000000815250600090805190602001906200005192919062001075565b506012608560006101000a81548160ff021916908360ff1602179055503480156200007b57600080fd5b50604051620033543803806200335483398101806040528101908080518201929190602001805182019291906020018051906020019092919080519060200190929190805190602001909291908051906020019092919050505082701c35fedd14ffffffffffffffffffffffff60016020608081101515620000f957fe5b0181905550701b0ce43b323fffffffffffffffffffffff600160216080811015156200012157fe5b01819055507019f0028ec1ffffffffffffffffffffffff600160226080811015156200014957fe5b01819055507018ded91f0e7fffffffffffffffffffffff600160236080811015156200017157fe5b01819055507017d8ec7f0417ffffffffffffffffffffff600160246080811015156200019957fe5b01819055507016ddc6556cdbffffffffffffffffffffff60016025608081101515620001c157fe5b01819055507015ecf52776a1ffffffffffffffffffffff60016026608081101515620001e957fe5b01819055507015060c256cb2ffffffffffffffffffffff600160276080811015156200021157fe5b0181905550701428a2f98d72ffffffffffffffffffffff600160286080811015156200023957fe5b01819055507013545598e5c23fffffffffffffffffffff600160296080811015156200026157fe5b0181905550701288c4161ce1dfffffffffffffffffffff6001602a6080811015156200028957fe5b01819055507011c592761c666fffffffffffffffffffff6001602b608081101515620002b157fe5b018190555070110a688680a757ffffffffffffffffffff6001602c608081101515620002d957fe5b0181905550701056f1b5bedf77ffffffffffffffffffff6001602d6080811015156200030157fe5b0181905550700faadceceeff8bffffffffffffffffffff6001602e6080811015156200032957fe5b0181905550700f05dc6b27edadffffffffffffffffffff6001602f6080811015156200035157fe5b0181905550700e67a5a25da4107fffffffffffffffffff600160306080811015156200037957fe5b0181905550700dcff115b14eedffffffffffffffffffff60016031608081101515620003a157fe5b0181905550700d3e7a392431239fffffffffffffffffff60016032608081101515620003c957fe5b0181905550700cb2ff529eb71e4fffffffffffffffffff60016033608081101515620003f157fe5b0181905550700c2d415c3db974afffffffffffffffffff600160346080811015156200041957fe5b0181905550700bad03e7d883f69bffffffffffffffffff600160356080811015156200044157fe5b0181905550700b320d03b2c343d5ffffffffffffffffff600160366080811015156200046957fe5b0181905550700abc25204e02828dffffffffffffffffff600160376080811015156200049157fe5b0181905550700a4b16f74ee4bb207fffffffffffffffff60016038608081101515620004b957fe5b01819055507009deaf736ac1f569ffffffffffffffffff60016039608081101515620004e157fe5b0181905550700976bd9952c7aa957fffffffffffffffff6001603a6080811015156200050957fe5b01819055507009131271922eaa606fffffffffffffffff6001603b6080811015156200053157fe5b01819055507008b380f3558668c46fffffffffffffffff6001603c6080811015156200055957fe5b0181905550700857ddf0117efa215bffffffffffffffff6001603d6080811015156200058157fe5b01819055507007ffffffffffffffffffffffffffffffff6001603e608081101515620005a957fe5b01819055507007abbf6f6abb9d087fffffffffffffffff6001603f608081101515620005d157fe5b018190555070075af62cbac95f7dfa7fffffffffffffff60016040608081101515620005f957fe5b018190555070070d7fb7452e187ac13fffffffffffffff600160416080811015156200062157fe5b01819055507006c3390ecc8af379295fffffffffffffff600160426080811015156200064957fe5b018190555070067c00a3b07ffc01fd6fffffffffffffff600160436080811015156200067157fe5b0181905550700637b647c39cbb9d3d27ffffffffffffff600160446080811015156200069957fe5b01819055507005f63b1fc104dbd39587ffffffffffffff60016045608081101515620006c157fe5b01819055507005b771955b36e12f7235ffffffffffffff60016046608081101515620006e957fe5b018190555070057b3d49dda84556d6f6ffffffffffffff600160476080811015156200071157fe5b018190555070054183095b2c8ececf30ffffffffffffff600160486080811015156200073957fe5b018190555070050a28be635ca2b888f77fffffffffffff600160496080811015156200076157fe5b01819055507004d5156639708c9db33c3fffffffffffff6001604a6080811015156200078957fe5b01819055507004a23105873875bd52dfdfffffffffffff6001604b608081101515620007b157fe5b0181905550700471649d87199aa990756fffffffffffff6001604c608081101515620007d957fe5b01819055507004429a21a029d4c1457cfbffffffffffff6001604d6080811015156200080157fe5b0181905550700415bc6d6fb7dd71af2cb3ffffffffffff6001604e6080811015156200082957fe5b01819055507003eab73b3bbfe282243ce1ffffffffffff6001604f6080811015156200085157fe5b01819055507003c1771ac9fb6b4c18e229ffffffffffff600160506080811015156200087957fe5b0181905550700399e96897690418f785257fffffffffff60016051608081101515620008a157fe5b0181905550700373fc456c53bb779bf0ea9fffffffffff60016052608081101515620008c957fe5b018190555070034f9e8e490c48e67e6ab8bfffffffffff60016053608081101515620008f157fe5b018190555070032cbfd4a7adc790560b3337ffffffffff600160546080811015156200091957fe5b018190555070030b50570f6e5d2acca94613ffffffffff600160556080811015156200094157fe5b01819055507002eb40f9f620fda6b56c2861ffffffffff600160566080811015156200096957fe5b01819055507002cc8340ecb0d0f520a6af58ffffffffff600160576080811015156200099157fe5b01819055507002af09481380a0a35cf1ba02ffffffffff60016058608081101515620009b957fe5b0181905550700292c5bdd3b92ec810287b1b3fffffffff60016059608081101515620009e157fe5b0181905550700277abdcdab07d5a77ac6d6b9fffffffff6001605a60808110151562000a0957fe5b018190555070025daf6654b1eaa55fd64df5efffffffff6001605b60808110151562000a3157fe5b0181905550700244c49c648baa98192dce88b7ffffffff6001605c60808110151562000a5957fe5b018190555070022ce03cd5619a311b2471268bffffffff6001605d60808110151562000a8157fe5b0181905550700215f77c045fbe885654a44a0fffffffff6001605e60808110151562000aa957fe5b01819055507001ffffffffffffffffffffffffffffffff6001605f60808110151562000ad157fe5b01819055507001eaefdbdaaee7421fc4d3ede5ffffffff6001606060808110151562000af957fe5b01819055507001d6bd8b2eb257df7e8ca57b09bfffffff6001606160808110151562000b2157fe5b01819055507001c35fedd14b861eb0443f7f133fffffff6001606260808110151562000b4957fe5b01819055507001b0ce43b322bcde4a56e8ada5afffffff6001606360808110151562000b7157fe5b018190555070019f0028ec1fff007f5a195a39dfffffff6001606460808110151562000b9957fe5b018190555070018ded91f0e72ee74f49b15ba527ffffff6001606560808110151562000bc157fe5b018190555070017d8ec7f04136f4e5615fd41a63ffffff6001606660808110151562000be957fe5b018190555070016ddc6556cdb84bdc8d12d22e6fffffff6001606760808110151562000c1157fe5b018190555070015ecf52776a1155b5bd8395814f7fffff6001606860808110151562000c3957fe5b018190555070015060c256cb23b3b3cc3754cf40ffffff6001606960808110151562000c6157fe5b01819055507001428a2f98d728ae223ddab715be3fffff6001606a60808110151562000c8957fe5b018190555070013545598e5c23276ccf0ede68034fffff6001606b60808110151562000cb157fe5b01819055507001288c4161ce1d6f54b7f61081194fffff6001606c60808110151562000cd957fe5b018190555070011c592761c666aa641d5a01a40f17ffff6001606d60808110151562000d0157fe5b0181905550700110a688680a7530515f3e6e6cfdcdffff6001606e60808110151562000d2957fe5b01819055507001056f1b5bedf75c6bcb2ce8aed428ffff6001606f60808110151562000d5157fe5b01819055506ffaadceceeff8a0890f3875f008277fff6001607060808110151562000d7857fe5b01819055506ff05dc6b27edad306388a600f6ba0bfff6001607160808110151562000d9f57fe5b01819055506fe67a5a25da41063de1495d5b18cdbfff6001607260808110151562000dc657fe5b01819055506fdcff115b14eedde6fc3aa5353f2e4fff6001607360808110151562000ded57fe5b01819055506fd3e7a3924312399f9aae2e0f868f8fff6001607460808110151562000e1457fe5b01819055506fcb2ff529eb71e41582cccd5a1ee26fff6001607560808110151562000e3b57fe5b01819055506fc2d415c3db974ab32a51840c0b67edff6001607660808110151562000e6257fe5b01819055506fbad03e7d883f69ad5b0a186184e06bff6001607760808110151562000e8957fe5b01819055506fb320d03b2c343d4829abd6075f0cc5ff6001607860808110151562000eb057fe5b01819055506fabc25204e02828d73c6e80bcdb1a95bf6001607960808110151562000ed757fe5b01819055506fa4b16f74ee4bb2040a1ec6c15fbbf2df6001607a60808110151562000efe57fe5b01819055506f9deaf736ac1f569deb1b5ae3f36c130f6001607b60808110151562000f2557fe5b01819055506f976bd9952c7aa957f5937d790ef650376001607c60808110151562000f4c57fe5b01819055506f9131271922eaa6064b73a22d0bd4f2bf6001607d60808110151562000f7357fe5b01819055506f8b380f3558668c46c91c49a2f8e967b96001607e60808110151562000f9a57fe5b01819055506f857ddf0117efa215952912839f6473e66001607f60808110151562000fc157fe5b018190555080608160006101000a81548163ffffffff021916908363ffffffff1602179055505085608390805190602001906200100092919062001075565b5084608490805190602001906200101992919062001075565b508360868190555081608860006101000a81548173ffffffffffffffffffffffffffffffffffffffff021916908373ffffffffffffffffffffffffffffffffffffffff1602179055508060898190555050505050505062001124565b828054600181600116156101000203166002900490600052602060002090601f016020900481019282601f10620010b857805160ff1916838001178555620010e9565b82800160010185558215620010e9579182015b82811115620010e8578251825591602001919060010190620010cb565b5b509050620010f89190620010fc565b5090565b6200112191905b808211156200111d57600081600090555060010162001103565b5090565b90565b61222080620011346000396000f3006080604052600436106100db576000357c0100000000000000000000000000000000000000000000000000000000900463ffffffff16806306fdde03146101565780630c7d5cd8146101e65780630d8f9f7f1461021d5780631249c58b1461025e57806329a00e7c14610268578063378dc3dc146102cd5780633fdbd72a146102f857806342966c6814610323578063460a54891461035057806349f9b0f7146103a757806354fd4d501461040c5780637cbed3e01461049c57806395d89b41146104dd578063a10954fe1461056d578063da12457a14610598575b3480156100e757600080fd5b506040517f08c379a000000000000000000000000000000000000000000000000000000000815260040180806020018281038252601e8152602001807f43616e6e6f742063616c6c2066616c6c6261636b2066756e6374696f6e2e000081525060200191505060405180910390fd5b34801561016257600080fd5b5061016b6105c3565b6040518080602001828103825283818151815260200191508051906020019080838360005b838110156101ab578082015181840152602081019050610190565b50505050905090810190601f1680156101d85780820380516001836020036101000a031916815260200191505b509250505060405180910390f35b3480156101f257600080fd5b506101fb610661565b604051808263ffffffff1663ffffffff16815260200191505060405180910390f35b34801561022957600080fd5b5061024860048036038101908080359060200190929190505050610677565b6040518082815260200191505060405180910390f35b6102666106ac565b005b34801561027457600080fd5b506102b76004803603810190808035906020019092919080359060200190929190803563ffffffff169060200190929190803590602001909291905050506106d9565b6040518082815260200191505060405180910390f35b3480156102d957600080fd5b506102e2610853565b6040518082815260200191505060405180910390f35b34801561030457600080fd5b5061030d610859565b6040518082815260200191505060405180910390f35b34801561032f57600080fd5b5061034e6004803603810190808035906020019092919050505061085f565b005b34801561035c57600080fd5b506103656108d2565b604051808273ffffffffffffffffffffffffffffffffffffffff1673ffffffffffffffffffffffffffffffffffffffff16815260200191505060405180910390f35b3480156103b357600080fd5b506103f66004803603810190808035906020019092919080359060200190929190803563ffffffff169060200190929190803590602001909291905050506108f8565b6040518082815260200191505060405180910390f35b34801561041857600080fd5b50610421610aa5565b6040518080602001828103825283818151815260200191508051906020019080838360005b83811015610461578082015181840152602081019050610446565b50505050905090810190601f16801561048e5780820380516001836020036101000a031916815260200191505b509250505060405180910390f35b3480156104a857600080fd5b506104c760048036038101908080359060200190929190505050610b43565b6040518082815260200191505060405180910390f35b3480156104e957600080fd5b506104f2610b78565b6040518080602001828103825283818151815260200191508051906020019080838360005b83811015610532578082015181840152602081019050610517565b50505050905090810190601f16801561055f5780820380516001836020036101000a031916815260200191505b509250505060405180910390f35b34801561057957600080fd5b50610582610c16565b6040518082815260200191505060405180910390f35b3480156105a457600080fd5b506105ad610c20565b6040518082815260200191505060405180910390f35b60848054600181600116156101000203166002900480601f0160208091040260200160405190810160405280929190818152602001828054600181600116156101000203166002900480156106595780601f1061062e57610100808354040283529160200191610659565b820191906000526020600020905b81548152906001019060200180831161063c57829003601f168201915b505050505081565b608160009054906101000a900463ffffffff1681565b60006106a5610684610c20565b61068c610c16565b608160009054906101000a900463ffffffff16856106d9565b9050919050565b60003490506106c681608254610c2a90919063ffffffff16565b6082819055506106d581610c4b565b5050565b600080600080600080891180156106f05750600088115b8015610702575060008763ffffffff16115b801561071d5750620f424063ffffffff168763ffffffff1611155b1515610791576040517f08c379a000000000000000000000000000000000000000000000000000000000815260040180806020018281038252600f8152602001807f496e76616c696420696e707574732e000000000000000000000000000000000081525060200191505060405180910390fd5b60008614156107a35760009450610847565b620f424063ffffffff168763ffffffff1614156107e6576107df886107d1888c610ccd90919063ffffffff16565b610d0b90919063ffffffff16565b9450610847565b6107f98887610c2a90919063ffffffff16565b915061080a828989620f4240610d35565b80945081955050508260ff16610829858b610ccd90919063ffffffff16565b9060020a900490506108448982610f1190919063ffffffff16565b94505b50505050949350505050565b60865481565b60895481565b600061086a82610f32565b905061088181608254610f1190919063ffffffff16565b6082819055503373ffffffffffffffffffffffffffffffffffffffff166108fc829081150290604051600060405180830381858888f193505050501580156108cd573d6000803e3d6000fd5b505050565b608860009054906101000a900473ffffffffffffffffffffffffffffffffffffffff1681565b60008060008060008060008a1180156109115750600089115b8015610923575060008863ffffffff16115b801561093e5750620f424063ffffffff168863ffffffff1611155b801561094a5750898711155b15156109be576040517f08c379a000000000000000000000000000000000000000000000000000000000815260040180806020018281038252600f8152602001807f496e76616c696420696e707574732e000000000000000000000000000000000081525060200191505060405180910390fd5b60008714156109d05760009550610a98565b898714156109e057889550610a98565b620f424063ffffffff168863ffffffff161415610a2357610a1c8a610a0e898c610ccd90919063ffffffff16565b610d0b90919063ffffffff16565b9550610a98565b610a36878b610f1190919063ffffffff16565b9250610a478a84620f42408b610d35565b8095508196505050610a62858a610ccd90919063ffffffff16565b91508360ff16899060020a029050610a9585610a878385610f1190919063ffffffff16565b610d0b90919063ffffffff16565b95505b5050505050949350505050565b60008054600181600116156101000203166002900480601f016020809104026020016040519081016040528092919081815260200182805460018160011615610100020316600290048015610b3b5780601f10610b1057610100808354040283529160200191610b3b565b820191906000526020600020905b815481529060010190602001808311610b1e57829003601f168201915b505050505081565b6000610b71610b50610c20565b610b58610c16565b608160009054906101000a900463ffffffff16856108f8565b9050919050565b60838054600181600116156101000203166002900480601f016020809104026020016040519081016040528092919081815260200182805460018160011615610100020316600290048015610c0e5780601f10610be357610100808354040283529160200191610c0e565b820191906000526020600020905b815481529060010190602001808311610bf157829003601f168201915b505050505081565b6000608254905090565b6000608754905090565b6000808284019050838110151515610c4157600080fd5b8091505092915050565b60008082111515610cc4576040517f08c379a00000000000000000000000000000000000000000000000000000000081526004018080602001828103825260198152602001807f4465706f736974206d757374206265206e6f6e2d7a65726f2e0000000000000081525060200191505060405180910390fd5b60019050919050565b6000806000841415610ce25760009150610d04565b8284029050828482811515610cf357fe5b04141515610d0057600080fd5b8091505b5092915050565b600080600083111515610d1d57600080fd5b8284811515610d2857fe5b0490508091505092915050565b6000806000806000807002000000000000000000000000000000008a101515610dc6576040517f08c379a00000000000000000000000000000000000000000000000000000000081526004018080602001828103825260188152602001807f626173654e2065786365656473206d61782076616c75652e000000000000000081525060200191505060405180910390fd5b888a10151515610e3e576040517f08c379a000000000000000000000000000000000000000000000000000000000815260040180806020018281038252601c8152602001807f4261736573203c203120617265206e6f7420737570706f727465642e0000000081525060200191505060405180910390fd5b886f800000000000000000000000000000008b02811515610e5b57fe5b04925070015bf0a8b1457695355fb8ac404e7a79e3831015610e8757610e8083610fb4565b9350610e93565b610e9083611583565b93505b8663ffffffff168863ffffffff168502811515610eac57fe5b049150700800000000000000000000000000000000821015610edc57610ed1826116be565b607f95509550610f04565b610ee582611c7e565b9050610efe81607f0360ff16839060020a900482611d3e565b81955095505b5050505094509492505050565b600080838311151515610f2357600080fd5b82840390508091505092915050565b60008082111515610fab576040517f08c379a00000000000000000000000000000000000000000000000000000000081526004018080602001828103825260188152602001807f416d6f756e74206d757374206265206e6f6e2d7a65726f2e000000000000000081525060200191505060405180910390fd5b60019050919050565b60008060008060008093506fd3094c70f034de4b96ff7d5b6f99fcd88610151561101e576f40000000000000000000000000000000840193506fd3094c70f034de4b96ff7d5b6f99fcd86f80000000000000000000000000000000870281151561101a57fe5b0495505b6fa45af1e1f40c333b3de1db4dd55f29a78610151561107d576f20000000000000000000000000000000840193506fa45af1e1f40c333b3de1db4dd55f29a76f80000000000000000000000000000000870281151561107957fe5b0495505b6f910b022db7ae67ce76b441c27035c6a1861015156110dc576f10000000000000000000000000000000840193506f910b022db7ae67ce76b441c27035c6a16f8000000000000000000000000000000087028115156110d857fe5b0495505b6f88415abbe9a76bead8d00cf112e4d4a88610151561113b576f08000000000000000000000000000000840193506f88415abbe9a76bead8d00cf112e4d4a86f80000000000000000000000000000000870281151561113757fe5b0495505b6f84102b00893f64c705e841d5d4064bd38610151561119a576f04000000000000000000000000000000840193506f84102b00893f64c705e841d5d4064bd36f80000000000000000000000000000000870281151561119657fe5b0495505b6f8204055aaef1c8bd5c3259f4822735a2861015156111f9576f02000000000000000000000000000000840193506f8204055aaef1c8bd5c3259f4822735a26f8000000000000000000000000000000087028115156111f557fe5b0495505b6f810100ab00222d861931c15e39b44e9986101515611258576f01000000000000000000000000000000840193506f810100ab00222d861931c15e39b44e996f80000000000000000000000000000000870281151561125457fe5b0495505b6f808040155aabbbe9451521693554f733861015156112b6576e800000000000000000000000000000840193506f808040155aabbbe9451521693554f7336f8000000000000000000000000000000087028115156112b257fe5b0495505b6f80000000000000000000000000000000860392508291506f800000000000000000000000000000008384028115156112eb57fe5b0490507001000000000000000000000000000000008370010000000000000000000000000000000003830281151561131f57fe5b04840193506f8000000000000000000000000000000081830281151561134157fe5b049150700200000000000000000000000000000000836faaaaaaaaaaaaaaaaaaaaaaaaaaaaaaaa03830281151561137457fe5b04840193506f8000000000000000000000000000000081830281151561139657fe5b049150700300000000000000000000000000000000836f999999999999999999999999999999990383028115156113c957fe5b04840193506f800000000000000000000000000000008183028115156113eb57fe5b049150700400000000000000000000000000000000836f9249249249249249249249249249249203830281151561141e57fe5b04840193506f8000000000000000000000000000000081830281151561144057fe5b049150700500000000000000000000000000000000836f8e38e38e38e38e38e38e38e38e38e38e03830281151561147357fe5b04840193506f8000000000000000000000000000000081830281151561149557fe5b049150700600000000000000000000000000000000836f8ba2e8ba2e8ba2e8ba2e8ba2e8ba2e8b0383028115156114c857fe5b04840193506f800000000000000000000000000000008183028115156114ea57fe5b049150700700000000000000000000000000000000836f89d89d89d89d89d89d89d89d89d89d8903830281151561151d57fe5b04840193506f8000000000000000000000000000000081830281151561153f57fe5b049150700800000000000000000000000000000000836f8888888888888888888888888888888803830281151561157257fe5b048401935083945050505050919050565b6000806000806000809350859250700100000000000000000000000000000000831015156115f7576115cf6f80000000000000000000000000000000848115156115c957fe5b04612162565b91508160ff16839060020a900492506f800000000000000000000000000000008260ff160293505b6f8000000000000000000000000000000083111561168557607f90505b60008160ff161115611684576f8000000000000000000000000000000083840281151561163d57fe5b04925070010000000000000000000000000000000083101515611678576001839060020a900492506001810360ff1660019060020a02840193505b80600190039050611614565b5b6f05b9de1d10bf4103d647b0955897ba806f03f80fe03f80fe03f80fe03f80fe03f885028115156116b257fe5b04945050505050919050565b600080600080600092506f10000000000000000000000000000000858115156116e357fe5b0691508190506f8000000000000000000000000000000082820281151561170657fe5b0490506710e1b3be415a00008102830192506f8000000000000000000000000000000082820281151561173557fe5b0490506705a0913f6b1e00008102830192506f8000000000000000000000000000000082820281151561176457fe5b049050670168244fdac780008102830192506f8000000000000000000000000000000082820281151561179357fe5b049050664807432bc180008102830192506f800000000000000000000000000000008282028115156117c157fe5b049050660c0135dca040008102830192506f800000000000000000000000000000008282028115156117ef57fe5b0490506601b707b1cdc0008102830192506f8000000000000000000000000000000082820281151561181d57fe5b0490506536e0f639b8008102830192506f8000000000000000000000000000000082820281151561184a57fe5b049050650618fee9f8008102830192506f8000000000000000000000000000000082820281151561187757fe5b049050649c197dcc008102830192506f800000000000000000000000000000008282028115156118a357fe5b049050640e30dce4008102830192506f800000000000000000000000000000008282028115156118cf57fe5b04905064012ebd13008102830192506f800000000000000000000000000000008282028115156118fb57fe5b0490506317499f008102830192506f8000000000000000000000000000000082820281151561192657fe5b0490506301a9d4808102830192506f8000000000000000000000000000000082820281151561195157fe5b049050621c63808102830192506f8000000000000000000000000000000082820281151561197b57fe5b0490506201c6388102830192506f800000000000000000000000000000008282028115156119a557fe5b049050611ab88102830192506f800000000000000000000000000000008282028115156119ce57fe5b04905061017c8102830192506f800000000000000000000000000000008282028115156119f757fe5b04905060148102830192506f80000000000000000000000000000000828202811515611a1f57fe5b04905060018102830192506f80000000000000000000000000000000826721c3677c82b4000085811515611a4f57fe5b040101925060006f100000000000000000000000000000008616141515611aa35770018ebef9eac820ae8682b9793ac6d1e7767001c3d6a24ed82218787d624d3e5eba95f98402811515611a9f57fe5b0492505b60006f200000000000000000000000000000008616141515611af2577001368b2fc6f9609fe7aceb46aa619baed470018ebef9eac820ae8682b9793ac6d1e7788402811515611aee57fe5b0492505b60006f400000000000000000000000000000008616141515611b40576fbc5ab1b16779be3575bd8f0520a9f21f7001368b2fc6f9609fe7aceb46aa619baed58402811515611b3c57fe5b0492505b60006f800000000000000000000000000000008616141515611b8d576f454aaa8efe072e7f6ddbab84b40a55c96fbc5ab1b16779be3575bd8f0520a9f21e8402811515611b8957fe5b0492505b60007001000000000000000000000000000000008616141515611bdb576f0960aadc109e7a3bf4578099615711ea6f454aaa8efe072e7f6ddbab84b40a55c58402811515611bd757fe5b0492505b60007002000000000000000000000000000000008616141515611c28576e2bf84208204f5977f9a8cf01fdce3d6f0960aadc109e7a3bf4578099615711d78402811515611c2457fe5b0492505b60007004000000000000000000000000000000008616141515611c73576d03c6ab775dd0b95b4cbee7e65d116e2bf84208204f5977f9a8cf01fdc3078402811515611c6f57fe5b0492505b829350505050919050565b60008060008060209250607f91505b8160ff166001840160ff161015611cdf57600282840160ff16811515611caf57fe5b0490508460018260ff16608081101515611cc557fe5b0154101515611cd657809250611cda565b8091505b611c8d565b8460018360ff16608081101515611cf257fe5b0154101515611d0357819350611d36565b8460018460ff16608081101515611d1657fe5b0154101515611d2757829350611d36565b60001515611d3157fe5b600093505b505050919050565b6000806000849150600090508360ff168583029060020a900491506f03442c4e6074a82f1797f72ac00000008202810190508360ff168583029060020a900491506f0116b96f757c380fb287fd0e400000008202810190508360ff168583029060020a900491506e45ae5bdd5f0e03eca1ff43900000008202810190508360ff168583029060020a900491506e0defabf91302cd95b9ffda500000008202810190508360ff168583029060020a900491506e02529ca9832b22439efff9b80000008202810190508360ff168583029060020a900491506d54f1cf12bd04e516b6da880000008202810190508360ff168583029060020a900491506d0a9e39e257a09ca2d6db510000008202810190508360ff168583029060020a900491506d012e066e7b839fa050c3090000008202810190508360ff168583029060020a900491506c1e33d7d926c329a1ad1a8000008202810190508360ff168583029060020a900491506c02bee513bdb4a6b19b5f8000008202810190508360ff168583029060020a900491506b3a9316fa79b88eccf2a000008202810190508360ff168583029060020a900491506b048177ebe1fa8123752000008202810190508360ff168583029060020a900491506a5263fe90242dcbacf000008202810190508360ff168583029060020a900491506a057e22099c030d941000008202810190508360ff168583029060020a900491506957e22099c030d94100008202810190508360ff168583029060020a9004915069052b6b545699763100008202810190508360ff168583029060020a90049150684985f67696bf7480008202810190508360ff168583029060020a900491506803dea12ea99e4980008202810190508360ff168583029060020a900491506731880f2214b6e0008202810190508360ff168583029060020a9004915067025bcff56eb360008202810190508360ff168583029060020a90049150661b722e10ab10008202810190508360ff168583029060020a900491506601317c700770008202810190508360ff168583029060020a90049150650cba84aafa008202810190508360ff168583029060020a900491506482573a0a008202810190508360ff168583029060020a900491506405035ad9008202810190508360ff168583029060020a90049150632f881b008202810190508360ff168583029060020a900491506301b293408202810190508360ff168583029060020a90049150620efc408202810190508360ff168583029060020a90049150617fe08202810190508360ff168583029060020a900491506104208202810190508360ff168583029060020a9004915060218202810190508360ff168583029060020a9004915060018202810190508360ff1660019060020a02856f0688589cc0e9505e2f2fee55800000008381151561215557fe5b0401019250505092915050565b6000806000806000925084915061010082101561219e575b6001821115612199576001829060020a9004915060018301925061217a565b6121e9565b608090505b60008160ff1611156121e8578060ff1660019060020a02821015156121d5578060ff16829060020a9004915080831792505b60018160ff169060020a900490506121a3565b5b8293505050509190505600a165627a7a72305820bc13c3e3250565cb58e9218078030b2b9df7044c9691a27320dedfca64c9dc4b0029a165627a7a72305820153013f09553d83d7c4db2abae28aea5b77a0eeeccebbc51b6cd9e9efe4311420029",
  "source": "pragma solidity 0.4.25;\n\nimport \"./TalentProtocol.sol\";\nimport \"./CareerCoin.sol\";\n\n// Talent Protocol Factory\ncontract TalentProtocolFactory {\n    string public name = \"Talent Protocol Factory\";\n    address internal owner;\n\n    TalentProtocol internal talentProtocol;\n\n    CareerCoin[] internal talentList;\n    event TalentAdded(address contractAddress);\n    \n    constructor (TalentProtocol _talentProtocol) public {\n        owner = msg.sender;\n        talentProtocol = _talentProtocol;\n    }\n\n    // CREATE NEW TALENT\n    function createNewTalent(string _symbol, string _name, uint _initialSupply, uint32 _reserveRatio, address _talentAddress, uint256 _talentFee) public returns (bool) {\n        require(msg.sender == owner, \"Caller must be the owner\");\n        require(bytes(_symbol).length >= 3 && bytes(_symbol).length <= 8, \"Symbol must be between 3 and 8 chars\");\n        require(bytes(_name).length >= 1, \"Name must be at least 1 char\");\n\n        CareerCoin tCareerCoin = new CareerCoin(_symbol, _name, _initialSupply, _reserveRatio, _talentAddress, _talentFee);\n        talentList.push(tCareerCoin);\n\n        // emit event when talent contract is created \n        emit TalentAdded(address(tCareerCoin));\n\n        return true;\n    }\n\n    // GET TALENT LIST\n    function getTalentList() external view returns (CareerCoin[] memory)\n    {\n        return talentList;\n    }\n }\n",
  "sourcePath": "C:/laragon-route/TalentProtocol/test-developments/src/contracts/TalentProtocolFactory.sol",
  "compiler": {
    "name": "solc",
    "version": "0.4.25+commit.59dbf8f1.Emscripten.clang"
  },
  "schemaVersion": "3.4.1",
  "updatedAt": "2021-07-22T17:22:02.414Z",
  "devdoc": {
    "methods": {}
  },
  "userdoc": {
    "methods": {}
  }
}