{
  "contractName": "TalentProtocolFactory",
  "abi": [
    {
      "constant": true,
      "inputs": [],
      "name": "name",
      "outputs": [
        {
          "name": "",
          "type": "string"
        }
      ],
      "payable": false,
      "stateMutability": "view",
      "type": "function"
    },
    {
      "constant": true,
      "inputs": [
        {
          "name": "",
          "type": "uint256"
        }
      ],
      "name": "talentList",
      "outputs": [
        {
          "name": "",
          "type": "address"
        }
      ],
      "payable": false,
      "stateMutability": "view",
      "type": "function"
    },
    {
      "inputs": [
        {
          "name": "_talentProtocol",
          "type": "address"
        }
      ],
      "payable": false,
      "stateMutability": "nonpayable",
      "type": "constructor"
    },
    {
      "anonymous": false,
      "inputs": [
        {
          "indexed": false,
          "name": "contractAddress",
          "type": "address"
        }
      ],
      "name": "TalentAdded",
      "type": "event"
    },
    {
      "constant": false,
      "inputs": [
        {
          "name": "_name",
          "type": "string"
        },
        {
          "name": "_symbol",
          "type": "string"
        },
        {
          "name": "_decimals",
          "type": "uint8"
        },
        {
          "name": "_initialSupply",
          "type": "uint256"
        },
        {
          "name": "_reserveRatio",
          "type": "uint32"
        },
        {
          "name": "_talentAddress",
          "type": "address"
        },
        {
          "name": "_talentFee",
          "type": "uint256"
        }
      ],
      "name": "addTalent",
      "outputs": [
        {
          "name": "",
          "type": "bool"
        }
      ],
      "payable": false,
      "stateMutability": "nonpayable",
      "type": "function"
    },
    {
      "constant": true,
      "inputs": [],
      "name": "getTalentList",
      "outputs": [
        {
          "name": "",
          "type": "address[]"
        }
      ],
      "payable": false,
      "stateMutability": "view",
      "type": "function"
    }
  ],
  "bytecode": "0x60806040526040805190810160405280601781526020017f54616c656e742050726f746f636f6c20466163746f72790000000000000000008152506000908051906020019061004f9291906100c6565b5034801561005c57600080fd5b50604051602080613c228339810180604052810190808051906020019092919050505080600160006101000a81548173ffffffffffffffffffffffffffffffffffffffff021916908373ffffffffffffffffffffffffffffffffffffffff1602179055505061016b565b828054600181600116156101000203166002900490600052602060002090601f016020900481019282601f1061010757805160ff1916838001178555610135565b82800160010185558215610135579182015b82811115610134578251825591602001919060010190610119565b5b5090506101429190610146565b5090565b61016891905b8082111561016457600081600090555060010161014c565b5090565b90565b613aa88061017a6000396000f30060806040526004361062000067576000357c0100000000000000000000000000000000000000000000000000000000900463ffffffff16806306fdde03146200006c578063219b370b146200010257806382d3ce50146200021d578063bee95127146200028e575b600080fd5b3480156200007957600080fd5b5062000084620002fe565b6040518080602001828103825283818151815260200191508051906020019080838360005b83811015620000c6578082015181840152602081019050620000a9565b50505050905090810190601f168015620000f45780820380516001836020036101000a031916815260200191505b509250505060405180910390f35b3480156200010f57600080fd5b5062000203600480360381019080803590602001908201803590602001908080601f0160208091040260200160405190810160405280939291908181526020018383808284378201915050505050509192919290803590602001908201803590602001908080601f0160208091040260200160405190810160405280939291908181526020018383808284378201915050505050509192919290803560ff16906020019092919080359060200190929190803563ffffffff169060200190929190803573ffffffffffffffffffffffffffffffffffffffff16906020019092919080359060200190929190505050620003a0565b604051808215151515815260200191505060405180910390f35b3480156200022a57600080fd5b5062000235620005ef565b6040518080602001828103825283818151815260200191508051906020019060200280838360005b838110156200027a5780820151818401526020810190506200025d565b505050509050019250505060405180910390f35b3480156200029b57600080fd5b50620002bc600480360381019080803590602001909291905050506200067f565b604051808273ffffffffffffffffffffffffffffffffffffffff1673ffffffffffffffffffffffffffffffffffffffff16815260200191505060405180910390f35b60008054600181600116156101000203166002900480601f016020809104026020016040519081016040528092919081815260200182805460018160011615610100020316600290048015620003985780601f106200036c5761010080835404028352916020019162000398565b820191906000526020600020905b8154815290600101906020018083116200037a57829003601f168201915b505050505081565b60008088888888888888620003b4620006be565b8080602001806020018860ff1660ff1681526020018781526020018663ffffffff1663ffffffff1681526020018573ffffffffffffffffffffffffffffffffffffffff1673ffffffffffffffffffffffffffffffffffffffff16815260200184815260200183810383528a818151815260200191508051906020019080838360005b838110156200045357808201518184015260208101905062000436565b50505050905090810190601f168015620004815780820380516001836020036101000a031916815260200191505b50838103825289818151815260200191508051906020019080838360005b83811015620004bc5780820151818401526020810190506200049f565b50505050905090810190601f168015620004ea5780820380516001836020036101000a031916815260200191505b509950505050505050505050604051809103906000f08015801562000513573d6000803e3d6000fd5b50905060028190806001815401808255809150509060018203906000526020600020016000909192909190916101000a81548173ffffffffffffffffffffffffffffffffffffffff021916908373ffffffffffffffffffffffffffffffffffffffff160217905550507f8f1029372ca2be71ed263f69a64cfa692de3b69b8f2aedeb5feca248fa5d660781604051808273ffffffffffffffffffffffffffffffffffffffff1673ffffffffffffffffffffffffffffffffffffffff16815260200191505060405180910390a16001915050979650505050505050565b606060028054806020026020016040519081016040528092919081815260200182805480156200067557602002820191906000526020600020905b8160009054906101000a900473ffffffffffffffffffffffffffffffffffffffff1673ffffffffffffffffffffffffffffffffffffffff16815260200190600101908083116200062a575b5050505050905090565b6002818154811015156200068f57fe5b906000526020600020016000915054906101000a900473ffffffffffffffffffffffffffffffffffffffff1681565b6040516133ad80620006d083390190560060806040526040805190810160405280600381526020017f302e33000000000000000000000000000000000000000000000000000000000081525060009080519060200190620000519291906200107f565b503480156200005f57600080fd5b50604051620033ad380380620033ad8339810180604052810190808051820192919060200180518201929190602001805190602001909291908051906020019092919080519060200190929190805190602001909291908051906020019092919050505082701c35fedd14ffffffffffffffffffffffff60016020608081101515620000e757fe5b0181905550701b0ce43b323fffffffffffffffffffffff600160216080811015156200010f57fe5b01819055507019f0028ec1ffffffffffffffffffffffff600160226080811015156200013757fe5b01819055507018ded91f0e7fffffffffffffffffffffff600160236080811015156200015f57fe5b01819055507017d8ec7f0417ffffffffffffffffffffff600160246080811015156200018757fe5b01819055507016ddc6556cdbffffffffffffffffffffff60016025608081101515620001af57fe5b01819055507015ecf52776a1ffffffffffffffffffffff60016026608081101515620001d757fe5b01819055507015060c256cb2ffffffffffffffffffffff60016027608081101515620001ff57fe5b0181905550701428a2f98d72ffffffffffffffffffffff600160286080811015156200022757fe5b01819055507013545598e5c23fffffffffffffffffffff600160296080811015156200024f57fe5b0181905550701288c4161ce1dfffffffffffffffffffff6001602a6080811015156200027757fe5b01819055507011c592761c666fffffffffffffffffffff6001602b6080811015156200029f57fe5b018190555070110a688680a757ffffffffffffffffffff6001602c608081101515620002c757fe5b0181905550701056f1b5bedf77ffffffffffffffffffff6001602d608081101515620002ef57fe5b0181905550700faadceceeff8bffffffffffffffffffff6001602e6080811015156200031757fe5b0181905550700f05dc6b27edadffffffffffffffffffff6001602f6080811015156200033f57fe5b0181905550700e67a5a25da4107fffffffffffffffffff600160306080811015156200036757fe5b0181905550700dcff115b14eedffffffffffffffffffff600160316080811015156200038f57fe5b0181905550700d3e7a392431239fffffffffffffffffff60016032608081101515620003b757fe5b0181905550700cb2ff529eb71e4fffffffffffffffffff60016033608081101515620003df57fe5b0181905550700c2d415c3db974afffffffffffffffffff600160346080811015156200040757fe5b0181905550700bad03e7d883f69bffffffffffffffffff600160356080811015156200042f57fe5b0181905550700b320d03b2c343d5ffffffffffffffffff600160366080811015156200045757fe5b0181905550700abc25204e02828dffffffffffffffffff600160376080811015156200047f57fe5b0181905550700a4b16f74ee4bb207fffffffffffffffff60016038608081101515620004a757fe5b01819055507009deaf736ac1f569ffffffffffffffffff60016039608081101515620004cf57fe5b0181905550700976bd9952c7aa957fffffffffffffffff6001603a608081101515620004f757fe5b01819055507009131271922eaa606fffffffffffffffff6001603b6080811015156200051f57fe5b01819055507008b380f3558668c46fffffffffffffffff6001603c6080811015156200054757fe5b0181905550700857ddf0117efa215bffffffffffffffff6001603d6080811015156200056f57fe5b01819055507007ffffffffffffffffffffffffffffffff6001603e6080811015156200059757fe5b01819055507007abbf6f6abb9d087fffffffffffffffff6001603f608081101515620005bf57fe5b018190555070075af62cbac95f7dfa7fffffffffffffff60016040608081101515620005e757fe5b018190555070070d7fb7452e187ac13fffffffffffffff600160416080811015156200060f57fe5b01819055507006c3390ecc8af379295fffffffffffffff600160426080811015156200063757fe5b018190555070067c00a3b07ffc01fd6fffffffffffffff600160436080811015156200065f57fe5b0181905550700637b647c39cbb9d3d27ffffffffffffff600160446080811015156200068757fe5b01819055507005f63b1fc104dbd39587ffffffffffffff60016045608081101515620006af57fe5b01819055507005b771955b36e12f7235ffffffffffffff60016046608081101515620006d757fe5b018190555070057b3d49dda84556d6f6ffffffffffffff60016047608081101515620006ff57fe5b018190555070054183095b2c8ececf30ffffffffffffff600160486080811015156200072757fe5b018190555070050a28be635ca2b888f77fffffffffffff600160496080811015156200074f57fe5b01819055507004d5156639708c9db33c3fffffffffffff6001604a6080811015156200077757fe5b01819055507004a23105873875bd52dfdfffffffffffff6001604b6080811015156200079f57fe5b0181905550700471649d87199aa990756fffffffffffff6001604c608081101515620007c757fe5b01819055507004429a21a029d4c1457cfbffffffffffff6001604d608081101515620007ef57fe5b0181905550700415bc6d6fb7dd71af2cb3ffffffffffff6001604e6080811015156200081757fe5b01819055507003eab73b3bbfe282243ce1ffffffffffff6001604f6080811015156200083f57fe5b01819055507003c1771ac9fb6b4c18e229ffffffffffff600160506080811015156200086757fe5b0181905550700399e96897690418f785257fffffffffff600160516080811015156200088f57fe5b0181905550700373fc456c53bb779bf0ea9fffffffffff60016052608081101515620008b757fe5b018190555070034f9e8e490c48e67e6ab8bfffffffffff60016053608081101515620008df57fe5b018190555070032cbfd4a7adc790560b3337ffffffffff600160546080811015156200090757fe5b018190555070030b50570f6e5d2acca94613ffffffffff600160556080811015156200092f57fe5b01819055507002eb40f9f620fda6b56c2861ffffffffff600160566080811015156200095757fe5b01819055507002cc8340ecb0d0f520a6af58ffffffffff600160576080811015156200097f57fe5b01819055507002af09481380a0a35cf1ba02ffffffffff60016058608081101515620009a757fe5b0181905550700292c5bdd3b92ec810287b1b3fffffffff60016059608081101515620009cf57fe5b0181905550700277abdcdab07d5a77ac6d6b9fffffffff6001605a608081101515620009f757fe5b018190555070025daf6654b1eaa55fd64df5efffffffff6001605b60808110151562000a1f57fe5b0181905550700244c49c648baa98192dce88b7ffffffff6001605c60808110151562000a4757fe5b018190555070022ce03cd5619a311b2471268bffffffff6001605d60808110151562000a6f57fe5b0181905550700215f77c045fbe885654a44a0fffffffff6001605e60808110151562000a9757fe5b01819055507001ffffffffffffffffffffffffffffffff6001605f60808110151562000abf57fe5b01819055507001eaefdbdaaee7421fc4d3ede5ffffffff6001606060808110151562000ae757fe5b01819055507001d6bd8b2eb257df7e8ca57b09bfffffff6001606160808110151562000b0f57fe5b01819055507001c35fedd14b861eb0443f7f133fffffff6001606260808110151562000b3757fe5b01819055507001b0ce43b322bcde4a56e8ada5afffffff6001606360808110151562000b5f57fe5b018190555070019f0028ec1fff007f5a195a39dfffffff6001606460808110151562000b8757fe5b018190555070018ded91f0e72ee74f49b15ba527ffffff6001606560808110151562000baf57fe5b018190555070017d8ec7f04136f4e5615fd41a63ffffff6001606660808110151562000bd757fe5b018190555070016ddc6556cdb84bdc8d12d22e6fffffff6001606760808110151562000bff57fe5b018190555070015ecf52776a1155b5bd8395814f7fffff6001606860808110151562000c2757fe5b018190555070015060c256cb23b3b3cc3754cf40ffffff6001606960808110151562000c4f57fe5b01819055507001428a2f98d728ae223ddab715be3fffff6001606a60808110151562000c7757fe5b018190555070013545598e5c23276ccf0ede68034fffff6001606b60808110151562000c9f57fe5b01819055507001288c4161ce1d6f54b7f61081194fffff6001606c60808110151562000cc757fe5b018190555070011c592761c666aa641d5a01a40f17ffff6001606d60808110151562000cef57fe5b0181905550700110a688680a7530515f3e6e6cfdcdffff6001606e60808110151562000d1757fe5b01819055507001056f1b5bedf75c6bcb2ce8aed428ffff6001606f60808110151562000d3f57fe5b01819055506ffaadceceeff8a0890f3875f008277fff6001607060808110151562000d6657fe5b01819055506ff05dc6b27edad306388a600f6ba0bfff6001607160808110151562000d8d57fe5b01819055506fe67a5a25da41063de1495d5b18cdbfff6001607260808110151562000db457fe5b01819055506fdcff115b14eedde6fc3aa5353f2e4fff6001607360808110151562000ddb57fe5b01819055506fd3e7a3924312399f9aae2e0f868f8fff6001607460808110151562000e0257fe5b01819055506fcb2ff529eb71e41582cccd5a1ee26fff6001607560808110151562000e2957fe5b01819055506fc2d415c3db974ab32a51840c0b67edff6001607660808110151562000e5057fe5b01819055506fbad03e7d883f69ad5b0a186184e06bff6001607760808110151562000e7757fe5b01819055506fb320d03b2c343d4829abd6075f0cc5ff6001607860808110151562000e9e57fe5b01819055506fabc25204e02828d73c6e80bcdb1a95bf6001607960808110151562000ec557fe5b01819055506fa4b16f74ee4bb2040a1ec6c15fbbf2df6001607a60808110151562000eec57fe5b01819055506f9deaf736ac1f569deb1b5ae3f36c130f6001607b60808110151562000f1357fe5b01819055506f976bd9952c7aa957f5937d790ef650376001607c60808110151562000f3a57fe5b01819055506f9131271922eaa6064b73a22d0bd4f2bf6001607d60808110151562000f6157fe5b01819055506f8b380f3558668c46c91c49a2f8e967b96001607e60808110151562000f8857fe5b01819055506f857ddf0117efa215952912839f6473e66001607f60808110151562000faf57fe5b018190555080608160006101000a81548163ffffffff021916908363ffffffff16021790555050866083908051906020019062000fee9291906200107f565b508560849080519060200190620010079291906200107f565b5084608560006101000a81548160ff021916908360ff1602179055508360868190555081608860006101000a81548173ffffffffffffffffffffffffffffffffffffffff021916908373ffffffffffffffffffffffffffffffffffffffff16021790555080608981905550505050505050506200112e565b828054600181600116156101000203166002900490600052602060002090601f016020900481019282601f10620010c257805160ff1916838001178555620010f3565b82800160010185558215620010f3579182015b82811115620010f2578251825591602001919060010190620010d5565b5b50905062001102919062001106565b5090565b6200112b91905b80821115620011275760008160009055506001016200110d565b5090565b90565b61226f806200113e6000396000f3006080604052600436106100e6576000357c0100000000000000000000000000000000000000000000000000000000900463ffffffff16806306fdde03146101615780630c7d5cd8146101f15780630d8f9f7f146102285780631249c58b1461026957806329a00e7c14610273578063313ce567146102d8578063378dc3dc146103095780633fdbd72a1461033457806342966c681461035f578063460a54891461038c57806349f9b0f7146103e357806354fd4d50146104485780637cbed3e0146104d857806395d89b4114610519578063a10954fe146105a9578063da12457a146105d4575b3480156100f257600080fd5b506040517f08c379a000000000000000000000000000000000000000000000000000000000815260040180806020018281038252601e8152602001807f43616e6e6f742063616c6c2066616c6c6261636b2066756e6374696f6e2e000081525060200191505060405180910390fd5b34801561016d57600080fd5b506101766105ff565b6040518080602001828103825283818151815260200191508051906020019080838360005b838110156101b657808201518184015260208101905061019b565b50505050905090810190601f1680156101e35780820380516001836020036101000a031916815260200191505b509250505060405180910390f35b3480156101fd57600080fd5b5061020661069d565b604051808263ffffffff1663ffffffff16815260200191505060405180910390f35b34801561023457600080fd5b50610253600480360381019080803590602001909291905050506106b3565b6040518082815260200191505060405180910390f35b6102716106e8565b005b34801561027f57600080fd5b506102c26004803603810190808035906020019092919080359060200190929190803563ffffffff16906020019092919080359060200190929190505050610715565b6040518082815260200191505060405180910390f35b3480156102e457600080fd5b506102ed61088f565b604051808260ff1660ff16815260200191505060405180910390f35b34801561031557600080fd5b5061031e6108a2565b6040518082815260200191505060405180910390f35b34801561034057600080fd5b506103496108a8565b6040518082815260200191505060405180910390f35b34801561036b57600080fd5b5061038a600480360381019080803590602001909291905050506108ae565b005b34801561039857600080fd5b506103a1610921565b604051808273ffffffffffffffffffffffffffffffffffffffff1673ffffffffffffffffffffffffffffffffffffffff16815260200191505060405180910390f35b3480156103ef57600080fd5b506104326004803603810190808035906020019092919080359060200190929190803563ffffffff16906020019092919080359060200190929190505050610947565b6040518082815260200191505060405180910390f35b34801561045457600080fd5b5061045d610af4565b6040518080602001828103825283818151815260200191508051906020019080838360005b8381101561049d578082015181840152602081019050610482565b50505050905090810190601f1680156104ca5780820380516001836020036101000a031916815260200191505b509250505060405180910390f35b3480156104e457600080fd5b5061050360048036038101908080359060200190929190505050610b92565b6040518082815260200191505060405180910390f35b34801561052557600080fd5b5061052e610bc7565b6040518080602001828103825283818151815260200191508051906020019080838360005b8381101561056e578082015181840152602081019050610553565b50505050905090810190601f16801561059b5780820380516001836020036101000a031916815260200191505b509250505060405180910390f35b3480156105b557600080fd5b506105be610c65565b6040518082815260200191505060405180910390f35b3480156105e057600080fd5b506105e9610c6f565b6040518082815260200191505060405180910390f35b60848054600181600116156101000203166002900480601f0160208091040260200160405190810160405280929190818152602001828054600181600116156101000203166002900480156106955780601f1061066a57610100808354040283529160200191610695565b820191906000526020600020905b81548152906001019060200180831161067857829003601f168201915b505050505081565b608160009054906101000a900463ffffffff1681565b60006106e16106c0610c6f565b6106c8610c65565b608160009054906101000a900463ffffffff1685610715565b9050919050565b600034905061070281608254610c7990919063ffffffff16565b60828190555061071181610c9a565b5050565b6000806000806000808911801561072c5750600088115b801561073e575060008763ffffffff16115b80156107595750620f424063ffffffff168763ffffffff1611155b15156107cd576040517f08c379a000000000000000000000000000000000000000000000000000000000815260040180806020018281038252600f8152602001807f496e76616c696420696e707574732e000000000000000000000000000000000081525060200191505060405180910390fd5b60008614156107df5760009450610883565b620f424063ffffffff168763ffffffff1614156108225761081b8861080d888c610d1c90919063ffffffff16565b610d5a90919063ffffffff16565b9450610883565b6108358887610c7990919063ffffffff16565b9150610846828989620f4240610d84565b80945081955050508260ff16610865858b610d1c90919063ffffffff16565b9060020a900490506108808982610f6090919063ffffffff16565b94505b50505050949350505050565b608560009054906101000a900460ff1681565b60865481565b60895481565b60006108b982610f81565b90506108d081608254610f6090919063ffffffff16565b6082819055503373ffffffffffffffffffffffffffffffffffffffff166108fc829081150290604051600060405180830381858888f1935050505015801561091c573d6000803e3d6000fd5b505050565b608860009054906101000a900473ffffffffffffffffffffffffffffffffffffffff1681565b60008060008060008060008a1180156109605750600089115b8015610972575060008863ffffffff16115b801561098d5750620f424063ffffffff168863ffffffff1611155b80156109995750898711155b1515610a0d576040517f08c379a000000000000000000000000000000000000000000000000000000000815260040180806020018281038252600f8152602001807f496e76616c696420696e707574732e000000000000000000000000000000000081525060200191505060405180910390fd5b6000871415610a1f5760009550610ae7565b89871415610a2f57889550610ae7565b620f424063ffffffff168863ffffffff161415610a7257610a6b8a610a5d898c610d1c90919063ffffffff16565b610d5a90919063ffffffff16565b9550610ae7565b610a85878b610f6090919063ffffffff16565b9250610a968a84620f42408b610d84565b8095508196505050610ab1858a610d1c90919063ffffffff16565b91508360ff16899060020a029050610ae485610ad68385610f6090919063ffffffff16565b610d5a90919063ffffffff16565b95505b5050505050949350505050565b60008054600181600116156101000203166002900480601f016020809104026020016040519081016040528092919081815260200182805460018160011615610100020316600290048015610b8a5780601f10610b5f57610100808354040283529160200191610b8a565b820191906000526020600020905b815481529060010190602001808311610b6d57829003601f168201915b505050505081565b6000610bc0610b9f610c6f565b610ba7610c65565b608160009054906101000a900463ffffffff1685610947565b9050919050565b60838054600181600116156101000203166002900480601f016020809104026020016040519081016040528092919081815260200182805460018160011615610100020316600290048015610c5d5780601f10610c3257610100808354040283529160200191610c5d565b820191906000526020600020905b815481529060010190602001808311610c4057829003601f168201915b505050505081565b6000608254905090565b6000608754905090565b6000808284019050838110151515610c9057600080fd5b8091505092915050565b60008082111515610d13576040517f08c379a00000000000000000000000000000000000000000000000000000000081526004018080602001828103825260198152602001807f4465706f736974206d757374206265206e6f6e2d7a65726f2e0000000000000081525060200191505060405180910390fd5b60019050919050565b6000806000841415610d315760009150610d53565b8284029050828482811515610d4257fe5b04141515610d4f57600080fd5b8091505b5092915050565b600080600083111515610d6c57600080fd5b8284811515610d7757fe5b0490508091505092915050565b6000806000806000807002000000000000000000000000000000008a101515610e15576040517f08c379a00000000000000000000000000000000000000000000000000000000081526004018080602001828103825260188152602001807f626173654e2065786365656473206d61782076616c75652e000000000000000081525060200191505060405180910390fd5b888a10151515610e8d576040517f08c379a000000000000000000000000000000000000000000000000000000000815260040180806020018281038252601c8152602001807f4261736573203c203120617265206e6f7420737570706f727465642e0000000081525060200191505060405180910390fd5b886f800000000000000000000000000000008b02811515610eaa57fe5b04925070015bf0a8b1457695355fb8ac404e7a79e3831015610ed657610ecf83611003565b9350610ee2565b610edf836115d2565b93505b8663ffffffff168863ffffffff168502811515610efb57fe5b049150700800000000000000000000000000000000821015610f2b57610f208261170d565b607f95509550610f53565b610f3482611ccd565b9050610f4d81607f0360ff16839060020a900482611d8d565b81955095505b5050505094509492505050565b600080838311151515610f7257600080fd5b82840390508091505092915050565b60008082111515610ffa576040517f08c379a00000000000000000000000000000000000000000000000000000000081526004018080602001828103825260188152602001807f416d6f756e74206d757374206265206e6f6e2d7a65726f2e000000000000000081525060200191505060405180910390fd5b60019050919050565b60008060008060008093506fd3094c70f034de4b96ff7d5b6f99fcd88610151561106d576f40000000000000000000000000000000840193506fd3094c70f034de4b96ff7d5b6f99fcd86f80000000000000000000000000000000870281151561106957fe5b0495505b6fa45af1e1f40c333b3de1db4dd55f29a7861015156110cc576f20000000000000000000000000000000840193506fa45af1e1f40c333b3de1db4dd55f29a76f8000000000000000000000000000000087028115156110c857fe5b0495505b6f910b022db7ae67ce76b441c27035c6a18610151561112b576f10000000000000000000000000000000840193506f910b022db7ae67ce76b441c27035c6a16f80000000000000000000000000000000870281151561112757fe5b0495505b6f88415abbe9a76bead8d00cf112e4d4a88610151561118a576f08000000000000000000000000000000840193506f88415abbe9a76bead8d00cf112e4d4a86f80000000000000000000000000000000870281151561118657fe5b0495505b6f84102b00893f64c705e841d5d4064bd3861015156111e9576f04000000000000000000000000000000840193506f84102b00893f64c705e841d5d4064bd36f8000000000000000000000000000000087028115156111e557fe5b0495505b6f8204055aaef1c8bd5c3259f4822735a286101515611248576f02000000000000000000000000000000840193506f8204055aaef1c8bd5c3259f4822735a26f80000000000000000000000000000000870281151561124457fe5b0495505b6f810100ab00222d861931c15e39b44e99861015156112a7576f01000000000000000000000000000000840193506f810100ab00222d861931c15e39b44e996f8000000000000000000000000000000087028115156112a357fe5b0495505b6f808040155aabbbe9451521693554f73386101515611305576e800000000000000000000000000000840193506f808040155aabbbe9451521693554f7336f80000000000000000000000000000000870281151561130157fe5b0495505b6f80000000000000000000000000000000860392508291506f8000000000000000000000000000000083840281151561133a57fe5b0490507001000000000000000000000000000000008370010000000000000000000000000000000003830281151561136e57fe5b04840193506f8000000000000000000000000000000081830281151561139057fe5b049150700200000000000000000000000000000000836faaaaaaaaaaaaaaaaaaaaaaaaaaaaaaaa0383028115156113c357fe5b04840193506f800000000000000000000000000000008183028115156113e557fe5b049150700300000000000000000000000000000000836f9999999999999999999999999999999903830281151561141857fe5b04840193506f8000000000000000000000000000000081830281151561143a57fe5b049150700400000000000000000000000000000000836f9249249249249249249249249249249203830281151561146d57fe5b04840193506f8000000000000000000000000000000081830281151561148f57fe5b049150700500000000000000000000000000000000836f8e38e38e38e38e38e38e38e38e38e38e0383028115156114c257fe5b04840193506f800000000000000000000000000000008183028115156114e457fe5b049150700600000000000000000000000000000000836f8ba2e8ba2e8ba2e8ba2e8ba2e8ba2e8b03830281151561151757fe5b04840193506f8000000000000000000000000000000081830281151561153957fe5b049150700700000000000000000000000000000000836f89d89d89d89d89d89d89d89d89d89d8903830281151561156c57fe5b04840193506f8000000000000000000000000000000081830281151561158e57fe5b049150700800000000000000000000000000000000836f888888888888888888888888888888880383028115156115c157fe5b048401935083945050505050919050565b6000806000806000809350859250700100000000000000000000000000000000831015156116465761161e6f800000000000000000000000000000008481151561161857fe5b046121b1565b91508160ff16839060020a900492506f800000000000000000000000000000008260ff160293505b6f800000000000000000000000000000008311156116d457607f90505b60008160ff1611156116d3576f8000000000000000000000000000000083840281151561168c57fe5b049250700100000000000000000000000000000000831015156116c7576001839060020a900492506001810360ff1660019060020a02840193505b80600190039050611663565b5b6f05b9de1d10bf4103d647b0955897ba806f03f80fe03f80fe03f80fe03f80fe03f8850281151561170157fe5b04945050505050919050565b600080600080600092506f100000000000000000000000000000008581151561173257fe5b0691508190506f8000000000000000000000000000000082820281151561175557fe5b0490506710e1b3be415a00008102830192506f8000000000000000000000000000000082820281151561178457fe5b0490506705a0913f6b1e00008102830192506f800000000000000000000000000000008282028115156117b357fe5b049050670168244fdac780008102830192506f800000000000000000000000000000008282028115156117e257fe5b049050664807432bc180008102830192506f8000000000000000000000000000000082820281151561181057fe5b049050660c0135dca040008102830192506f8000000000000000000000000000000082820281151561183e57fe5b0490506601b707b1cdc0008102830192506f8000000000000000000000000000000082820281151561186c57fe5b0490506536e0f639b8008102830192506f8000000000000000000000000000000082820281151561189957fe5b049050650618fee9f8008102830192506f800000000000000000000000000000008282028115156118c657fe5b049050649c197dcc008102830192506f800000000000000000000000000000008282028115156118f257fe5b049050640e30dce4008102830192506f8000000000000000000000000000000082820281151561191e57fe5b04905064012ebd13008102830192506f8000000000000000000000000000000082820281151561194a57fe5b0490506317499f008102830192506f8000000000000000000000000000000082820281151561197557fe5b0490506301a9d4808102830192506f800000000000000000000000000000008282028115156119a057fe5b049050621c63808102830192506f800000000000000000000000000000008282028115156119ca57fe5b0490506201c6388102830192506f800000000000000000000000000000008282028115156119f457fe5b049050611ab88102830192506f80000000000000000000000000000000828202811515611a1d57fe5b04905061017c8102830192506f80000000000000000000000000000000828202811515611a4657fe5b04905060148102830192506f80000000000000000000000000000000828202811515611a6e57fe5b04905060018102830192506f80000000000000000000000000000000826721c3677c82b4000085811515611a9e57fe5b040101925060006f100000000000000000000000000000008616141515611af25770018ebef9eac820ae8682b9793ac6d1e7767001c3d6a24ed82218787d624d3e5eba95f98402811515611aee57fe5b0492505b60006f200000000000000000000000000000008616141515611b41577001368b2fc6f9609fe7aceb46aa619baed470018ebef9eac820ae8682b9793ac6d1e7788402811515611b3d57fe5b0492505b60006f400000000000000000000000000000008616141515611b8f576fbc5ab1b16779be3575bd8f0520a9f21f7001368b2fc6f9609fe7aceb46aa619baed58402811515611b8b57fe5b0492505b60006f800000000000000000000000000000008616141515611bdc576f454aaa8efe072e7f6ddbab84b40a55c96fbc5ab1b16779be3575bd8f0520a9f21e8402811515611bd857fe5b0492505b60007001000000000000000000000000000000008616141515611c2a576f0960aadc109e7a3bf4578099615711ea6f454aaa8efe072e7f6ddbab84b40a55c58402811515611c2657fe5b0492505b60007002000000000000000000000000000000008616141515611c77576e2bf84208204f5977f9a8cf01fdce3d6f0960aadc109e7a3bf4578099615711d78402811515611c7357fe5b0492505b60007004000000000000000000000000000000008616141515611cc2576d03c6ab775dd0b95b4cbee7e65d116e2bf84208204f5977f9a8cf01fdc3078402811515611cbe57fe5b0492505b829350505050919050565b60008060008060209250607f91505b8160ff166001840160ff161015611d2e57600282840160ff16811515611cfe57fe5b0490508460018260ff16608081101515611d1457fe5b0154101515611d2557809250611d29565b8091505b611cdc565b8460018360ff16608081101515611d4157fe5b0154101515611d5257819350611d85565b8460018460ff16608081101515611d6557fe5b0154101515611d7657829350611d85565b60001515611d8057fe5b600093505b505050919050565b6000806000849150600090508360ff168583029060020a900491506f03442c4e6074a82f1797f72ac00000008202810190508360ff168583029060020a900491506f0116b96f757c380fb287fd0e400000008202810190508360ff168583029060020a900491506e45ae5bdd5f0e03eca1ff43900000008202810190508360ff168583029060020a900491506e0defabf91302cd95b9ffda500000008202810190508360ff168583029060020a900491506e02529ca9832b22439efff9b80000008202810190508360ff168583029060020a900491506d54f1cf12bd04e516b6da880000008202810190508360ff168583029060020a900491506d0a9e39e257a09ca2d6db510000008202810190508360ff168583029060020a900491506d012e066e7b839fa050c3090000008202810190508360ff168583029060020a900491506c1e33d7d926c329a1ad1a8000008202810190508360ff168583029060020a900491506c02bee513bdb4a6b19b5f8000008202810190508360ff168583029060020a900491506b3a9316fa79b88eccf2a000008202810190508360ff168583029060020a900491506b048177ebe1fa8123752000008202810190508360ff168583029060020a900491506a5263fe90242dcbacf000008202810190508360ff168583029060020a900491506a057e22099c030d941000008202810190508360ff168583029060020a900491506957e22099c030d94100008202810190508360ff168583029060020a9004915069052b6b545699763100008202810190508360ff168583029060020a90049150684985f67696bf7480008202810190508360ff168583029060020a900491506803dea12ea99e4980008202810190508360ff168583029060020a900491506731880f2214b6e0008202810190508360ff168583029060020a9004915067025bcff56eb360008202810190508360ff168583029060020a90049150661b722e10ab10008202810190508360ff168583029060020a900491506601317c700770008202810190508360ff168583029060020a90049150650cba84aafa008202810190508360ff168583029060020a900491506482573a0a008202810190508360ff168583029060020a900491506405035ad9008202810190508360ff168583029060020a90049150632f881b008202810190508360ff168583029060020a900491506301b293408202810190508360ff168583029060020a90049150620efc408202810190508360ff168583029060020a90049150617fe08202810190508360ff168583029060020a900491506104208202810190508360ff168583029060020a9004915060218202810190508360ff168583029060020a9004915060018202810190508360ff1660019060020a02856f0688589cc0e9505e2f2fee5580000000838115156121a457fe5b0401019250505092915050565b600080600080600092508491506101008210156121ed575b60018211156121e8576001829060020a900491506001830192506121c9565b612238565b608090505b60008160ff161115612237578060ff1660019060020a0282101515612224578060ff16829060020a9004915080831792505b60018160ff169060020a900490506121f2565b5b8293505050509190505600a165627a7a72305820490d2343d9acb96783b659790c3bdef05fa1959ffeef91ae2ed404cc0d7ea8400029a165627a7a72305820f13e550086fdba6b0ab3cb1d4b96b81ba7786875f6691e178e068f7be9c8b92a0029",
  "source": "pragma solidity 0.4.25;\n\nimport \"./TalentProtocol.sol\";\nimport \"./CareerCoin.sol\";\n\n// Talent Protocol Factory / Side chain\ncontract TalentProtocolFactory {\n\n    string public name = \"Talent Protocol Factory\";\n    TalentProtocol talentProtocol;\n\n    CareerCoin[] public talentList;\n    event TalentAdded(address contractAddress);\n    \n    constructor (TalentProtocol _talentProtocol) public {\n        talentProtocol = _talentProtocol;\n    }\n\n    // ADD NEW TALENT\n    function addTalent(\n        string _name,\n        string _symbol,\n        uint8 _decimals,\n        uint _initialSupply,\n        uint32 _reserveRatio,\n        address _talentAddress,\n        uint256 _talentFee\n    ) public returns (bool) {\n        \n        CareerCoin talent = new CareerCoin(_name, _symbol, _decimals, _initialSupply, _reserveRatio, _talentAddress, _talentFee);\n        talentList.push(talent);\n\n        // emit event when talent contract is created \n        emit TalentAdded(address(talent));\n        return true;\n    }\n\n    // GET TALENT LIST\n    function getTalentList() external view returns (CareerCoin[] memory)\n    {\n        return talentList;\n    }\n }\n",
  "sourcePath": "C:/Users/andre/Dropbox/smart-contract-test/test/src/contracts/TalentProtocolFactory.sol",
  "compiler": {
    "name": "solc",
    "version": "0.4.25+commit.59dbf8f1.Emscripten.clang"
  },
  "schemaVersion": "3.4.1",
  "updatedAt": "2021-07-12T08:45:10.371Z",
  "networkType": "ethereum",
  "devdoc": {
    "methods": {}
  },
  "userdoc": {
    "methods": {}
  }
}